{
  "contractName": "Agreement",
  "abi": [
    {
      "constant": true,
      "inputs": [],
      "name": "expireTime",
      "outputs": [
        {
          "name": "",
          "type": "uint256"
        }
      ],
      "payable": false,
      "stateMutability": "view",
      "type": "function"
    },
    {
      "constant": true,
      "inputs": [],
      "name": "creditorCoordinator",
      "outputs": [
        {
          "name": "",
          "type": "address"
        }
      ],
      "payable": false,
      "stateMutability": "view",
      "type": "function"
    },
    {
      "constant": true,
      "inputs": [],
      "name": "creditorCoordinatorPermission",
      "outputs": [
        {
          "name": "",
          "type": "uint256"
        }
      ],
      "payable": false,
      "stateMutability": "view",
      "type": "function"
    },
    {
      "constant": true,
      "inputs": [],
      "name": "exchangeRate",
      "outputs": [
        {
          "name": "",
          "type": "uint256"
        }
      ],
      "payable": false,
      "stateMutability": "view",
      "type": "function"
    },
    {
      "constant": true,
      "inputs": [],
      "name": "debtorCoordinator",
      "outputs": [
        {
          "name": "",
          "type": "address"
        }
      ],
      "payable": false,
      "stateMutability": "view",
      "type": "function"
    },
    {
      "constant": true,
      "inputs": [],
      "name": "debtor",
      "outputs": [
        {
          "name": "",
          "type": "address"
        }
      ],
      "payable": false,
      "stateMutability": "view",
      "type": "function"
    },
    {
      "constant": true,
      "inputs": [],
      "name": "NetereumCalled",
      "outputs": [
        {
          "name": "",
          "type": "bool"
        }
      ],
      "payable": false,
      "stateMutability": "view",
      "type": "function"
    },
    {
      "constant": true,
      "inputs": [],
      "name": "debtorCoordinatorPermission",
      "outputs": [
        {
          "name": "",
          "type": "uint256"
        }
      ],
      "payable": false,
      "stateMutability": "view",
      "type": "function"
    },
    {
      "constant": true,
      "inputs": [],
      "name": "creditorPermission",
      "outputs": [
        {
          "name": "",
          "type": "uint256"
        }
      ],
      "payable": false,
      "stateMutability": "view",
      "type": "function"
    },
    {
      "constant": true,
      "inputs": [],
      "name": "creditor",
      "outputs": [
        {
          "name": "",
          "type": "address"
        }
      ],
      "payable": false,
      "stateMutability": "view",
      "type": "function"
    },
    {
      "constant": true,
      "inputs": [],
      "name": "counterPermission",
      "outputs": [
        {
          "name": "",
          "type": "uint8"
        }
      ],
      "payable": false,
      "stateMutability": "view",
      "type": "function"
    },
    {
      "constant": true,
      "inputs": [],
      "name": "debtorCost",
      "outputs": [
        {
          "name": "",
          "type": "uint256"
        }
      ],
      "payable": false,
      "stateMutability": "view",
      "type": "function"
    },
    {
      "constant": true,
      "inputs": [],
      "name": "NetereumAddress",
      "outputs": [
        {
          "name": "",
          "type": "address"
        }
      ],
      "payable": false,
      "stateMutability": "view",
      "type": "function"
    },
    {
      "inputs": [
        {
          "name": "_debtor",
          "type": "address"
        },
        {
          "name": "_creditor",
          "type": "address"
        },
        {
          "name": "_debtorCoordinator",
          "type": "address"
        },
        {
          "name": "_creditorCoordinator",
          "type": "address"
        },
        {
          "name": "_debtorCost",
          "type": "uint256"
        },
        {
          "name": "_exchangeRate",
          "type": "uint256"
        },
        {
          "name": "_expireTime",
          "type": "uint256"
        },
        {
          "name": "_NetereumAddress",
          "type": "address"
        }
      ],
      "payable": false,
      "stateMutability": "nonpayable",
      "type": "constructor"
    },
    {
      "constant": false,
      "inputs": [],
      "name": "decline",
      "outputs": [],
      "payable": false,
      "stateMutability": "nonpayable",
      "type": "function"
    },
    {
      "constant": false,
      "inputs": [],
      "name": "approve",
      "outputs": [],
      "payable": false,
      "stateMutability": "nonpayable",
      "type": "function"
    },
    {
      "constant": false,
      "inputs": [
        {
          "name": "_debtorCost",
          "type": "uint256"
        }
      ],
      "name": "changeCost",
      "outputs": [],
      "payable": false,
      "stateMutability": "nonpayable",
      "type": "function"
    }
  ],
  "bytecode": "0x60806040526000600755600060085560006009556001600a60006101000a81548160ff021916908360ff1602179055506000600a60156101000a81548160ff02191690831515021790555034801561005657600080fd5b5060405161010080611014833981018060405261010081101561007857600080fd5b81019080805190602001909291908051906020019092919080519060200190929190805190602001909291908051906020019092919080519060200190929190805190602001909291908051906020019092919050505087600160006101000a81548173ffffffffffffffffffffffffffffffffffffffff021916908373ffffffffffffffffffffffffffffffffffffffff16021790555086600260006101000a81548173ffffffffffffffffffffffffffffffffffffffff021916908373ffffffffffffffffffffffffffffffffffffffff16021790555085600360006101000a81548173ffffffffffffffffffffffffffffffffffffffff021916908373ffffffffffffffffffffffffffffffffffffffff16021790555084600460006101000a81548173ffffffffffffffffffffffffffffffffffffffff021916908373ffffffffffffffffffffffffffffffffffffffff16021790555083600581905550826006819055508160008190555080600a60016101000a81548173ffffffffffffffffffffffffffffffffffffffff021916908373ffffffffffffffffffffffffffffffffffffffff1602179055505050505050505050610dd4806102406000396000f3fe608060405234801561001057600080fd5b50600436106101005760003560e01c8063ab04010711610097578063e36db78511610066578063e36db785146102dd578063e5a5159814610327578063f2978d0b1461034b578063fa2040d71461036957610100565b8063ab04010714610275578063b8db04b51461027f578063cb07312c146102a1578063cc1d8cbc146102bf57610100565b80633ba0b9a9116100d35780633ba0b9a9146101955780635922b857146101b35780635cb85cd2146101fd5780639cb64a2d1461022b57610100565b806312424e3f14610105578063310a1ee31461010f578063327134f41461012d578063378ded5d14610177575b600080fd5b61010d6103b3565b005b610117610755565b6040518082815260200191505060405180910390f35b61013561075b565b604051808273ffffffffffffffffffffffffffffffffffffffff1673ffffffffffffffffffffffffffffffffffffffff16815260200191505060405180910390f35b61017f610781565b6040518082815260200191505060405180910390f35b61019d610787565b6040518082815260200191505060405180910390f35b6101bb61078d565b604051808273ffffffffffffffffffffffffffffffffffffffff1673ffffffffffffffffffffffffffffffffffffffff16815260200191505060405180910390f35b6102296004803603602081101561021357600080fd5b81019080803590602001909291905050506107b3565b005b610233610817565b604051808273ffffffffffffffffffffffffffffffffffffffff1673ffffffffffffffffffffffffffffffffffffffff16815260200191505060405180910390f35b61027d61083d565b005b610287610d24565b604051808215151515815260200191505060405180910390f35b6102a9610d37565b6040518082815260200191505060405180910390f35b6102c7610d3d565b6040518082815260200191505060405180910390f35b6102e5610d43565b604051808273ffffffffffffffffffffffffffffffffffffffff1673ffffffffffffffffffffffffffffffffffffffff16815260200191505060405180910390f35b61032f610d69565b604051808260ff1660ff16815260200191505060405180910390f35b610353610d7c565b6040518082815260200191505060405180910390f35b610371610d82565b604051808273ffffffffffffffffffffffffffffffffffffffff1673ffffffffffffffffffffffffffffffffffffffff16815260200191505060405180910390f35b600260009054906101000a900473ffffffffffffffffffffffffffffffffffffffff1673ffffffffffffffffffffffffffffffffffffffff163373ffffffffffffffffffffffffffffffffffffffff16148061045c5750600360009054906101000a900473ffffffffffffffffffffffffffffffffffffffff1673ffffffffffffffffffffffffffffffffffffffff163373ffffffffffffffffffffffffffffffffffffffff16145b806104b45750600460009054906101000a900473ffffffffffffffffffffffffffffffffffffffff1673ffffffffffffffffffffffffffffffffffffffff163373ffffffffffffffffffffffffffffffffffffffff16145b610526576040517f08c379a00000000000000000000000000000000000000000000000000000000081526004018080602001828103825260028152602001807f313700000000000000000000000000000000000000000000000000000000000081525060200191505060405180910390fd5b600260009054906101000a900473ffffffffffffffffffffffffffffffffffffffff1673ffffffffffffffffffffffffffffffffffffffff163373ffffffffffffffffffffffffffffffffffffffff1614801561058557506000600754145b156105c557600a600081819054906101000a900460ff168092919060010191906101000a81548160ff021916908360ff1602179055505060016007819055505b600360009054906101000a900473ffffffffffffffffffffffffffffffffffffffff1673ffffffffffffffffffffffffffffffffffffffff163373ffffffffffffffffffffffffffffffffffffffff1614801561062457506000600854145b1561066457600a600081819054906101000a900460ff168092919060010191906101000a81548160ff021916908360ff1602179055505060016008819055505b600460009054906101000a900473ffffffffffffffffffffffffffffffffffffffff1673ffffffffffffffffffffffffffffffffffffffff163373ffffffffffffffffffffffffffffffffffffffff161480156106c357506000600954145b1561070357600a600081819054906101000a900460ff168092919060010191906101000a81548160ff021916908360ff1602179055505060016009819055505b600a60159054906101000a900460ff1615801561073257506004600a60009054906101000a900460ff1660ff16145b15610753576001600a60156101000a81548160ff0219169083151502179055505b565b60005481565b600460009054906101000a900473ffffffffffffffffffffffffffffffffffffffff1681565b60095481565b60065481565b600360009054906101000a900473ffffffffffffffffffffffffffffffffffffffff1681565b600a60019054906101000a900473ffffffffffffffffffffffffffffffffffffffff1673ffffffffffffffffffffffffffffffffffffffff163373ffffffffffffffffffffffffffffffffffffffff161461080d57600080fd5b8060058190555050565b600160009054906101000a900473ffffffffffffffffffffffffffffffffffffffff1681565b600260009054906101000a900473ffffffffffffffffffffffffffffffffffffffff1673ffffffffffffffffffffffffffffffffffffffff163373ffffffffffffffffffffffffffffffffffffffff1614806108e65750600360009054906101000a900473ffffffffffffffffffffffffffffffffffffffff1673ffffffffffffffffffffffffffffffffffffffff163373ffffffffffffffffffffffffffffffffffffffff16145b8061093e5750600460009054906101000a900473ffffffffffffffffffffffffffffffffffffffff1673ffffffffffffffffffffffffffffffffffffffff163373ffffffffffffffffffffffffffffffffffffffff16145b6109b0576040517f08c379a00000000000000000000000000000000000000000000000000000000081526004018080602001828103825260028152602001807f313700000000000000000000000000000000000000000000000000000000000081525060200191505060405180910390fd5b600260009054906101000a900473ffffffffffffffffffffffffffffffffffffffff1673ffffffffffffffffffffffffffffffffffffffff163373ffffffffffffffffffffffffffffffffffffffff16148015610a0f57506000600754145b15610ad6576002600781905550600a60019054906101000a900473ffffffffffffffffffffffffffffffffffffffff1673ffffffffffffffffffffffffffffffffffffffff166317dc773c306040518263ffffffff1660e01b8152600401808273ffffffffffffffffffffffffffffffffffffffff1673ffffffffffffffffffffffffffffffffffffffff168152602001915050600060405180830381600087803b158015610abd57600080fd5b505af1158015610ad1573d6000803e3d6000fd5b505050505b600360009054906101000a900473ffffffffffffffffffffffffffffffffffffffff1673ffffffffffffffffffffffffffffffffffffffff163373ffffffffffffffffffffffffffffffffffffffff16148015610b3557506000600854145b15610bfc576002600881905550600a60019054906101000a900473ffffffffffffffffffffffffffffffffffffffff1673ffffffffffffffffffffffffffffffffffffffff166317dc773c306040518263ffffffff1660e01b8152600401808273ffffffffffffffffffffffffffffffffffffffff1673ffffffffffffffffffffffffffffffffffffffff168152602001915050600060405180830381600087803b158015610be357600080fd5b505af1158015610bf7573d6000803e3d6000fd5b505050505b600460009054906101000a900473ffffffffffffffffffffffffffffffffffffffff1673ffffffffffffffffffffffffffffffffffffffff163373ffffffffffffffffffffffffffffffffffffffff16148015610c5b57506000600954145b15610d22576002600981905550600a60019054906101000a900473ffffffffffffffffffffffffffffffffffffffff1673ffffffffffffffffffffffffffffffffffffffff166317dc773c306040518263ffffffff1660e01b8152600401808273ffffffffffffffffffffffffffffffffffffffff1673ffffffffffffffffffffffffffffffffffffffff168152602001915050600060405180830381600087803b158015610d0957600080fd5b505af1158015610d1d573d6000803e3d6000fd5b505050505b565b600a60159054906101000a900460ff1681565b60085481565b60075481565b600260009054906101000a900473ffffffffffffffffffffffffffffffffffffffff1681565b600a60009054906101000a900460ff1681565b60055481565b600a60019054906101000a900473ffffffffffffffffffffffffffffffffffffffff168156fea165627a7a72305820e43b5bec60cd18df44f5f1013b554506f266fd7ca68a792270aad16b995dc7b30029",
  "source": "pragma solidity ^ 0.5.0;\n\nimport \"./Netereum.sol\";\n\ncontract Agreement\n{\n    uint256 public expireTime;\n    address public debtor;\n    address public creditor;\n    address public debtorCoordinator;\n    address public creditorCoordinator;\n    uint256 public debtorCost;\n    uint256 public exchangeRate;\n    //    bool public debtorPermission;\n    uint public creditorPermission = 0;\n    uint public debtorCoordinatorPermission = 0;\n    uint public creditorCoordinatorPermission = 0;\n    uint8 public counterPermission = 1;\n    address public NetereumAddress;\n    bool public NetereumCalled = false;\n\n    //uint256 public numOfToken;\n\n    function decline() public {\n\n        require(\n        //            msg.sender == debtor ||\n            msg.sender == creditor || msg.sender == debtorCoordinator || msg.sender == creditorCoordinator, \"17\");\n\n//        if (msg.sender == debtor && !debtorPermission)\n//        {\n//            declinedBy = 1;\n//            Netereum(NetereumAddress).declineAgreement(address(this));\n//        }\n\n        if (msg.sender == creditor && creditorPermission == 0)\n        {\n            creditorPermission = 2;\n            Netereum(NetereumAddress).declineAgreement(address(this));\n        }\n        if (msg.sender == debtorCoordinator && debtorCoordinatorPermission == 0)\n        {\n            debtorCoordinatorPermission = 2;\n            Netereum(NetereumAddress).declineAgreement(address(this));\n        }\n        if (msg.sender == creditorCoordinator && creditorCoordinatorPermission == 0)\n        {\n            creditorCoordinatorPermission = 2;\n            Netereum(NetereumAddress).declineAgreement(address(this));\n        }\n    }\n\n    function approve() public\n    {\n        require(\n        //            msg.sender == debtor ||\n            msg.sender == creditor || msg.sender == debtorCoordinator || msg.sender == creditorCoordinator, \"17\");\n\n        //        if (msg.sender == debtor && !debtorPermission)\n        //        {\n        //            counterPermission++;\n        //            debtorPermission = true;\n        //            Netereum(NetereumAddress).approveAgreement(address(this));\n        //\n        //        }\n        if (msg.sender == creditor && creditorPermission == 0)\n        {\n            counterPermission++;\n            creditorPermission = 1;\n        }\n        if (msg.sender == debtorCoordinator && debtorCoordinatorPermission == 0)\n        {\n            counterPermission ++;\n            debtorCoordinatorPermission = 1;\n        }\n        if (msg.sender == creditorCoordinator && creditorCoordinatorPermission == 0)\n        {\n            counterPermission++;\n            creditorCoordinatorPermission = 1;\n        }\n        if (!NetereumCalled && counterPermission == 4)\n        {\n            NetereumCalled = true;\n        }\n    }\n\n    constructor(\n        address _debtor, address _creditor,\n        address _debtorCoordinator, address _creditorCoordinator,\n        uint256 _debtorCost, uint256 _exchangeRate, uint256 _expireTime, address _NetereumAddress)\n    public\n    {\n        debtor = _debtor;\n        creditor = _creditor;\n        debtorCoordinator = _debtorCoordinator;\n        creditorCoordinator = _creditorCoordinator;\n        debtorCost = _debtorCost;\n        exchangeRate = _exchangeRate;\n        expireTime = _expireTime;\n        NetereumAddress = _NetereumAddress;\n        //numOfToken = _numOfToken;\n    }\n\n    function changeCost(uint256 _debtorCost) public\n    {\n        require(msg.sender == NetereumAddress);\n        debtorCost = _debtorCost;\n    }\n}",
  "sourcePath": "/home/momi/WebstormProjects/Netereum/contracts/Agreement.sol",
  "compiler": {
    "name": "solc",
    "version": "0.5.8+commit.23d335f2.Emscripten.clang"
  },
  "schemaVersion": "3.0.16",
  "updatedAt": "2019-11-04T09:45:02.159Z",
  "devdoc": {
    "methods": {}
  },
  "userdoc": {
    "methods": {}
  }
}