{
  "contractName": "AgreementFactory",
  "abi": [
    {
      "constant": false,
      "inputs": [
        {
          "name": "_debtor",
          "type": "address"
        },
        {
          "name": "_creditor",
          "type": "address"
        },
        {
          "name": "_debtorCoordinator",
          "type": "address"
        },
        {
          "name": "_creditorCoordinator",
          "type": "address"
        },
        {
          "name": "_debtAmount",
          "type": "uint256"
        },
        {
          "name": "_exchangeRate",
          "type": "uint256"
        },
        {
          "name": "_expireTime",
          "type": "uint256"
        },
        {
          "name": "_netereumAddress",
          "type": "address"
        }
      ],
      "name": "create",
      "outputs": [
        {
          "name": "",
          "type": "address"
        }
      ],
      "payable": false,
      "stateMutability": "nonpayable",
      "type": "function"
    }
  ],
  "bytecode": "0x608060405234801561001057600080fd5b50611282806100206000396000f3fe608060405234801561001057600080fd5b506004361061002b5760003560e01c8063bd3d94f614610030575b600080fd5b610111600480360361010081101561004757600080fd5b81019080803573ffffffffffffffffffffffffffffffffffffffff169060200190929190803573ffffffffffffffffffffffffffffffffffffffff169060200190929190803573ffffffffffffffffffffffffffffffffffffffff169060200190929190803573ffffffffffffffffffffffffffffffffffffffff169060200190929190803590602001909291908035906020019092919080359060200190929190803573ffffffffffffffffffffffffffffffffffffffff169060200190929190505050610153565b604051808273ffffffffffffffffffffffffffffffffffffffff1673ffffffffffffffffffffffffffffffffffffffff16815260200191505060405180910390f35b60008888888888888888604051610169906102ab565b808973ffffffffffffffffffffffffffffffffffffffff1673ffffffffffffffffffffffffffffffffffffffff1681526020018873ffffffffffffffffffffffffffffffffffffffff1673ffffffffffffffffffffffffffffffffffffffff1681526020018773ffffffffffffffffffffffffffffffffffffffff1673ffffffffffffffffffffffffffffffffffffffff1681526020018673ffffffffffffffffffffffffffffffffffffffff1673ffffffffffffffffffffffffffffffffffffffff1681526020018581526020018481526020018381526020018273ffffffffffffffffffffffffffffffffffffffff1673ffffffffffffffffffffffffffffffffffffffff16815260200198505050505050505050604051809103906000f08015801561029c573d6000803e3d6000fd5b50905098975050505050505050565b610f9e806102b98339019056fe60806040526000600755600060085560006009556001600a60006101000a81548160ff021916908360ff1602179055506000600a60156101000a81548160ff02191690831515021790555034801561005657600080fd5b5060405161010080610f9e833981018060405261010081101561007857600080fd5b81019080805190602001909291908051906020019092919080519060200190929190805190602001909291908051906020019092919080519060200190929190805190602001909291908051906020019092919050505087600160006101000a81548173ffffffffffffffffffffffffffffffffffffffff021916908373ffffffffffffffffffffffffffffffffffffffff16021790555086600260006101000a81548173ffffffffffffffffffffffffffffffffffffffff021916908373ffffffffffffffffffffffffffffffffffffffff16021790555085600360006101000a81548173ffffffffffffffffffffffffffffffffffffffff021916908373ffffffffffffffffffffffffffffffffffffffff16021790555084600460006101000a81548173ffffffffffffffffffffffffffffffffffffffff021916908373ffffffffffffffffffffffffffffffffffffffff16021790555083600581905550826006819055508160008190555080600a60016101000a81548173ffffffffffffffffffffffffffffffffffffffff021916908373ffffffffffffffffffffffffffffffffffffffff1602179055505050505050505050610d5e806102406000396000f3fe608060405234801561001057600080fd5b50600436106100ff5760003560e01c80638882baf311610097578063cc1d8cbc11610066578063cc1d8cbc14610304578063e36db78514610322578063e5a515981461036c578063e6e9881814610390576100ff565b80638882baf3146102485780639cb64a2d14610292578063ab040107146102dc578063cb07312c146102e6576100ff565b8063378ded5d116100d3578063378ded5d146101945780633ba0b9a9146101b25780635922b857146101d05780635cb85cd21461021a576100ff565b806274f3561461010457806312424e3f14610122578063310a1ee31461012c578063327134f41461014a575b600080fd5b61010c6103b2565b6040518082815260200191505060405180910390f35b61012a6103b8565b005b61013461081d565b6040518082815260200191505060405180910390f35b610152610823565b604051808273ffffffffffffffffffffffffffffffffffffffff1673ffffffffffffffffffffffffffffffffffffffff16815260200191505060405180910390f35b61019c610849565b6040518082815260200191505060405180910390f35b6101ba61084f565b6040518082815260200191505060405180910390f35b6101d8610855565b604051808273ffffffffffffffffffffffffffffffffffffffff1673ffffffffffffffffffffffffffffffffffffffff16815260200191505060405180910390f35b6102466004803603602081101561023057600080fd5b810190808035906020019092919050505061087b565b005b6102506108df565b604051808273ffffffffffffffffffffffffffffffffffffffff1673ffffffffffffffffffffffffffffffffffffffff16815260200191505060405180910390f35b61029a610905565b604051808273ffffffffffffffffffffffffffffffffffffffff1673ffffffffffffffffffffffffffffffffffffffff16815260200191505060405180910390f35b6102e461092b565b005b6102ee610cda565b6040518082815260200191505060405180910390f35b61030c610ce0565b6040518082815260200191505060405180910390f35b61032a610ce6565b604051808273ffffffffffffffffffffffffffffffffffffffff1673ffffffffffffffffffffffffffffffffffffffff16815260200191505060405180910390f35b610374610d0c565b604051808260ff1660ff16815260200191505060405180910390f35b610398610d1f565b604051808215151515815260200191505060405180910390f35b60055481565b600260009054906101000a900473ffffffffffffffffffffffffffffffffffffffff1673ffffffffffffffffffffffffffffffffffffffff163373ffffffffffffffffffffffffffffffffffffffff1614806104615750600360009054906101000a900473ffffffffffffffffffffffffffffffffffffffff1673ffffffffffffffffffffffffffffffffffffffff163373ffffffffffffffffffffffffffffffffffffffff16145b806104b95750600460009054906101000a900473ffffffffffffffffffffffffffffffffffffffff1673ffffffffffffffffffffffffffffffffffffffff163373ffffffffffffffffffffffffffffffffffffffff16145b61052b576040517f08c379a00000000000000000000000000000000000000000000000000000000081526004018080602001828103825260028152602001807f313700000000000000000000000000000000000000000000000000000000000081525060200191505060405180910390fd5b600260009054906101000a900473ffffffffffffffffffffffffffffffffffffffff1673ffffffffffffffffffffffffffffffffffffffff163373ffffffffffffffffffffffffffffffffffffffff1614801561058a57506000600754145b156105ce57600a600081819054906101000a900460ff168092919060010191906101000a81548160ff021916908360ff160217905550506001600781905550610712565b600360009054906101000a900473ffffffffffffffffffffffffffffffffffffffff1673ffffffffffffffffffffffffffffffffffffffff163373ffffffffffffffffffffffffffffffffffffffff1614801561062d57506000600854145b1561067157600a600081819054906101000a900460ff168092919060010191906101000a81548160ff021916908360ff160217905550506001600881905550610711565b600460009054906101000a900473ffffffffffffffffffffffffffffffffffffffff1673ffffffffffffffffffffffffffffffffffffffff163373ffffffffffffffffffffffffffffffffffffffff161480156106d057506000600954145b1561071057600a600081819054906101000a900460ff168092919060010191906101000a81548160ff021916908360ff1602179055505060016009819055505b5b5b600a60159054906101000a900460ff1615801561074157506004600a60009054906101000a900460ff1660ff16145b1561081b576001600a60156101000a81548160ff021916908315150217905550600a60019054906101000a900473ffffffffffffffffffffffffffffffffffffffff1673ffffffffffffffffffffffffffffffffffffffff166309fa423e306040518263ffffffff1660e01b8152600401808273ffffffffffffffffffffffffffffffffffffffff1673ffffffffffffffffffffffffffffffffffffffff168152602001915050600060405180830381600087803b15801561080257600080fd5b505af1158015610816573d6000803e3d6000fd5b505050505b565b60005481565b600460009054906101000a900473ffffffffffffffffffffffffffffffffffffffff1681565b60095481565b60065481565b600360009054906101000a900473ffffffffffffffffffffffffffffffffffffffff1681565b600a60019054906101000a900473ffffffffffffffffffffffffffffffffffffffff1673ffffffffffffffffffffffffffffffffffffffff163373ffffffffffffffffffffffffffffffffffffffff16146108d557600080fd5b8060058190555050565b600a60019054906101000a900473ffffffffffffffffffffffffffffffffffffffff1681565b600160009054906101000a900473ffffffffffffffffffffffffffffffffffffffff1681565b600260009054906101000a900473ffffffffffffffffffffffffffffffffffffffff1673ffffffffffffffffffffffffffffffffffffffff163373ffffffffffffffffffffffffffffffffffffffff1614806109d45750600360009054906101000a900473ffffffffffffffffffffffffffffffffffffffff1673ffffffffffffffffffffffffffffffffffffffff163373ffffffffffffffffffffffffffffffffffffffff16145b80610a2c5750600460009054906101000a900473ffffffffffffffffffffffffffffffffffffffff1673ffffffffffffffffffffffffffffffffffffffff163373ffffffffffffffffffffffffffffffffffffffff16145b610a9e576040517f08c379a00000000000000000000000000000000000000000000000000000000081526004018080602001828103825260028152602001807f313700000000000000000000000000000000000000000000000000000000000081525060200191505060405180910390fd5b600260009054906101000a900473ffffffffffffffffffffffffffffffffffffffff1673ffffffffffffffffffffffffffffffffffffffff163373ffffffffffffffffffffffffffffffffffffffff16148015610afd57506000600754145b15610b0f576002600781905550610bef565b600360009054906101000a900473ffffffffffffffffffffffffffffffffffffffff1673ffffffffffffffffffffffffffffffffffffffff163373ffffffffffffffffffffffffffffffffffffffff16148015610b6e57506000600854145b15610b80576002600881905550610bee565b600460009054906101000a900473ffffffffffffffffffffffffffffffffffffffff1673ffffffffffffffffffffffffffffffffffffffff163373ffffffffffffffffffffffffffffffffffffffff16148015610bdf57506000600954145b15610bed5760026009819055505b5b5b600a60159054906101000a900460ff16610cd8576001600a60156101000a81548160ff021916908315150217905550600a60019054906101000a900473ffffffffffffffffffffffffffffffffffffffff1673ffffffffffffffffffffffffffffffffffffffff166317dc773c306040518263ffffffff1660e01b8152600401808273ffffffffffffffffffffffffffffffffffffffff1673ffffffffffffffffffffffffffffffffffffffff168152602001915050600060405180830381600087803b158015610cbf57600080fd5b505af1158015610cd3573d6000803e3d6000fd5b505050505b565b60085481565b60075481565b600260009054906101000a900473ffffffffffffffffffffffffffffffffffffffff1681565b600a60009054906101000a900460ff1681565b600a60159054906101000a900460ff168156fea165627a7a723058208764a26f27068f58204bfd1287397e916c04ce5f1ca1122ef266b6424f86cede0029a165627a7a7230582024ef23a16cc048e788951b5027b31e7da1b1d1455a11341857fe31eeeb6b6d490029",
  "source": "pragma solidity ^0.5.0;\nimport \"./Agreement.sol\";\ncontract AgreementFactory {\n    function create(address  _debtor,address _creditor,\n        address  _debtorCoordinator,address  _creditorCoordinator,\n        uint256 _debtAmount,uint256 _exchangeRate, uint256 _expireTime,address _netereumAddress) public returns(Agreement)\n    {\n        return new Agreement(\n            _debtor, _creditor, _debtorCoordinator, _creditorCoordinator,\n            _debtAmount,_exchangeRate,_expireTime,_netereumAddress\n        );\n    }\n}\n",
  "sourcePath": "/home/momi/WebstormProjects/Netereum/contracts/AgreementFactory.sol",
  "compiler": {
    "name": "solc",
    "version": "0.5.8+commit.23d335f2.Emscripten.clang"
  },
  "schemaVersion": "3.0.16",
  "updatedAt": "2019-11-09T14:57:44.847Z",
  "devdoc": {
    "methods": {}
  },
  "userdoc": {
    "methods": {}
  }
}