{
  "contractName": "Agreement",
  "abi": [
    {
      "constant": true,
      "inputs": [],
      "name": "expireTime",
      "outputs": [
        {
          "name": "",
          "type": "uint256"
        }
      ],
      "payable": false,
      "stateMutability": "view",
      "type": "function"
    },
    {
      "constant": true,
      "inputs": [],
      "name": "creditorCoordinator",
      "outputs": [
        {
          "name": "",
          "type": "address"
        }
      ],
      "payable": false,
      "stateMutability": "view",
      "type": "function"
    },
    {
      "constant": true,
      "inputs": [],
      "name": "creditorCoordinatorPermission",
      "outputs": [
        {
          "name": "",
          "type": "uint256"
        }
      ],
      "payable": false,
      "stateMutability": "view",
      "type": "function"
    },
    {
      "constant": true,
      "inputs": [],
      "name": "exchangeRate",
      "outputs": [
        {
          "name": "",
          "type": "uint256"
        }
      ],
      "payable": false,
      "stateMutability": "view",
      "type": "function"
    },
    {
      "constant": true,
      "inputs": [],
      "name": "debtorCoordinator",
      "outputs": [
        {
          "name": "",
          "type": "address"
        }
      ],
      "payable": false,
      "stateMutability": "view",
      "type": "function"
    },
    {
      "constant": true,
      "inputs": [],
      "name": "barterCubeCalled",
      "outputs": [
        {
          "name": "",
          "type": "bool"
        }
      ],
      "payable": false,
      "stateMutability": "view",
      "type": "function"
    },
    {
      "constant": true,
      "inputs": [],
      "name": "declinedBy",
      "outputs": [
        {
          "name": "",
          "type": "uint8"
        }
      ],
      "payable": false,
      "stateMutability": "view",
      "type": "function"
    },
    {
      "constant": true,
      "inputs": [],
      "name": "barterCubeAddress",
      "outputs": [
        {
          "name": "",
          "type": "address"
        }
      ],
      "payable": false,
      "stateMutability": "view",
      "type": "function"
    },
    {
      "constant": true,
      "inputs": [],
      "name": "debtor",
      "outputs": [
        {
          "name": "",
          "type": "address"
        }
      ],
      "payable": false,
      "stateMutability": "view",
      "type": "function"
    },
    {
      "constant": true,
      "inputs": [],
      "name": "debtorCoordinatorPermission",
      "outputs": [
        {
          "name": "",
          "type": "uint256"
        }
      ],
      "payable": false,
      "stateMutability": "view",
      "type": "function"
    },
    {
      "constant": true,
      "inputs": [],
      "name": "creditorPermission",
      "outputs": [
        {
          "name": "",
          "type": "uint256"
        }
      ],
      "payable": false,
      "stateMutability": "view",
      "type": "function"
    },
    {
      "constant": true,
      "inputs": [],
      "name": "creditor",
      "outputs": [
        {
          "name": "",
          "type": "address"
        }
      ],
      "payable": false,
      "stateMutability": "view",
      "type": "function"
    },
    {
      "constant": true,
      "inputs": [],
      "name": "counterPermission",
      "outputs": [
        {
          "name": "",
          "type": "uint8"
        }
      ],
      "payable": false,
      "stateMutability": "view",
      "type": "function"
    },
    {
      "constant": true,
      "inputs": [],
      "name": "debtorCost",
      "outputs": [
        {
          "name": "",
          "type": "uint256"
        }
      ],
      "payable": false,
      "stateMutability": "view",
      "type": "function"
    },
    {
      "inputs": [
        {
          "name": "_debtor",
          "type": "address"
        },
        {
          "name": "_creditor",
          "type": "address"
        },
        {
          "name": "_debtorCoordinator",
          "type": "address"
        },
        {
          "name": "_creditorCoordinator",
          "type": "address"
        },
        {
          "name": "_debtorCost",
          "type": "uint256"
        },
        {
          "name": "_exchangeRate",
          "type": "uint256"
        },
        {
          "name": "_expireTime",
          "type": "uint256"
        },
        {
          "name": "_barterCubeAddress",
          "type": "address"
        }
      ],
      "payable": false,
      "stateMutability": "nonpayable",
      "type": "constructor"
    },
    {
      "constant": false,
      "inputs": [],
      "name": "approve",
      "outputs": [],
      "payable": false,
      "stateMutability": "nonpayable",
      "type": "function"
    },
    {
      "constant": false,
      "inputs": [
        {
          "name": "_debtorCost",
          "type": "uint256"
        }
      ],
      "name": "changeCost",
      "outputs": [],
      "payable": false,
      "stateMutability": "nonpayable",
      "type": "function"
    }
  ],
  "bytecode": "0x60806040526000600755600060085560006009556001600a60006101000a81548160ff021916908360ff1602179055506000600a60156101000a81548160ff0219169083151502179055506000600a60166101000a81548160ff021916908360ff16021790555034801561007257600080fd5b5060405161010080610cb7833981018060405261010081101561009457600080fd5b81019080805190602001909291908051906020019092919080519060200190929190805190602001909291908051906020019092919080519060200190929190805190602001909291908051906020019092919050505087600160006101000a81548173ffffffffffffffffffffffffffffffffffffffff021916908373ffffffffffffffffffffffffffffffffffffffff16021790555086600260006101000a81548173ffffffffffffffffffffffffffffffffffffffff021916908373ffffffffffffffffffffffffffffffffffffffff16021790555085600360006101000a81548173ffffffffffffffffffffffffffffffffffffffff021916908373ffffffffffffffffffffffffffffffffffffffff16021790555084600460006101000a81548173ffffffffffffffffffffffffffffffffffffffff021916908373ffffffffffffffffffffffffffffffffffffffff16021790555083600581905550826006819055508160008190555080600a60016101000a81548173ffffffffffffffffffffffffffffffffffffffff021916908373ffffffffffffffffffffffffffffffffffffffff1602179055505050505050505050610a5b8061025c6000396000f3fe608060405234801561001057600080fd5b50600436106101005760003560e01c80638d85388c11610097578063cc1d8cbc11610066578063cc1d8cbc14610323578063e36db78514610341578063e5a515981461038b578063f2978d0b146103af57610100565b80638d85388c1461024d5780638f9c6fbf146102715780639cb64a2d146102bb578063cb07312c1461030557610100565b80633ba0b9a9116100d35780633ba0b9a9146101955780635922b857146101b35780635cb85cd2146101fd5780638646abba1461022b57610100565b806312424e3f14610105578063310a1ee31461010f578063327134f41461012d578063378ded5d14610177575b600080fd5b61010d6103cd565b005b6101176108b0565b6040518082815260200191505060405180910390f35b6101356108b6565b604051808273ffffffffffffffffffffffffffffffffffffffff1673ffffffffffffffffffffffffffffffffffffffff16815260200191505060405180910390f35b61017f6108dc565b6040518082815260200191505060405180910390f35b61019d6108e2565b6040518082815260200191505060405180910390f35b6101bb6108e8565b604051808273ffffffffffffffffffffffffffffffffffffffff1673ffffffffffffffffffffffffffffffffffffffff16815260200191505060405180910390f35b6102296004803603602081101561021357600080fd5b810190808035906020019092919050505061090e565b005b610233610972565b604051808215151515815260200191505060405180910390f35b610255610985565b604051808260ff1660ff16815260200191505060405180910390f35b610279610998565b604051808273ffffffffffffffffffffffffffffffffffffffff1673ffffffffffffffffffffffffffffffffffffffff16815260200191505060405180910390f35b6102c36109be565b604051808273ffffffffffffffffffffffffffffffffffffffff1673ffffffffffffffffffffffffffffffffffffffff16815260200191505060405180910390f35b61030d6109e4565b6040518082815260200191505060405180910390f35b61032b6109ea565b6040518082815260200191505060405180910390f35b6103496109f0565b604051808273ffffffffffffffffffffffffffffffffffffffff1673ffffffffffffffffffffffffffffffffffffffff16815260200191505060405180910390f35b610393610a16565b604051808260ff1660ff16815260200191505060405180910390f35b6103b7610a29565b6040518082815260200191505060405180910390f35b6000600a60169054906101000a900460ff1660ff1614610455576040517f08c379a00000000000000000000000000000000000000000000000000000000081526004018080602001828103825260028152602001807f313600000000000000000000000000000000000000000000000000000000000081525060200191505060405180910390fd5b600260009054906101000a900473ffffffffffffffffffffffffffffffffffffffff1673ffffffffffffffffffffffffffffffffffffffff163373ffffffffffffffffffffffffffffffffffffffff1614806104fe5750600360009054906101000a900473ffffffffffffffffffffffffffffffffffffffff1673ffffffffffffffffffffffffffffffffffffffff163373ffffffffffffffffffffffffffffffffffffffff16145b806105565750600460009054906101000a900473ffffffffffffffffffffffffffffffffffffffff1673ffffffffffffffffffffffffffffffffffffffff163373ffffffffffffffffffffffffffffffffffffffff16145b6105c8576040517f08c379a00000000000000000000000000000000000000000000000000000000081526004018080602001828103825260028152602001807f313700000000000000000000000000000000000000000000000000000000000081525060200191505060405180910390fd5b600260009054906101000a900473ffffffffffffffffffffffffffffffffffffffff1673ffffffffffffffffffffffffffffffffffffffff163373ffffffffffffffffffffffffffffffffffffffff1614801561062757506000600754145b1561066757600a600081819054906101000a900460ff168092919060010191906101000a81548160ff021916908360ff1602179055505060016007819055505b600360009054906101000a900473ffffffffffffffffffffffffffffffffffffffff1673ffffffffffffffffffffffffffffffffffffffff163373ffffffffffffffffffffffffffffffffffffffff161480156106c657506000600854145b1561070657600a600081819054906101000a900460ff168092919060010191906101000a81548160ff021916908360ff1602179055505060016008819055505b600460009054906101000a900473ffffffffffffffffffffffffffffffffffffffff1673ffffffffffffffffffffffffffffffffffffffff163373ffffffffffffffffffffffffffffffffffffffff1614801561076557506000600954145b156107a557600a600081819054906101000a900460ff168092919060010191906101000a81548160ff021916908360ff1602179055505060016009819055505b600a60159054906101000a900460ff161580156107d457506004600a60009054906101000a900460ff1660ff16145b156108ae576001600a60156101000a81548160ff021916908315150217905550600a60019054906101000a900473ffffffffffffffffffffffffffffffffffffffff1673ffffffffffffffffffffffffffffffffffffffff166309fa423e306040518263ffffffff1660e01b8152600401808273ffffffffffffffffffffffffffffffffffffffff1673ffffffffffffffffffffffffffffffffffffffff168152602001915050600060405180830381600087803b15801561089557600080fd5b505af11580156108a9573d6000803e3d6000fd5b505050505b565b60005481565b600460009054906101000a900473ffffffffffffffffffffffffffffffffffffffff1681565b60095481565b60065481565b600360009054906101000a900473ffffffffffffffffffffffffffffffffffffffff1681565b600a60019054906101000a900473ffffffffffffffffffffffffffffffffffffffff1673ffffffffffffffffffffffffffffffffffffffff163373ffffffffffffffffffffffffffffffffffffffff161461096857600080fd5b8060058190555050565b600a60159054906101000a900460ff1681565b600a60169054906101000a900460ff1681565b600a60019054906101000a900473ffffffffffffffffffffffffffffffffffffffff1681565b600160009054906101000a900473ffffffffffffffffffffffffffffffffffffffff1681565b60085481565b60075481565b600260009054906101000a900473ffffffffffffffffffffffffffffffffffffffff1681565b600a60009054906101000a900460ff1681565b6005548156fea165627a7a72305820b19a8b8795cb06ed1430fa3da4031d6c149f6bcaffd7b69f93a7d330daca37f50029",
  "source": "pragma solidity ^ 0.5.0;\nimport \"./Netereum.sol\";\ncontract Agreement\n{\n    uint256 public expireTime;\n    address public debtor;\n    address public creditor;\n    address public debtorCoordinator;\n    address public creditorCoordinator;\n    uint256 public debtorCost;\n    uint256 public exchangeRate;\n    uint public creditorPermission = 0;\n    uint public debtorCoordinatorPermission = 0;\n    uint public creditorCoordinatorPermission = 0;\n    uint8 public counterPermission = 1;\n    address public barterCubeAddress;\n    bool public barterCubeCalled = false;\n    uint8 public declinedBy = 0;\n\n//    function decline() public {\n//\n//        require(declinedBy == 0, \"20\");\n//        require(msg.sender == creditor || msg.sender == debtorCoordinator || msg.sender == creditorCoordinator, \"17\");\n//\n//        if (msg.sender == creditor && !creditorPermission)\n//        {\n//            declinedBy = 2;\n//            //BarterCube(barterCubeAddress).declineAgreement(address(this));\n//        }\n//        else if (msg.sender == debtorCoordinator && !debtorC\n//        if (msg.sender == debtorCoordinator && debtorCoordinatorPermission == 0)\n//        {\n//            counterPermission ++;\n//            debtorCoordinatorPermission = 1;\n//            //BarterCube(barterCubeAddress).approveAgreement(address(this));\n//        }\n//        if (msg.sender == creditorCoordinator && creditorCoordinatorPermission == 0)\n//        {\n//            counterPermission++;\n//            creditorCoordinatorPermission = 1;\n//            //BarterCube(barterCubeAddress).approveAgreement(address(this));\n//        }\n//        if (!barterCubeCalled && counterPermission == 4)\n//        {oordinatorPermission)\n//        {\n//            declinedBy = 3;\n//            //BarterCube(barterCubeAddress).declineAgreement(address(this));\n//        }\n//        else if (msg.sender == creditorCoordinator && !creditorCoordinatorPermission)\n//        {\n//            declinedBy = 4;\n//            //BarterCube(barterCubeAddress).declineAgreement(address(this));\n//        }\n//    }\n    //uint256 public numOfToken;\n    function approve() public\n    {\n        require(declinedBy == 0, \"16\");\n        require(\n            msg.sender == creditor || msg.sender == debtorCoordinator || msg.sender == creditorCoordinator, \"17\");\n        if (msg.sender == creditor && creditorPermission == 0)\n        {\n            counterPermission++;\n            creditorPermission = 1;\n            //BarterCube(barterCubeAddress).approveAgreement(address(this));\n        }\n        if (msg.sender == debtorCoordinator && debtorCoordinatorPermission == 0)\n        {\n            counterPermission ++;\n            debtorCoordinatorPermission = 1;\n            //BarterCube(barterCubeAddress).approveAgreement(address(this));\n        }\n        if (msg.sender == creditorCoordinator && creditorCoordinatorPermission == 0)\n        {\n            counterPermission++;\n            creditorCoordinatorPermission = 1;\n            //BarterCube(barterCubeAddress).approveAgreement(address(this));\n        }\n        if (!barterCubeCalled && counterPermission == 4)\n        {\n            barterCubeCalled = true;\n            Netereum(barterCubeAddress).addAgreement(address(this));\n        }\n    }\n\n    constructor(\n        address  _debtor,address _creditor,\n        address  _debtorCoordinator,address  _creditorCoordinator,\n        uint256 _debtorCost,uint256 _exchangeRate,uint256 _expireTime,address _barterCubeAddress)\n    public\n    {\n        debtor = _debtor;\n        creditor = _creditor;\n        debtorCoordinator = _debtorCoordinator;\n        creditorCoordinator = _creditorCoordinator;\n        debtorCost = _debtorCost;\n        exchangeRate = _exchangeRate;\n        expireTime = _expireTime;\n        barterCubeAddress = _barterCubeAddress;\n        //numOfToken = _numOfToken;\n    }\n\n    function changeCost(uint256 _debtorCost) public\n    {\n        require(msg.sender == barterCubeAddress);\n        debtorCost = _debtorCost;\n    }\n}\n",
  "sourcePath": "/home/momi/WebstormProjects/Netereum/contracts/Agreement.sol",
  "compiler": {
    "name": "solc",
    "version": "0.5.8+commit.23d335f2.Emscripten.clang"
  },
  "schemaVersion": "3.0.16",
  "updatedAt": "2019-11-09T14:07:55.990Z",
  "devdoc": {
    "methods": {}
  },
  "userdoc": {
    "methods": {}
  }
}