{
  "contractName": "Agreement",
  "abi": [
    {
      "constant": true,
      "inputs": [],
      "name": "debtAmount",
      "outputs": [
        {
          "name": "",
          "type": "uint256"
        }
      ],
      "payable": false,
      "stateMutability": "view",
      "type": "function"
    },
    {
      "constant": true,
      "inputs": [],
      "name": "expireTime",
      "outputs": [
        {
          "name": "",
          "type": "uint256"
        }
      ],
      "payable": false,
      "stateMutability": "view",
      "type": "function"
    },
    {
      "constant": true,
      "inputs": [],
      "name": "creditorCoordinator",
      "outputs": [
        {
          "name": "",
          "type": "address"
        }
      ],
      "payable": false,
      "stateMutability": "view",
      "type": "function"
    },
    {
      "constant": true,
      "inputs": [],
      "name": "creditorCoordinatorPermission",
      "outputs": [
        {
          "name": "",
          "type": "uint256"
        }
      ],
      "payable": false,
      "stateMutability": "view",
      "type": "function"
    },
    {
      "constant": true,
      "inputs": [],
      "name": "exchangeRate",
      "outputs": [
        {
          "name": "",
          "type": "uint256"
        }
      ],
      "payable": false,
      "stateMutability": "view",
      "type": "function"
    },
    {
      "constant": true,
      "inputs": [],
      "name": "debtorCoordinator",
      "outputs": [
        {
          "name": "",
          "type": "address"
        }
      ],
      "payable": false,
      "stateMutability": "view",
      "type": "function"
    },
    {
      "constant": true,
      "inputs": [],
      "name": "netereumAddress",
      "outputs": [
        {
          "name": "",
          "type": "address"
        }
      ],
      "payable": false,
      "stateMutability": "view",
      "type": "function"
    },
    {
      "constant": true,
      "inputs": [],
      "name": "debtor",
      "outputs": [
        {
          "name": "",
          "type": "address"
        }
      ],
      "payable": false,
      "stateMutability": "view",
      "type": "function"
    },
    {
      "constant": true,
      "inputs": [],
      "name": "debtorCoordinatorPermission",
      "outputs": [
        {
          "name": "",
          "type": "uint256"
        }
      ],
      "payable": false,
      "stateMutability": "view",
      "type": "function"
    },
    {
      "constant": true,
      "inputs": [],
      "name": "creditorPermission",
      "outputs": [
        {
          "name": "",
          "type": "uint256"
        }
      ],
      "payable": false,
      "stateMutability": "view",
      "type": "function"
    },
    {
      "constant": true,
      "inputs": [],
      "name": "creditor",
      "outputs": [
        {
          "name": "",
          "type": "address"
        }
      ],
      "payable": false,
      "stateMutability": "view",
      "type": "function"
    },
    {
      "constant": true,
      "inputs": [],
      "name": "counterPermission",
      "outputs": [
        {
          "name": "",
          "type": "uint8"
        }
      ],
      "payable": false,
      "stateMutability": "view",
      "type": "function"
    },
    {
      "constant": true,
      "inputs": [],
      "name": "netereumCalled",
      "outputs": [
        {
          "name": "",
          "type": "bool"
        }
      ],
      "payable": false,
      "stateMutability": "view",
      "type": "function"
    },
    {
      "inputs": [
        {
          "name": "_debtor",
          "type": "address"
        },
        {
          "name": "_creditor",
          "type": "address"
        },
        {
          "name": "_debtorCoordinator",
          "type": "address"
        },
        {
          "name": "_creditorCoordinator",
          "type": "address"
        },
        {
          "name": "_debtAmount",
          "type": "uint256"
        },
        {
          "name": "_exchangeRate",
          "type": "uint256"
        },
        {
          "name": "_expireTime",
          "type": "uint256"
        },
        {
          "name": "_netereumAddress",
          "type": "address"
        }
      ],
      "payable": false,
      "stateMutability": "nonpayable",
      "type": "constructor"
    },
    {
      "constant": false,
      "inputs": [],
      "name": "decline",
      "outputs": [],
      "payable": false,
      "stateMutability": "nonpayable",
      "type": "function"
    },
    {
      "constant": false,
      "inputs": [],
      "name": "approve",
      "outputs": [],
      "payable": false,
      "stateMutability": "nonpayable",
      "type": "function"
    },
    {
      "constant": false,
      "inputs": [
        {
          "name": "_debtAmount",
          "type": "uint256"
        }
      ],
      "name": "changeCost",
      "outputs": [],
      "payable": false,
      "stateMutability": "nonpayable",
      "type": "function"
    }
  ],
  "bytecode": "0x60806040526000600755600060085560006009556001600a60006101000a81548160ff021916908360ff1602179055506000600a60156101000a81548160ff02191690831515021790555034801561005657600080fd5b5060405161010080610f9e833981018060405261010081101561007857600080fd5b81019080805190602001909291908051906020019092919080519060200190929190805190602001909291908051906020019092919080519060200190929190805190602001909291908051906020019092919050505087600160006101000a81548173ffffffffffffffffffffffffffffffffffffffff021916908373ffffffffffffffffffffffffffffffffffffffff16021790555086600260006101000a81548173ffffffffffffffffffffffffffffffffffffffff021916908373ffffffffffffffffffffffffffffffffffffffff16021790555085600360006101000a81548173ffffffffffffffffffffffffffffffffffffffff021916908373ffffffffffffffffffffffffffffffffffffffff16021790555084600460006101000a81548173ffffffffffffffffffffffffffffffffffffffff021916908373ffffffffffffffffffffffffffffffffffffffff16021790555083600581905550826006819055508160008190555080600a60016101000a81548173ffffffffffffffffffffffffffffffffffffffff021916908373ffffffffffffffffffffffffffffffffffffffff1602179055505050505050505050610d5e806102406000396000f3fe608060405234801561001057600080fd5b50600436106100ff5760003560e01c80638882baf311610097578063cc1d8cbc11610066578063cc1d8cbc14610304578063e36db78514610322578063e5a515981461036c578063e6e9881814610390576100ff565b80638882baf3146102485780639cb64a2d14610292578063ab040107146102dc578063cb07312c146102e6576100ff565b8063378ded5d116100d3578063378ded5d146101945780633ba0b9a9146101b25780635922b857146101d05780635cb85cd21461021a576100ff565b806274f3561461010457806312424e3f14610122578063310a1ee31461012c578063327134f41461014a575b600080fd5b61010c6103b2565b6040518082815260200191505060405180910390f35b61012a6103b8565b005b61013461081d565b6040518082815260200191505060405180910390f35b610152610823565b604051808273ffffffffffffffffffffffffffffffffffffffff1673ffffffffffffffffffffffffffffffffffffffff16815260200191505060405180910390f35b61019c610849565b6040518082815260200191505060405180910390f35b6101ba61084f565b6040518082815260200191505060405180910390f35b6101d8610855565b604051808273ffffffffffffffffffffffffffffffffffffffff1673ffffffffffffffffffffffffffffffffffffffff16815260200191505060405180910390f35b6102466004803603602081101561023057600080fd5b810190808035906020019092919050505061087b565b005b6102506108df565b604051808273ffffffffffffffffffffffffffffffffffffffff1673ffffffffffffffffffffffffffffffffffffffff16815260200191505060405180910390f35b61029a610905565b604051808273ffffffffffffffffffffffffffffffffffffffff1673ffffffffffffffffffffffffffffffffffffffff16815260200191505060405180910390f35b6102e461092b565b005b6102ee610cda565b6040518082815260200191505060405180910390f35b61030c610ce0565b6040518082815260200191505060405180910390f35b61032a610ce6565b604051808273ffffffffffffffffffffffffffffffffffffffff1673ffffffffffffffffffffffffffffffffffffffff16815260200191505060405180910390f35b610374610d0c565b604051808260ff1660ff16815260200191505060405180910390f35b610398610d1f565b604051808215151515815260200191505060405180910390f35b60055481565b600260009054906101000a900473ffffffffffffffffffffffffffffffffffffffff1673ffffffffffffffffffffffffffffffffffffffff163373ffffffffffffffffffffffffffffffffffffffff1614806104615750600360009054906101000a900473ffffffffffffffffffffffffffffffffffffffff1673ffffffffffffffffffffffffffffffffffffffff163373ffffffffffffffffffffffffffffffffffffffff16145b806104b95750600460009054906101000a900473ffffffffffffffffffffffffffffffffffffffff1673ffffffffffffffffffffffffffffffffffffffff163373ffffffffffffffffffffffffffffffffffffffff16145b61052b576040517f08c379a00000000000000000000000000000000000000000000000000000000081526004018080602001828103825260028152602001807f313700000000000000000000000000000000000000000000000000000000000081525060200191505060405180910390fd5b600260009054906101000a900473ffffffffffffffffffffffffffffffffffffffff1673ffffffffffffffffffffffffffffffffffffffff163373ffffffffffffffffffffffffffffffffffffffff1614801561058a57506000600754145b156105ce57600a600081819054906101000a900460ff168092919060010191906101000a81548160ff021916908360ff160217905550506001600781905550610712565b600360009054906101000a900473ffffffffffffffffffffffffffffffffffffffff1673ffffffffffffffffffffffffffffffffffffffff163373ffffffffffffffffffffffffffffffffffffffff1614801561062d57506000600854145b1561067157600a600081819054906101000a900460ff168092919060010191906101000a81548160ff021916908360ff160217905550506001600881905550610711565b600460009054906101000a900473ffffffffffffffffffffffffffffffffffffffff1673ffffffffffffffffffffffffffffffffffffffff163373ffffffffffffffffffffffffffffffffffffffff161480156106d057506000600954145b1561071057600a600081819054906101000a900460ff168092919060010191906101000a81548160ff021916908360ff1602179055505060016009819055505b5b5b600a60159054906101000a900460ff1615801561074157506004600a60009054906101000a900460ff1660ff16145b1561081b576001600a60156101000a81548160ff021916908315150217905550600a60019054906101000a900473ffffffffffffffffffffffffffffffffffffffff1673ffffffffffffffffffffffffffffffffffffffff166309fa423e306040518263ffffffff1660e01b8152600401808273ffffffffffffffffffffffffffffffffffffffff1673ffffffffffffffffffffffffffffffffffffffff168152602001915050600060405180830381600087803b15801561080257600080fd5b505af1158015610816573d6000803e3d6000fd5b505050505b565b60005481565b600460009054906101000a900473ffffffffffffffffffffffffffffffffffffffff1681565b60095481565b60065481565b600360009054906101000a900473ffffffffffffffffffffffffffffffffffffffff1681565b600a60019054906101000a900473ffffffffffffffffffffffffffffffffffffffff1673ffffffffffffffffffffffffffffffffffffffff163373ffffffffffffffffffffffffffffffffffffffff16146108d557600080fd5b8060058190555050565b600a60019054906101000a900473ffffffffffffffffffffffffffffffffffffffff1681565b600160009054906101000a900473ffffffffffffffffffffffffffffffffffffffff1681565b600260009054906101000a900473ffffffffffffffffffffffffffffffffffffffff1673ffffffffffffffffffffffffffffffffffffffff163373ffffffffffffffffffffffffffffffffffffffff1614806109d45750600360009054906101000a900473ffffffffffffffffffffffffffffffffffffffff1673ffffffffffffffffffffffffffffffffffffffff163373ffffffffffffffffffffffffffffffffffffffff16145b80610a2c5750600460009054906101000a900473ffffffffffffffffffffffffffffffffffffffff1673ffffffffffffffffffffffffffffffffffffffff163373ffffffffffffffffffffffffffffffffffffffff16145b610a9e576040517f08c379a00000000000000000000000000000000000000000000000000000000081526004018080602001828103825260028152602001807f313700000000000000000000000000000000000000000000000000000000000081525060200191505060405180910390fd5b600260009054906101000a900473ffffffffffffffffffffffffffffffffffffffff1673ffffffffffffffffffffffffffffffffffffffff163373ffffffffffffffffffffffffffffffffffffffff16148015610afd57506000600754145b15610b0f576002600781905550610bef565b600360009054906101000a900473ffffffffffffffffffffffffffffffffffffffff1673ffffffffffffffffffffffffffffffffffffffff163373ffffffffffffffffffffffffffffffffffffffff16148015610b6e57506000600854145b15610b80576002600881905550610bee565b600460009054906101000a900473ffffffffffffffffffffffffffffffffffffffff1673ffffffffffffffffffffffffffffffffffffffff163373ffffffffffffffffffffffffffffffffffffffff16148015610bdf57506000600954145b15610bed5760026009819055505b5b5b600a60159054906101000a900460ff16610cd8576001600a60156101000a81548160ff021916908315150217905550600a60019054906101000a900473ffffffffffffffffffffffffffffffffffffffff1673ffffffffffffffffffffffffffffffffffffffff166317dc773c306040518263ffffffff1660e01b8152600401808273ffffffffffffffffffffffffffffffffffffffff1673ffffffffffffffffffffffffffffffffffffffff168152602001915050600060405180830381600087803b158015610cbf57600080fd5b505af1158015610cd3573d6000803e3d6000fd5b505050505b565b60085481565b60075481565b600260009054906101000a900473ffffffffffffffffffffffffffffffffffffffff1681565b600a60009054906101000a900460ff1681565b600a60159054906101000a900460ff168156fea165627a7a723058208764a26f27068f58204bfd1287397e916c04ce5f1ca1122ef266b6424f86cede0029",
  "source": "pragma solidity ^ 0.5.0;\n\nimport \"./Netereum.sol\";\n\ncontract Agreement\n{\n    uint256 public expireTime;\n    address public debtor;\n    address public creditor;\n    address public debtorCoordinator;\n    address public creditorCoordinator;\n    uint256 public debtAmount;\n    uint256 public exchangeRate;\n    uint public creditorPermission = 0;\n    uint public debtorCoordinatorPermission = 0;\n    uint public creditorCoordinatorPermission = 0;\n    uint8 public counterPermission = 1;\n    address public netereumAddress;\n    bool public netereumCalled = false;\n\n    function decline() public {\n\n        require(msg.sender == creditor || msg.sender == debtorCoordinator || msg.sender == creditorCoordinator, \"17\");\n\n        if (msg.sender == creditor && creditorPermission == 0)\n        {\n            creditorPermission = 2;\n        }\n        else if (msg.sender == debtorCoordinator && debtorCoordinatorPermission == 0)\n        {\n            debtorCoordinatorPermission = 2;\n        }\n        else if (msg.sender == creditorCoordinator && creditorCoordinatorPermission == 0)\n        {\n            creditorCoordinatorPermission = 2;\n        }\n\n        if(!netereumCalled){\n            netereumCalled = true;\n            Netereum(netereumAddress).declineAgreement(address(this));\n        }\n    }\n\n    function approve() public\n    {\n        require(\n            msg.sender == creditor || msg.sender == debtorCoordinator || msg.sender == creditorCoordinator, \"17\");\n        if (msg.sender == creditor && creditorPermission == 0)\n        {\n            counterPermission++;\n            creditorPermission = 1;\n            //BarterCube(netereumAddress).approveAgreement(address(this));\n        }\n        else if (msg.sender == debtorCoordinator && debtorCoordinatorPermission == 0)\n        {\n            counterPermission ++;\n            debtorCoordinatorPermission = 1;\n            //BarterCube(netereumAddress).approveAgreement(address(this));\n        }\n        else if (msg.sender == creditorCoordinator && creditorCoordinatorPermission == 0)\n        {\n            counterPermission++;\n            creditorCoordinatorPermission = 1;\n            //BarterCube(netereumAddress).approveAgreement(address(this));\n        }\n        if (!netereumCalled && counterPermission == 4)\n        {\n            netereumCalled = true;\n            Netereum(netereumAddress).addAgreement(address(this));\n        }\n    }\n\n    constructor(\n        address _debtor, address _creditor,\n        address _debtorCoordinator, address _creditorCoordinator,\n        uint256 _debtAmount, uint256 _exchangeRate, uint256 _expireTime, address _netereumAddress)\n    public\n    {\n        debtor = _debtor;\n        creditor = _creditor;\n        debtorCoordinator = _debtorCoordinator;\n        creditorCoordinator = _creditorCoordinator;\n        debtAmount = _debtAmount;\n        exchangeRate = _exchangeRate;\n        expireTime = _expireTime;\n        netereumAddress = _netereumAddress;\n    }\n\n    function changeCost(uint256 _debtAmount) public\n    {\n        require(msg.sender == netereumAddress);\n        debtAmount = _debtAmount;\n    }\n}\n",
  "sourcePath": "/home/momi/WebstormProjects/Netereum/contracts/Agreement.sol",
  "compiler": {
    "name": "solc",
    "version": "0.5.8+commit.23d335f2.Emscripten.clang"
  },
  "schemaVersion": "3.0.16",
  "updatedAt": "2019-11-09T14:57:44.845Z",
  "devdoc": {
    "methods": {}
  },
  "userdoc": {
    "methods": {}
  }
}