{
  "contractName": "Netereum",
  "abi": [
    {
      "constant": true,
      "inputs": [],
      "name": "MAX_INT",
      "outputs": [
        {
          "name": "",
          "type": "int256"
        }
      ],
      "payable": false,
      "stateMutability": "view",
      "type": "function"
    },
    {
      "constant": true,
      "inputs": [],
      "name": "numberOfPaymentMessages",
      "outputs": [
        {
          "name": "",
          "type": "uint256"
        }
      ],
      "payable": false,
      "stateMutability": "view",
      "type": "function"
    },
    {
      "constant": true,
      "inputs": [],
      "name": "numberOfCoordinators",
      "outputs": [
        {
          "name": "",
          "type": "uint256"
        }
      ],
      "payable": false,
      "stateMutability": "view",
      "type": "function"
    },
    {
      "constant": true,
      "inputs": [],
      "name": "xy",
      "outputs": [
        {
          "name": "",
          "type": "uint256"
        }
      ],
      "payable": false,
      "stateMutability": "view",
      "type": "function"
    },
    {
      "constant": true,
      "inputs": [],
      "name": "numberOfAgreements",
      "outputs": [
        {
          "name": "",
          "type": "uint256"
        }
      ],
      "payable": false,
      "stateMutability": "view",
      "type": "function"
    },
    {
      "constant": true,
      "inputs": [],
      "name": "numberOfCreatedAgreements",
      "outputs": [
        {
          "name": "",
          "type": "uint256"
        }
      ],
      "payable": false,
      "stateMutability": "view",
      "type": "function"
    },
    {
      "constant": true,
      "inputs": [
        {
          "name": "",
          "type": "uint256"
        }
      ],
      "name": "transactions",
      "outputs": [
        {
          "name": "",
          "type": "address"
        }
      ],
      "payable": false,
      "stateMutability": "view",
      "type": "function"
    },
    {
      "constant": true,
      "inputs": [],
      "name": "numberOfCreatedTransactions",
      "outputs": [
        {
          "name": "",
          "type": "uint256"
        }
      ],
      "payable": false,
      "stateMutability": "view",
      "type": "function"
    },
    {
      "constant": true,
      "inputs": [
        {
          "name": "",
          "type": "uint256"
        }
      ],
      "name": "agreements",
      "outputs": [
        {
          "name": "",
          "type": "address"
        }
      ],
      "payable": false,
      "stateMutability": "view",
      "type": "function"
    },
    {
      "constant": true,
      "inputs": [
        {
          "name": "",
          "type": "address"
        }
      ],
      "name": "transactionsStatus",
      "outputs": [
        {
          "name": "",
          "type": "uint8"
        }
      ],
      "payable": false,
      "stateMutability": "view",
      "type": "function"
    },
    {
      "constant": true,
      "inputs": [],
      "name": "numberOfTransactions",
      "outputs": [
        {
          "name": "",
          "type": "uint256"
        }
      ],
      "payable": false,
      "stateMutability": "view",
      "type": "function"
    },
    {
      "inputs": [],
      "payable": false,
      "stateMutability": "nonpayable",
      "type": "constructor"
    },
    {
      "constant": false,
      "inputs": [
        {
          "name": "mainGraphAddress",
          "type": "address"
        }
      ],
      "name": "setMainGraph",
      "outputs": [],
      "payable": false,
      "stateMutability": "nonpayable",
      "type": "function"
    },
    {
      "constant": false,
      "inputs": [
        {
          "name": "coordinator",
          "type": "address"
        }
      ],
      "name": "addCoordinator",
      "outputs": [],
      "payable": false,
      "stateMutability": "nonpayable",
      "type": "function"
    },
    {
      "constant": false,
      "inputs": [
        {
          "name": "_debtor",
          "type": "address"
        },
        {
          "name": "_creditor",
          "type": "address"
        },
        {
          "name": "_debtorCoordinator",
          "type": "address"
        },
        {
          "name": "_creditorCoordinator",
          "type": "address"
        },
        {
          "name": "_debtorCost",
          "type": "uint256"
        },
        {
          "name": "_exchangeRate",
          "type": "uint256"
        },
        {
          "name": "_expireTime",
          "type": "uint256"
        },
        {
          "name": "agreementAddress",
          "type": "address"
        }
      ],
      "name": "createAgreement",
      "outputs": [
        {
          "name": "",
          "type": "address"
        }
      ],
      "payable": false,
      "stateMutability": "nonpayable",
      "type": "function"
    },
    {
      "constant": false,
      "inputs": [
        {
          "name": "agreementAddress",
          "type": "address"
        }
      ],
      "name": "addAgreement",
      "outputs": [],
      "payable": false,
      "stateMutability": "nonpayable",
      "type": "function"
    },
    {
      "constant": false,
      "inputs": [
        {
          "name": "_buyer",
          "type": "address"
        },
        {
          "name": "_seller",
          "type": "address"
        },
        {
          "name": "_buyerCoordinator",
          "type": "address"
        },
        {
          "name": "_sellerCoordinator",
          "type": "address"
        },
        {
          "name": "_buyerCost",
          "type": "uint256"
        },
        {
          "name": "_sellerCost",
          "type": "uint256"
        }
      ],
      "name": "createTransaction",
      "outputs": [
        {
          "name": "",
          "type": "address"
        }
      ],
      "payable": false,
      "stateMutability": "nonpayable",
      "type": "function"
    },
    {
      "constant": false,
      "inputs": [
        {
          "name": "addr",
          "type": "address"
        }
      ],
      "name": "doTransaction",
      "outputs": [],
      "payable": false,
      "stateMutability": "nonpayable",
      "type": "function"
    },
    {
      "constant": false,
      "inputs": [
        {
          "name": "_receiver",
          "type": "address"
        },
        {
          "name": "_destination",
          "type": "uint256"
        },
        {
          "name": "_amount",
          "type": "uint256"
        }
      ],
      "name": "createAndAddPaymentMessage",
      "outputs": [],
      "payable": false,
      "stateMutability": "nonpayable",
      "type": "function"
    },
    {
      "constant": false,
      "inputs": [
        {
          "name": "agreementAddress",
          "type": "address"
        }
      ],
      "name": "declineAgreement",
      "outputs": [],
      "payable": false,
      "stateMutability": "nonpayable",
      "type": "function"
    },
    {
      "constant": false,
      "inputs": [
        {
          "name": "transactionAddress",
          "type": "address"
        }
      ],
      "name": "declineTransaction",
      "outputs": [],
      "payable": false,
      "stateMutability": "nonpayable",
      "type": "function"
    }
  ],
  "bytecode": "0x60806040526000600f55600060105560006011556000601255600060135560006014553480156200002f57600080fd5b50336000806101000a81548173ffffffffffffffffffffffffffffffffffffffff021916908373ffffffffffffffffffffffffffffffffffffffff1602179055506040516200007e90620002a2565b604051809103906000f0801580156200009b573d6000803e3d6000fd5b50600260006101000a81548173ffffffffffffffffffffffffffffffffffffffff021916908373ffffffffffffffffffffffffffffffffffffffff160217905550604051620000ea90620002b0565b604051809103906000f08015801562000107573d6000803e3d6000fd5b50600360006101000a81548173ffffffffffffffffffffffffffffffffffffffff021916908373ffffffffffffffffffffffffffffffffffffffff1602179055506040516200015690620002be565b604051809103906000f08015801562000173573d6000803e3d6000fd5b50600460006101000a81548173ffffffffffffffffffffffffffffffffffffffff021916908373ffffffffffffffffffffffffffffffffffffffff160217905550600460009054906101000a900473ffffffffffffffffffffffffffffffffffffffff1673ffffffffffffffffffffffffffffffffffffffff1663efc81a8c6040518163ffffffff1660e01b8152600401602060405180830381600087803b1580156200021f57600080fd5b505af115801562000234573d6000803e3d6000fd5b505050506040513d60208110156200024b57600080fd5b8101908080519060200190929190505050600560006101000a81548173ffffffffffffffffffffffffffffffffffffffff021916908373ffffffffffffffffffffffffffffffffffffffff160217905550620002cc565b6113188062002df883390190565b611602806200411083390190565b61029f806200571283390190565b612b1c80620002dc6000396000f3fe608060405234801561001057600080fd5b506004361061012c5760003560e01c8063954e6993116100ad578063bd14de9611610071578063bd14de96146105f4578063c94d5ec314610662578063ce55d026146106c0578063f8d3afa414610704578063fbd6d77e146107225761012c565b8063954e6993146104e857806398472ef9146105065780639ace38c214610524578063af69561414610592578063bcc94207146105b05761012c565b806359e94965116100f457806359e9496514610352578063600cf8331461044a578063680d141014610468578063858d8d27146104865780638bd06b3f146104a45761012c565b8063098d32281461013157806309fa423e1461014f57806317dc773c146101935780632f6a45d4146101d757806346a78ea2146102fa575b600080fd5b610139610766565b6040518082815260200191505060405180910390f35b6101916004803603602081101561016557600080fd5b81019080803573ffffffffffffffffffffffffffffffffffffffff169060200190929190505050610770565b005b6101d5600480360360208110156101a957600080fd5b81019080803573ffffffffffffffffffffffffffffffffffffffff1690602001909291905050506110ac565b005b6102b860048036036101008110156101ee57600080fd5b81019080803573ffffffffffffffffffffffffffffffffffffffff169060200190929190803573ffffffffffffffffffffffffffffffffffffffff169060200190929190803573ffffffffffffffffffffffffffffffffffffffff169060200190929190803573ffffffffffffffffffffffffffffffffffffffff169060200190929190803590602001909291908035906020019092919080359060200190929190803573ffffffffffffffffffffffffffffffffffffffff169060200190929190505050611205565b604051808273ffffffffffffffffffffffffffffffffffffffff1673ffffffffffffffffffffffffffffffffffffffff16815260200191505060405180910390f35b6103506004803603606081101561031057600080fd5b81019080803573ffffffffffffffffffffffffffffffffffffffff1690602001909291908035906020019092919080359060200190929190505050611ae9565b005b610408600480360360c081101561036857600080fd5b81019080803573ffffffffffffffffffffffffffffffffffffffff169060200190929190803573ffffffffffffffffffffffffffffffffffffffff169060200190929190803573ffffffffffffffffffffffffffffffffffffffff169060200190929190803573ffffffffffffffffffffffffffffffffffffffff1690602001909291908035906020019092919080359060200190929190505050611b00565b604051808273ffffffffffffffffffffffffffffffffffffffff1673ffffffffffffffffffffffffffffffffffffffff16815260200191505060405180910390f35b610452611f39565b6040518082815260200191505060405180910390f35b610470611f3f565b6040518082815260200191505060405180910390f35b61048e611f45565b6040518082815260200191505060405180910390f35b6104e6600480360360208110156104ba57600080fd5b81019080803573ffffffffffffffffffffffffffffffffffffffff169060200190929190505050611f4b565b005b6104f06120a4565b6040518082815260200191505060405180910390f35b61050e6120aa565b6040518082815260200191505060405180910390f35b6105506004803603602081101561053a57600080fd5b81019080803590602001909291905050506120b0565b604051808273ffffffffffffffffffffffffffffffffffffffff1673ffffffffffffffffffffffffffffffffffffffff16815260200191505060405180910390f35b61059a6120ec565b6040518082815260200191505060405180910390f35b6105f2600480360360208110156105c657600080fd5b81019080803573ffffffffffffffffffffffffffffffffffffffff1690602001909291905050506120f2565b005b6106206004803603602081101561060a57600080fd5b810190808035906020019092919050505061218f565b604051808273ffffffffffffffffffffffffffffffffffffffff1673ffffffffffffffffffffffffffffffffffffffff16815260200191505060405180910390f35b6106a46004803603602081101561067857600080fd5b81019080803573ffffffffffffffffffffffffffffffffffffffff1690602001909291905050506121cb565b604051808260ff1660ff16815260200191505060405180910390f35b610702600480360360208110156106d657600080fd5b81019080803573ffffffffffffffffffffffffffffffffffffffff1690602001909291905050506121eb565b005b61070c61290c565b6040518082815260200191505060405180910390f35b6107646004803603602081101561073857600080fd5b81019080803573ffffffffffffffffffffffffffffffffffffffff169060200190929190505050612912565b005b60ff6001901b1981565b6001600b60008373ffffffffffffffffffffffffffffffffffffffff1673ffffffffffffffffffffffffffffffffffffffff16815260200190815260200160002060009054906101000a900460ff1660ff1614610835576040517f08c379a00000000000000000000000000000000000000000000000000000000081526004018080602001828103825260018152602001807f360000000000000000000000000000000000000000000000000000000000000081525060200191505060405180910390fd5b42600a60008373ffffffffffffffffffffffffffffffffffffffff1673ffffffffffffffffffffffffffffffffffffffff16815260200190815260200160002060009054906101000a900473ffffffffffffffffffffffffffffffffffffffff1673ffffffffffffffffffffffffffffffffffffffff1663310a1ee36040518163ffffffff1660e01b815260040160206040518083038186803b1580156108db57600080fd5b505afa1580156108ef573d6000803e3d6000fd5b505050506040513d602081101561090557600080fd5b810190808051906020019092919050505011610989576040517f08c379a00000000000000000000000000000000000000000000000000000000081526004018080602001828103825260018152602001807f350000000000000000000000000000000000000000000000000000000000000081525060200191505060405180910390fd5b6002600b60008373ffffffffffffffffffffffffffffffffffffffff1673ffffffffffffffffffffffffffffffffffffffff16815260200190815260200160002060006101000a81548160ff021916908360ff160217905550600d8190806001815401808255809150509060018203906000526020600020016000909192909190916101000a81548173ffffffffffffffffffffffffffffffffffffffff021916908373ffffffffffffffffffffffffffffffffffffffff16021790555050601260008154809291906001019190505550600160009054906101000a900473ffffffffffffffffffffffffffffffffffffffff1673ffffffffffffffffffffffffffffffffffffffff1663276fd357600a60008473ffffffffffffffffffffffffffffffffffffffff1673ffffffffffffffffffffffffffffffffffffffff16815260200190815260200160002060009054906101000a900473ffffffffffffffffffffffffffffffffffffffff1673ffffffffffffffffffffffffffffffffffffffff1663327134f46040518163ffffffff1660e01b815260040160206040518083038186803b158015610b3d57600080fd5b505afa158015610b51573d6000803e3d6000fd5b505050506040513d6020811015610b6757600080fd5b8101908080519060200190929190505050600a60008573ffffffffffffffffffffffffffffffffffffffff1673ffffffffffffffffffffffffffffffffffffffff16815260200190815260200160002060009054906101000a900473ffffffffffffffffffffffffffffffffffffffff1673ffffffffffffffffffffffffffffffffffffffff16635922b8576040518163ffffffff1660e01b815260040160206040518083038186803b158015610c1d57600080fd5b505afa158015610c31573d6000803e3d6000fd5b505050506040513d6020811015610c4757600080fd5b8101908080519060200190929190505050600a60008673ffffffffffffffffffffffffffffffffffffffff1673ffffffffffffffffffffffffffffffffffffffff16815260200190815260200160002060009054906101000a900473ffffffffffffffffffffffffffffffffffffffff1673ffffffffffffffffffffffffffffffffffffffff16633ba0b9a96040518163ffffffff1660e01b815260040160206040518083038186803b158015610cfd57600080fd5b505afa158015610d11573d6000803e3d6000fd5b505050506040513d6020811015610d2757600080fd5b8101908080519060200190929190505050600560009054906101000a900473ffffffffffffffffffffffffffffffffffffffff1673ffffffffffffffffffffffffffffffffffffffff16639792bc0e600a60008973ffffffffffffffffffffffffffffffffffffffff1673ffffffffffffffffffffffffffffffffffffffff16815260200190815260200160002060009054906101000a900473ffffffffffffffffffffffffffffffffffffffff1673ffffffffffffffffffffffffffffffffffffffff16633ba0b9a96040518163ffffffff1660e01b815260040160206040518083038186803b158015610e1b57600080fd5b505afa158015610e2f573d6000803e3d6000fd5b505050506040513d6020811015610e4557600080fd5b81019080805190602001909291905050506040518263ffffffff1660e01b815260040180828152602001915050602060405180830381600087803b158015610e8c57600080fd5b505af1158015610ea0573d6000803e3d6000fd5b505050506040513d6020811015610eb657600080fd5b81019080805190602001909291905050506000600a60008973ffffffffffffffffffffffffffffffffffffffff1673ffffffffffffffffffffffffffffffffffffffff16815260200190815260200160002060009054906101000a900473ffffffffffffffffffffffffffffffffffffffff1673ffffffffffffffffffffffffffffffffffffffff1663f2978d0b6040518163ffffffff1660e01b815260040160206040518083038186803b158015610f6e57600080fd5b505afa158015610f82573d6000803e3d6000fd5b505050506040513d6020811015610f9857600080fd5b8101908080519060200190929190505050886040518863ffffffff1660e01b8152600401808873ffffffffffffffffffffffffffffffffffffffff1673ffffffffffffffffffffffffffffffffffffffff1681526020018773ffffffffffffffffffffffffffffffffffffffff1673ffffffffffffffffffffffffffffffffffffffff1681526020018681526020018581526020018460ff1681526020018381526020018273ffffffffffffffffffffffffffffffffffffffff1673ffffffffffffffffffffffffffffffffffffffff168152602001975050505050505050600060405180830381600087803b15801561109157600080fd5b505af11580156110a5573d6000803e3d6000fd5b5050505050565b6001600b60008373ffffffffffffffffffffffffffffffffffffffff1673ffffffffffffffffffffffffffffffffffffffff16815260200190815260200160002060009054906101000a900460ff1660ff1614611171576040517f08c379a00000000000000000000000000000000000000000000000000000000081526004018080602001828103825260028152602001807f313400000000000000000000000000000000000000000000000000000000000081525060200191505060405180910390fd5b8073ffffffffffffffffffffffffffffffffffffffff163373ffffffffffffffffffffffffffffffffffffffff16146111a957600080fd5b6004600b60008373ffffffffffffffffffffffffffffffffffffffff1673ffffffffffffffffffffffffffffffffffffffff16815260200190815260200160002060006101000a81548160ff021916908360ff16021790555050565b60008060009050600073ffffffffffffffffffffffffffffffffffffffff168373ffffffffffffffffffffffffffffffffffffffff16141561144a5760011515600760008a73ffffffffffffffffffffffffffffffffffffffff1673ffffffffffffffffffffffffffffffffffffffff16815260200190815260200160002060009054906101000a900460ff16151514611307576040517f08c379a00000000000000000000000000000000000000000000000000000000081526004018080602001828103825260018152602001807f330000000000000000000000000000000000000000000000000000000000000081525060200191505060405180910390fd5b60011515600760008973ffffffffffffffffffffffffffffffffffffffff1673ffffffffffffffffffffffffffffffffffffffff16815260200190815260200160002060009054906101000a900460ff161515146113cd576040517f08c379a00000000000000000000000000000000000000000000000000000000081526004018080602001828103825260018152602001807f340000000000000000000000000000000000000000000000000000000000000081525060200191505060405180910390fd5b428411611442576040517f08c379a00000000000000000000000000000000000000000000000000000000081526004018080602001828103825260018152602001807f350000000000000000000000000000000000000000000000000000000000000081525060200191505060405180910390fd5b8590506116da565b6002600b60008573ffffffffffffffffffffffffffffffffffffffff1673ffffffffffffffffffffffffffffffffffffffff16815260200190815260200160002060009054906101000a900460ff1660ff161461150f576040517f08c379a00000000000000000000000000000000000000000000000000000000081526004018080602001828103825260028152602001807f323100000000000000000000000000000000000000000000000000000000000081525060200191505060405180910390fd5b6005600b60008573ffffffffffffffffffffffffffffffffffffffff1673ffffffffffffffffffffffffffffffffffffffff16815260200190815260200160002060006101000a81548160ff021916908360ff160217905550600160009054906101000a900473ffffffffffffffffffffffffffffffffffffffff1673ffffffffffffffffffffffffffffffffffffffff1663a090aede6000808660016040518563ffffffff1660e01b8152600401808581526020018481526020018373ffffffffffffffffffffffffffffffffffffffff1673ffffffffffffffffffffffffffffffffffffffff1681526020018260ff168152602001945050505050602060405180830381600087803b15801561162657600080fd5b505af115801561163a573d6000803e3d6000fd5b505050506040513d602081101561165057600080fd5b81019080805190602001909291905050509050600081116116d9576040517f08c379a00000000000000000000000000000000000000000000000000000000081526004018080602001828103825260028152602001807f323600000000000000000000000000000000000000000000000000000000000081525060200191505060405180910390fd5b5b600260ff6001901b19816116ea57fe5b05851080156116f95750600085115b61176b576040517f08c379a00000000000000000000000000000000000000000000000000000000081526004018080602001828103825260028152602001807f323400000000000000000000000000000000000000000000000000000000000081525060200191505060405180910390fd5b620f42406000198161177957fe5b04811061178557600080fd5b6000600260009054906101000a900473ffffffffffffffffffffffffffffffffffffffff1673ffffffffffffffffffffffffffffffffffffffff1663bd3d94f68c8c8c8c878c8c306040518963ffffffff1660e01b8152600401808973ffffffffffffffffffffffffffffffffffffffff1673ffffffffffffffffffffffffffffffffffffffff1681526020018873ffffffffffffffffffffffffffffffffffffffff1673ffffffffffffffffffffffffffffffffffffffff1681526020018773ffffffffffffffffffffffffffffffffffffffff1673ffffffffffffffffffffffffffffffffffffffff1681526020018673ffffffffffffffffffffffffffffffffffffffff1673ffffffffffffffffffffffffffffffffffffffff1681526020018581526020018481526020018381526020018273ffffffffffffffffffffffffffffffffffffffff1673ffffffffffffffffffffffffffffffffffffffff16815260200198505050505050505050602060405180830381600087803b15801561191057600080fd5b505af1158015611924573d6000803e3d6000fd5b505050506040513d602081101561193a57600080fd5b81019080805190602001909291905050509050600081905060106000815480929190600101919050555081600a60008373ffffffffffffffffffffffffffffffffffffffff1673ffffffffffffffffffffffffffffffffffffffff16815260200190815260200160002060006101000a81548173ffffffffffffffffffffffffffffffffffffffff021916908373ffffffffffffffffffffffffffffffffffffffff1602179055506001600b60008373ffffffffffffffffffffffffffffffffffffffff1673ffffffffffffffffffffffffffffffffffffffff16815260200190815260200160002060006101000a81548160ff021916908360ff160217905550600083118015611a785750600073ffffffffffffffffffffffffffffffffffffffff168573ffffffffffffffffffffffffffffffffffffffff1614155b15611ad7576002600b60008773ffffffffffffffffffffffffffffffffffffffff1673ffffffffffffffffffffffffffffffffffffffff16815260200190815260200160002060006101000a81548160ff021916908360ff1602179055505b80935050505098975050505050505050565b601460008154809291906001019190505550505050565b600060011515600760008773ffffffffffffffffffffffffffffffffffffffff1673ffffffffffffffffffffffffffffffffffffffff16815260200190815260200160002060009054906101000a900460ff16151514611bc8576040517f08c379a00000000000000000000000000000000000000000000000000000000081526004018080602001828103825260018152602001807f330000000000000000000000000000000000000000000000000000000000000081525060200191505060405180910390fd5b60011515600760008673ffffffffffffffffffffffffffffffffffffffff1673ffffffffffffffffffffffffffffffffffffffff16815260200190815260200160002060009054906101000a900460ff16151514611c8e576040517f08c379a00000000000000000000000000000000000000000000000000000000081526004018080602001828103825260018152602001807f340000000000000000000000000000000000000000000000000000000000000081525060200191505060405180910390fd5b6000600360009054906101000a900473ffffffffffffffffffffffffffffffffffffffff1673ffffffffffffffffffffffffffffffffffffffff1663424becc3898989898989306040518863ffffffff1660e01b8152600401808873ffffffffffffffffffffffffffffffffffffffff1673ffffffffffffffffffffffffffffffffffffffff1681526020018773ffffffffffffffffffffffffffffffffffffffff1673ffffffffffffffffffffffffffffffffffffffff1681526020018673ffffffffffffffffffffffffffffffffffffffff1673ffffffffffffffffffffffffffffffffffffffff1681526020018573ffffffffffffffffffffffffffffffffffffffff1673ffffffffffffffffffffffffffffffffffffffff1681526020018481526020018381526020018273ffffffffffffffffffffffffffffffffffffffff1673ffffffffffffffffffffffffffffffffffffffff168152602001975050505050505050602060405180830381600087803b158015611e1157600080fd5b505af1158015611e25573d6000803e3d6000fd5b505050506040513d6020811015611e3b57600080fd5b81019080805190602001909291905050509050600081905081600860008373ffffffffffffffffffffffffffffffffffffffff1673ffffffffffffffffffffffffffffffffffffffff16815260200190815260200160002060006101000a81548173ffffffffffffffffffffffffffffffffffffffff021916908373ffffffffffffffffffffffffffffffffffffffff1602179055506001600960008373ffffffffffffffffffffffffffffffffffffffff1673ffffffffffffffffffffffffffffffffffffffff16815260200190815260200160002060006101000a81548160ff021916908360ff16021790555080925050509695505050505050565b60145481565b60135481565b60155481565b6001600960008373ffffffffffffffffffffffffffffffffffffffff1673ffffffffffffffffffffffffffffffffffffffff16815260200190815260200160002060009054906101000a900460ff1660ff1614612010576040517f08c379a00000000000000000000000000000000000000000000000000000000081526004018080602001828103825260028152602001807f313800000000000000000000000000000000000000000000000000000000000081525060200191505060405180910390fd5b8073ffffffffffffffffffffffffffffffffffffffff163373ffffffffffffffffffffffffffffffffffffffff161461204857600080fd5b6004600960008373ffffffffffffffffffffffffffffffffffffffff1673ffffffffffffffffffffffffffffffffffffffff16815260200190815260200160002060006101000a81548160ff021916908360ff16021790555050565b60125481565b60105481565b600c81815481106120bd57fe5b906000526020600020016000915054906101000a900473ffffffffffffffffffffffffffffffffffffffff1681565b600f5481565b6000809054906101000a900473ffffffffffffffffffffffffffffffffffffffff1673ffffffffffffffffffffffffffffffffffffffff163373ffffffffffffffffffffffffffffffffffffffff161461214b57600080fd5b80600160006101000a81548173ffffffffffffffffffffffffffffffffffffffff021916908373ffffffffffffffffffffffffffffffffffffffff16021790555050565b600d818154811061219c57fe5b906000526020600020016000915054906101000a900473ffffffffffffffffffffffffffffffffffffffff1681565b60096020528060005260406000206000915054906101000a900460ff1681565b6001600960008373ffffffffffffffffffffffffffffffffffffffff1673ffffffffffffffffffffffffffffffffffffffff16815260200190815260200160002060009054906101000a900460ff1660ff16146122b0576040517f08c379a00000000000000000000000000000000000000000000000000000000081526004018080602001828103825260028152602001807f313100000000000000000000000000000000000000000000000000000000000081525060200191505060405180910390fd5b6002600960008373ffffffffffffffffffffffffffffffffffffffff1673ffffffffffffffffffffffffffffffffffffffff16815260200190815260200160002060006101000a81548160ff021916908360ff160217905550600080600160009054906101000a900473ffffffffffffffffffffffffffffffffffffffff1673ffffffffffffffffffffffffffffffffffffffff1663bc34e79e600860008673ffffffffffffffffffffffffffffffffffffffff1673ffffffffffffffffffffffffffffffffffffffff16815260200190815260200160002060009054906101000a900473ffffffffffffffffffffffffffffffffffffffff1673ffffffffffffffffffffffffffffffffffffffff1663844e329f6040518163ffffffff1660e01b815260040160206040518083038186803b1580156123ef57600080fd5b505afa158015612403573d6000803e3d6000fd5b505050506040513d602081101561241957600080fd5b8101908080519060200190929190505050600860008773ffffffffffffffffffffffffffffffffffffffff1673ffffffffffffffffffffffffffffffffffffffff16815260200190815260200160002060009054906101000a900473ffffffffffffffffffffffffffffffffffffffff1673ffffffffffffffffffffffffffffffffffffffff16635dcc94296040518163ffffffff1660e01b815260040160206040518083038186803b1580156124cf57600080fd5b505afa1580156124e3573d6000803e3d6000fd5b505050506040513d60208110156124f957600080fd5b8101908080519060200190929190505050600860008873ffffffffffffffffffffffffffffffffffffffff1673ffffffffffffffffffffffffffffffffffffffff16815260200190815260200160002060009054906101000a900473ffffffffffffffffffffffffffffffffffffffff1673ffffffffffffffffffffffffffffffffffffffff16634ddf84926040518163ffffffff1660e01b815260040160206040518083038186803b1580156125af57600080fd5b505afa1580156125c3573d6000803e3d6000fd5b505050506040513d60208110156125d957600080fd5b8101908080519060200190929190505050600860008973ffffffffffffffffffffffffffffffffffffffff1673ffffffffffffffffffffffffffffffffffffffff16815260200190815260200160002060009054906101000a900473ffffffffffffffffffffffffffffffffffffffff1673ffffffffffffffffffffffffffffffffffffffff166367cbdde06040518163ffffffff1660e01b815260040160206040518083038186803b15801561268f57600080fd5b505afa1580156126a3573d6000803e3d6000fd5b505050506040513d60208110156126b957600080fd5b810190808051906020019092919050505060006040518663ffffffff1660e01b8152600401808673ffffffffffffffffffffffffffffffffffffffff1673ffffffffffffffffffffffffffffffffffffffff1681526020018573ffffffffffffffffffffffffffffffffffffffff1673ffffffffffffffffffffffffffffffffffffffff16815260200184815260200183815260200182151515158152602001955050505050506040805180830381600087803b15801561277957600080fd5b505af115801561278d573d6000803e3d6000fd5b505050506040513d60408110156127a357600080fd5b8101908080519060200190929190805190602001909291905050508092508193505050806015819055506001915081156128ad576003600960008573ffffffffffffffffffffffffffffffffffffffff1673ffffffffffffffffffffffffffffffffffffffff16815260200190815260200160002060006101000a81548160ff021916908360ff160217905550600c8390806001815401808255809150509060018203906000526020600020016000909192909190916101000a81548173ffffffffffffffffffffffffffffffffffffffff021916908373ffffffffffffffffffffffffffffffffffffffff16021790555050601160008154809291906001019190505550612907565b6001600960008573ffffffffffffffffffffffffffffffffffffffff1673ffffffffffffffffffffffffffffffffffffffff16815260200190815260200160002060006101000a81548160ff021916908360ff1602179055505b505050565b60115481565b600760008273ffffffffffffffffffffffffffffffffffffffff1673ffffffffffffffffffffffffffffffffffffffff16815260200190815260200160002060009054906101000a900460ff16612aed5760068190806001815401808255809150509060018203906000526020600020016000909192909190916101000a81548173ffffffffffffffffffffffffffffffffffffffff021916908373ffffffffffffffffffffffffffffffffffffffff160217905550506001600760008373ffffffffffffffffffffffffffffffffffffffff1673ffffffffffffffffffffffffffffffffffffffff16815260200190815260200160002060006101000a81548160ff021916908315150217905550601360008154809291906001019190505550600160009054906101000a900473ffffffffffffffffffffffffffffffffffffffff1673ffffffffffffffffffffffffffffffffffffffff16639d95f1cc826040518263ffffffff1660e01b8152600401808273ffffffffffffffffffffffffffffffffffffffff1673ffffffffffffffffffffffffffffffffffffffff168152602001915050600060405180830381600087803b158015612ad457600080fd5b505af1158015612ae8573d6000803e3d6000fd5b505050505b5056fea165627a7a7230582072d91c6a8eee9664015484ec87c764d59d7921cba22777ab156ecd2f153e50a30029608060405234801561001057600080fd5b506112f8806100206000396000f3fe608060405234801561001057600080fd5b506004361061002b5760003560e01c8063bd3d94f614610030575b600080fd5b610111600480360361010081101561004757600080fd5b81019080803573ffffffffffffffffffffffffffffffffffffffff169060200190929190803573ffffffffffffffffffffffffffffffffffffffff169060200190929190803573ffffffffffffffffffffffffffffffffffffffff169060200190929190803573ffffffffffffffffffffffffffffffffffffffff169060200190929190803590602001909291908035906020019092919080359060200190929190803573ffffffffffffffffffffffffffffffffffffffff169060200190929190505050610153565b604051808273ffffffffffffffffffffffffffffffffffffffff1673ffffffffffffffffffffffffffffffffffffffff16815260200191505060405180910390f35b60008888888888888888604051610169906102ab565b808973ffffffffffffffffffffffffffffffffffffffff1673ffffffffffffffffffffffffffffffffffffffff1681526020018873ffffffffffffffffffffffffffffffffffffffff1673ffffffffffffffffffffffffffffffffffffffff1681526020018773ffffffffffffffffffffffffffffffffffffffff1673ffffffffffffffffffffffffffffffffffffffff1681526020018673ffffffffffffffffffffffffffffffffffffffff1673ffffffffffffffffffffffffffffffffffffffff1681526020018581526020018481526020018381526020018273ffffffffffffffffffffffffffffffffffffffff1673ffffffffffffffffffffffffffffffffffffffff16815260200198505050505050505050604051809103906000f08015801561029c573d6000803e3d6000fd5b50905098975050505050505050565b611014806102b98339019056fe60806040526000600755600060085560006009556001600a60006101000a81548160ff021916908360ff1602179055506000600a60156101000a81548160ff02191690831515021790555034801561005657600080fd5b5060405161010080611014833981018060405261010081101561007857600080fd5b81019080805190602001909291908051906020019092919080519060200190929190805190602001909291908051906020019092919080519060200190929190805190602001909291908051906020019092919050505087600160006101000a81548173ffffffffffffffffffffffffffffffffffffffff021916908373ffffffffffffffffffffffffffffffffffffffff16021790555086600260006101000a81548173ffffffffffffffffffffffffffffffffffffffff021916908373ffffffffffffffffffffffffffffffffffffffff16021790555085600360006101000a81548173ffffffffffffffffffffffffffffffffffffffff021916908373ffffffffffffffffffffffffffffffffffffffff16021790555084600460006101000a81548173ffffffffffffffffffffffffffffffffffffffff021916908373ffffffffffffffffffffffffffffffffffffffff16021790555083600581905550826006819055508160008190555080600a60016101000a81548173ffffffffffffffffffffffffffffffffffffffff021916908373ffffffffffffffffffffffffffffffffffffffff1602179055505050505050505050610dd4806102406000396000f3fe608060405234801561001057600080fd5b50600436106101005760003560e01c8063ab04010711610097578063e36db78511610066578063e36db785146102dd578063e5a5159814610327578063f2978d0b1461034b578063fa2040d71461036957610100565b8063ab04010714610275578063b8db04b51461027f578063cb07312c146102a1578063cc1d8cbc146102bf57610100565b80633ba0b9a9116100d35780633ba0b9a9146101955780635922b857146101b35780635cb85cd2146101fd5780639cb64a2d1461022b57610100565b806312424e3f14610105578063310a1ee31461010f578063327134f41461012d578063378ded5d14610177575b600080fd5b61010d6103b3565b005b610117610755565b6040518082815260200191505060405180910390f35b61013561075b565b604051808273ffffffffffffffffffffffffffffffffffffffff1673ffffffffffffffffffffffffffffffffffffffff16815260200191505060405180910390f35b61017f610781565b6040518082815260200191505060405180910390f35b61019d610787565b6040518082815260200191505060405180910390f35b6101bb61078d565b604051808273ffffffffffffffffffffffffffffffffffffffff1673ffffffffffffffffffffffffffffffffffffffff16815260200191505060405180910390f35b6102296004803603602081101561021357600080fd5b81019080803590602001909291905050506107b3565b005b610233610817565b604051808273ffffffffffffffffffffffffffffffffffffffff1673ffffffffffffffffffffffffffffffffffffffff16815260200191505060405180910390f35b61027d61083d565b005b610287610d24565b604051808215151515815260200191505060405180910390f35b6102a9610d37565b6040518082815260200191505060405180910390f35b6102c7610d3d565b6040518082815260200191505060405180910390f35b6102e5610d43565b604051808273ffffffffffffffffffffffffffffffffffffffff1673ffffffffffffffffffffffffffffffffffffffff16815260200191505060405180910390f35b61032f610d69565b604051808260ff1660ff16815260200191505060405180910390f35b610353610d7c565b6040518082815260200191505060405180910390f35b610371610d82565b604051808273ffffffffffffffffffffffffffffffffffffffff1673ffffffffffffffffffffffffffffffffffffffff16815260200191505060405180910390f35b600260009054906101000a900473ffffffffffffffffffffffffffffffffffffffff1673ffffffffffffffffffffffffffffffffffffffff163373ffffffffffffffffffffffffffffffffffffffff16148061045c5750600360009054906101000a900473ffffffffffffffffffffffffffffffffffffffff1673ffffffffffffffffffffffffffffffffffffffff163373ffffffffffffffffffffffffffffffffffffffff16145b806104b45750600460009054906101000a900473ffffffffffffffffffffffffffffffffffffffff1673ffffffffffffffffffffffffffffffffffffffff163373ffffffffffffffffffffffffffffffffffffffff16145b610526576040517f08c379a00000000000000000000000000000000000000000000000000000000081526004018080602001828103825260028152602001807f313700000000000000000000000000000000000000000000000000000000000081525060200191505060405180910390fd5b600260009054906101000a900473ffffffffffffffffffffffffffffffffffffffff1673ffffffffffffffffffffffffffffffffffffffff163373ffffffffffffffffffffffffffffffffffffffff1614801561058557506000600754145b156105c557600a600081819054906101000a900460ff168092919060010191906101000a81548160ff021916908360ff1602179055505060016007819055505b600360009054906101000a900473ffffffffffffffffffffffffffffffffffffffff1673ffffffffffffffffffffffffffffffffffffffff163373ffffffffffffffffffffffffffffffffffffffff1614801561062457506000600854145b1561066457600a600081819054906101000a900460ff168092919060010191906101000a81548160ff021916908360ff1602179055505060016008819055505b600460009054906101000a900473ffffffffffffffffffffffffffffffffffffffff1673ffffffffffffffffffffffffffffffffffffffff163373ffffffffffffffffffffffffffffffffffffffff161480156106c357506000600954145b1561070357600a600081819054906101000a900460ff168092919060010191906101000a81548160ff021916908360ff1602179055505060016009819055505b600a60159054906101000a900460ff1615801561073257506004600a60009054906101000a900460ff1660ff16145b15610753576001600a60156101000a81548160ff0219169083151502179055505b565b60005481565b600460009054906101000a900473ffffffffffffffffffffffffffffffffffffffff1681565b60095481565b60065481565b600360009054906101000a900473ffffffffffffffffffffffffffffffffffffffff1681565b600a60019054906101000a900473ffffffffffffffffffffffffffffffffffffffff1673ffffffffffffffffffffffffffffffffffffffff163373ffffffffffffffffffffffffffffffffffffffff161461080d57600080fd5b8060058190555050565b600160009054906101000a900473ffffffffffffffffffffffffffffffffffffffff1681565b600260009054906101000a900473ffffffffffffffffffffffffffffffffffffffff1673ffffffffffffffffffffffffffffffffffffffff163373ffffffffffffffffffffffffffffffffffffffff1614806108e65750600360009054906101000a900473ffffffffffffffffffffffffffffffffffffffff1673ffffffffffffffffffffffffffffffffffffffff163373ffffffffffffffffffffffffffffffffffffffff16145b8061093e5750600460009054906101000a900473ffffffffffffffffffffffffffffffffffffffff1673ffffffffffffffffffffffffffffffffffffffff163373ffffffffffffffffffffffffffffffffffffffff16145b6109b0576040517f08c379a00000000000000000000000000000000000000000000000000000000081526004018080602001828103825260028152602001807f313700000000000000000000000000000000000000000000000000000000000081525060200191505060405180910390fd5b600260009054906101000a900473ffffffffffffffffffffffffffffffffffffffff1673ffffffffffffffffffffffffffffffffffffffff163373ffffffffffffffffffffffffffffffffffffffff16148015610a0f57506000600754145b15610ad6576002600781905550600a60019054906101000a900473ffffffffffffffffffffffffffffffffffffffff1673ffffffffffffffffffffffffffffffffffffffff166317dc773c306040518263ffffffff1660e01b8152600401808273ffffffffffffffffffffffffffffffffffffffff1673ffffffffffffffffffffffffffffffffffffffff168152602001915050600060405180830381600087803b158015610abd57600080fd5b505af1158015610ad1573d6000803e3d6000fd5b505050505b600360009054906101000a900473ffffffffffffffffffffffffffffffffffffffff1673ffffffffffffffffffffffffffffffffffffffff163373ffffffffffffffffffffffffffffffffffffffff16148015610b3557506000600854145b15610bfc576002600881905550600a60019054906101000a900473ffffffffffffffffffffffffffffffffffffffff1673ffffffffffffffffffffffffffffffffffffffff166317dc773c306040518263ffffffff1660e01b8152600401808273ffffffffffffffffffffffffffffffffffffffff1673ffffffffffffffffffffffffffffffffffffffff168152602001915050600060405180830381600087803b158015610be357600080fd5b505af1158015610bf7573d6000803e3d6000fd5b505050505b600460009054906101000a900473ffffffffffffffffffffffffffffffffffffffff1673ffffffffffffffffffffffffffffffffffffffff163373ffffffffffffffffffffffffffffffffffffffff16148015610c5b57506000600954145b15610d22576002600981905550600a60019054906101000a900473ffffffffffffffffffffffffffffffffffffffff1673ffffffffffffffffffffffffffffffffffffffff166317dc773c306040518263ffffffff1660e01b8152600401808273ffffffffffffffffffffffffffffffffffffffff1673ffffffffffffffffffffffffffffffffffffffff168152602001915050600060405180830381600087803b158015610d0957600080fd5b505af1158015610d1d573d6000803e3d6000fd5b505050505b565b600a60159054906101000a900460ff1681565b60085481565b60075481565b600260009054906101000a900473ffffffffffffffffffffffffffffffffffffffff1681565b600a60009054906101000a900460ff1681565b60055481565b600a60019054906101000a900473ffffffffffffffffffffffffffffffffffffffff168156fea165627a7a72305820e43b5bec60cd18df44f5f1013b554506f266fd7ca68a792270aad16b995dc7b30029a165627a7a723058200de9301db4612f87979a79a110103336152c24012679b72f0f7036150476d9b40029608060405234801561001057600080fd5b506115e2806100206000396000f3fe608060405234801561001057600080fd5b506004361061002b5760003560e01c8063424becc314610030575b600080fd5b610106600480360360e081101561004657600080fd5b81019080803573ffffffffffffffffffffffffffffffffffffffff169060200190929190803573ffffffffffffffffffffffffffffffffffffffff169060200190929190803573ffffffffffffffffffffffffffffffffffffffff169060200190929190803573ffffffffffffffffffffffffffffffffffffffff1690602001909291908035906020019092919080359060200190929190803573ffffffffffffffffffffffffffffffffffffffff169060200190929190505050610148565b604051808273ffffffffffffffffffffffffffffffffffffffff1673ffffffffffffffffffffffffffffffffffffffff16815260200191505060405180910390f35b60008787878787878760405161015d90610297565b808873ffffffffffffffffffffffffffffffffffffffff1673ffffffffffffffffffffffffffffffffffffffff1681526020018773ffffffffffffffffffffffffffffffffffffffff1673ffffffffffffffffffffffffffffffffffffffff1681526020018673ffffffffffffffffffffffffffffffffffffffff1673ffffffffffffffffffffffffffffffffffffffff1681526020018573ffffffffffffffffffffffffffffffffffffffff1673ffffffffffffffffffffffffffffffffffffffff1681526020018481526020018381526020018273ffffffffffffffffffffffffffffffffffffffff1673ffffffffffffffffffffffffffffffffffffffff168152602001975050505050505050604051809103906000f080158015610289573d6000803e3d6000fd5b509050979650505050505050565b611312806102a58339019056fe608060405260016000806101000a81548160ff021916908360ff1602179055506000600b60146101000a81548160ff02191690831515021790555034801561004657600080fd5b5060405160e080611312833981018060405260e081101561006657600080fd5b810190808051906020019092919080519060200190929190805190602001909291908051906020019092919080519060200190929190805190602001909291908051906020019092919050505086600460006101000a81548173ffffffffffffffffffffffffffffffffffffffff021916908373ffffffffffffffffffffffffffffffffffffffff16021790555085600560006101000a81548173ffffffffffffffffffffffffffffffffffffffff021916908373ffffffffffffffffffffffffffffffffffffffff16021790555084600660006101000a81548173ffffffffffffffffffffffffffffffffffffffff021916908373ffffffffffffffffffffffffffffffffffffffff16021790555083600760006101000a81548173ffffffffffffffffffffffffffffffffffffffff021916908373ffffffffffffffffffffffffffffffffffffffff160217905550826009819055508160088190555080600b60006101000a81548173ffffffffffffffffffffffffffffffffffffffff021916908373ffffffffffffffffffffffffffffffffffffffff160217905550505050505050506110f68061021c6000396000f3fe608060405234801561001057600080fd5b50600436106101005760003560e01c806367cbdde011610097578063ab04010711610066578063ab04010714610319578063b8db04b514610323578063e5a5159814610345578063fa2040d71461036957610100565b806367cbdde014610265578063710e5d2f14610283578063844e329f146102b1578063a9a56af3146102fb57610100565b8063452bd98b116100d3578063452bd98b146101955780634ddf8492146101b3578063507c5fed146101d15780635dcc94291461021b57610100565b806301f59d161461010557806312424e3f146101235780632b8f92291461012d5780633cbb10fa1461014b575b600080fd5b61010d6103b3565b6040518082815260200191505060405180910390f35b61012b6103b9565b005b610135610871565b6040518082815260200191505060405180910390f35b610153610877565b604051808273ffffffffffffffffffffffffffffffffffffffff1673ffffffffffffffffffffffffffffffffffffffff16815260200191505060405180910390f35b61019d61089d565b6040518082815260200191505060405180910390f35b6101bb6108a3565b6040518082815260200191505060405180910390f35b6101d96108a9565b604051808273ffffffffffffffffffffffffffffffffffffffff1673ffffffffffffffffffffffffffffffffffffffff16815260200191505060405180910390f35b6102236108cf565b604051808273ffffffffffffffffffffffffffffffffffffffff1673ffffffffffffffffffffffffffffffffffffffff16815260200191505060405180910390f35b61026d6108f5565b6040518082815260200191505060405180910390f35b6102af6004803603602081101561029957600080fd5b81019080803590602001909291905050506108fb565b005b6102b9610b0b565b604051808273ffffffffffffffffffffffffffffffffffffffff1673ffffffffffffffffffffffffffffffffffffffff16815260200191505060405180910390f35b610303610b31565b6040518082815260200191505060405180910390f35b610321610b37565b005b61032b61107f565b604051808215151515815260200191505060405180910390f35b61034d611092565b604051808260ff1660ff16815260200191505060405180910390f35b6103716110a4565b604051808273ffffffffffffffffffffffffffffffffffffffff1673ffffffffffffffffffffffffffffffffffffffff16815260200191505060405180910390f35b600a5481565b600460009054906101000a900473ffffffffffffffffffffffffffffffffffffffff1673ffffffffffffffffffffffffffffffffffffffff163373ffffffffffffffffffffffffffffffffffffffff1614806104625750600560009054906101000a900473ffffffffffffffffffffffffffffffffffffffff1673ffffffffffffffffffffffffffffffffffffffff163373ffffffffffffffffffffffffffffffffffffffff16145b806104ba5750600660009054906101000a900473ffffffffffffffffffffffffffffffffffffffff1673ffffffffffffffffffffffffffffffffffffffff163373ffffffffffffffffffffffffffffffffffffffff16145b806105125750600760009054906101000a900473ffffffffffffffffffffffffffffffffffffffff1673ffffffffffffffffffffffffffffffffffffffff163373ffffffffffffffffffffffffffffffffffffffff16145b610584576040517f08c379a00000000000000000000000000000000000000000000000000000000081526004018080602001828103825260028152602001807f313900000000000000000000000000000000000000000000000000000000000081525060200191505060405180910390fd5b600560009054906101000a900473ffffffffffffffffffffffffffffffffffffffff1673ffffffffffffffffffffffffffffffffffffffff163373ffffffffffffffffffffffffffffffffffffffff161480156105e357506000600154145b15610625576001808190555060008081819054906101000a900460ff168092919060010191906101000a81548160ff021916908360ff16021790555050610767565b600660009054906101000a900473ffffffffffffffffffffffffffffffffffffffff1673ffffffffffffffffffffffffffffffffffffffff163373ffffffffffffffffffffffffffffffffffffffff1614801561068457506000600254145b156106c757600160028190555060008081819054906101000a900460ff168092919060010191906101000a81548160ff021916908360ff16021790555050610766565b600760009054906101000a900473ffffffffffffffffffffffffffffffffffffffff1673ffffffffffffffffffffffffffffffffffffffff163373ffffffffffffffffffffffffffffffffffffffff1614801561072657506000600354145b1561076557600160038190555060008081819054906101000a900460ff168092919060010191906101000a81548160ff021916908360ff160217905550505b5b5b600b60149054906101000a900460ff16158015610795575060046000809054906101000a900460ff1660ff16145b1561086f576001600b60146101000a81548160ff021916908315150217905550600b60009054906101000a900473ffffffffffffffffffffffffffffffffffffffff1673ffffffffffffffffffffffffffffffffffffffff1663ce55d026306040518263ffffffff1660e01b8152600401808273ffffffffffffffffffffffffffffffffffffffff1673ffffffffffffffffffffffffffffffffffffffff168152602001915050600060405180830381600087803b15801561085657600080fd5b505af115801561086a573d6000803e3d6000fd5b505050505b565b60035481565b600560009054906101000a900473ffffffffffffffffffffffffffffffffffffffff1681565b60015481565b60085481565b600460009054906101000a900473ffffffffffffffffffffffffffffffffffffffff1681565b600660009054906101000a900473ffffffffffffffffffffffffffffffffffffffff1681565b60095481565b600460009054906101000a900473ffffffffffffffffffffffffffffffffffffffff1673ffffffffffffffffffffffffffffffffffffffff163273ffffffffffffffffffffffffffffffffffffffff161461095557600080fd5b600b60009054906101000a900473ffffffffffffffffffffffffffffffffffffffff1673ffffffffffffffffffffffffffffffffffffffff163373ffffffffffffffffffffffffffffffffffffffff16146109af57600080fd5b6001600b60009054906101000a900473ffffffffffffffffffffffffffffffffffffffff1673ffffffffffffffffffffffffffffffffffffffff1663c94d5ec3306040518263ffffffff1660e01b8152600401808273ffffffffffffffffffffffffffffffffffffffff1673ffffffffffffffffffffffffffffffffffffffff16815260200191505060206040518083038186803b158015610a5057600080fd5b505afa158015610a64573d6000803e3d6000fd5b505050506040513d6020811015610a7a57600080fd5b810190808051906020019092919050505060ff1614610b01576040517f08c379a00000000000000000000000000000000000000000000000000000000081526004018080602001828103825260018152602001807f390000000000000000000000000000000000000000000000000000000000000081525060200191505060405180910390fd5b80600a8190555050565b600760009054906101000a900473ffffffffffffffffffffffffffffffffffffffff1681565b60025481565b600460009054906101000a900473ffffffffffffffffffffffffffffffffffffffff1673ffffffffffffffffffffffffffffffffffffffff163373ffffffffffffffffffffffffffffffffffffffff161480610be05750600560009054906101000a900473ffffffffffffffffffffffffffffffffffffffff1673ffffffffffffffffffffffffffffffffffffffff163373ffffffffffffffffffffffffffffffffffffffff16145b80610c385750600660009054906101000a900473ffffffffffffffffffffffffffffffffffffffff1673ffffffffffffffffffffffffffffffffffffffff163373ffffffffffffffffffffffffffffffffffffffff16145b80610c905750600760009054906101000a900473ffffffffffffffffffffffffffffffffffffffff1673ffffffffffffffffffffffffffffffffffffffff163373ffffffffffffffffffffffffffffffffffffffff16145b610d02576040517f08c379a00000000000000000000000000000000000000000000000000000000081526004018080602001828103825260028152602001807f313900000000000000000000000000000000000000000000000000000000000081525060200191505060405180910390fd5b600560009054906101000a900473ffffffffffffffffffffffffffffffffffffffff1673ffffffffffffffffffffffffffffffffffffffff163373ffffffffffffffffffffffffffffffffffffffff16148015610d6157506000600154145b15610e2c576002600181905550600b60009054906101000a900473ffffffffffffffffffffffffffffffffffffffff1673ffffffffffffffffffffffffffffffffffffffff16638bd06b3f306040518263ffffffff1660e01b8152600401808273ffffffffffffffffffffffffffffffffffffffff1673ffffffffffffffffffffffffffffffffffffffff168152602001915050600060405180830381600087803b158015610e0f57600080fd5b505af1158015610e23573d6000803e3d6000fd5b5050505061107d565b600660009054906101000a900473ffffffffffffffffffffffffffffffffffffffff1673ffffffffffffffffffffffffffffffffffffffff163373ffffffffffffffffffffffffffffffffffffffff16148015610e8b57506000600254145b15610f555760028081905550600b60009054906101000a900473ffffffffffffffffffffffffffffffffffffffff1673ffffffffffffffffffffffffffffffffffffffff16638bd06b3f306040518263ffffffff1660e01b8152600401808273ffffffffffffffffffffffffffffffffffffffff1673ffffffffffffffffffffffffffffffffffffffff168152602001915050600060405180830381600087803b158015610f3857600080fd5b505af1158015610f4c573d6000803e3d6000fd5b5050505061107c565b600760009054906101000a900473ffffffffffffffffffffffffffffffffffffffff1673ffffffffffffffffffffffffffffffffffffffff163373ffffffffffffffffffffffffffffffffffffffff16148015610fb457506000600254145b1561107b576002600381905550600b60009054906101000a900473ffffffffffffffffffffffffffffffffffffffff1673ffffffffffffffffffffffffffffffffffffffff16638bd06b3f306040518263ffffffff1660e01b8152600401808273ffffffffffffffffffffffffffffffffffffffff1673ffffffffffffffffffffffffffffffffffffffff168152602001915050600060405180830381600087803b15801561106257600080fd5b505af1158015611076573d6000803e3d6000fd5b505050505b5b5b565b600b60149054906101000a900460ff1681565b6000809054906101000a900460ff1681565b600b60009054906101000a900473ffffffffffffffffffffffffffffffffffffffff168156fea165627a7a723058203fb502dcea1e1f59c7dab342ca8a7fd656fe041c1c9cc7d2ea25ab188c715bdf0029a165627a7a72305820591f30fcdb011980adfcd1c857706afb08c3f1c9cdcd78dc3c4350b79ef15d3e0029608060405234801561001057600080fd5b5061027f806100206000396000f3fe608060405234801561001057600080fd5b506004361061002b5760003560e01c8063efc81a8c14610030575b600080fd5b61003861007a565b604051808273ffffffffffffffffffffffffffffffffffffffff1673ffffffffffffffffffffffffffffffffffffffff16815260200191505060405180910390f35b6000604051610088906100aa565b604051809103906000f0801580156100a4573d6000803e3d6000fd5b50905090565b61019c806100b88339019056fe608060405234801561001057600080fd5b5061017c806100206000396000f3fe608060405234801561001057600080fd5b506004361061002b5760003560e01c80639792bc0e14610030575b600080fd5b61005c6004803603602081101561004657600080fd5b8101908080359060200190929190505050610072565b6040518082815260200191505060405180910390f35b6000620f42408212156100995762d2ced261009183620f4240026100aa565b0390506100a5565b6100a2826100aa565b90505b919050565b600080600090505b6216e36083126100d95762062fd981019050600360028402816100d157fe5b0592506100b2565b620f42408303925060008390506000600190505b600a811215610145578082816100ff57fe5b0583019250600181019050620f42408583028161011857fe5b05915080828161012457fe5b0583039250600181019050620f42408583028161013d57fe5b0591506100ed565b82935050505091905056fea165627a7a72305820e35be4d89d6273bbc4763687aa7c237b7f7044acf3462964b403b5ab657d77180029a165627a7a7230582030c24592df0807915d41a1c4677b16d6a6466919a163a02ba144e1f1f5d9b4430029",
  "source": "pragma solidity ^ 0.5.0;\nimport \"./Agreement.sol\";\nimport \"./Transaction.sol\";\nimport \"./SafeMath.sol\";\nimport \"./Graph.sol\";\nimport \"./MainGraph.sol\";\nimport \"./AgreementFactory.sol\";\nimport \"./Transaction Factory.sol\";\nimport \"./Tools.sol\";\nimport \"./ToolFactory.sol\";\ncontract Netereum\n{\n    using SafeMath for uint256;\n    int256 public constant MAX_INT = int256(~(uint256(1) << 255));\n    uint256 constant MAX_UINT = ~uint256(0);\n    address owner;\n    MainGraph mainGraph;\n    AgreementFactory aFactory;\n    TransactionFactory tFactory;\n    ToolFactory toolFactory;\n    Tools tool;\n    constructor(/*AgreementFactory _aFactory,TransactionFactory tFactory,ToolFactory toolFactory*/) public\n    {\n        owner = msg.sender;\n        //aFactory = _aFactory;\n        aFactory = new AgreementFactory();\n        tFactory = new TransactionFactory();\n        toolFactory = new ToolFactory();\n        tool = toolFactory.create();\n    }\n    function setMainGraph(address mainGraphAddress) public\n    {\n        require(msg.sender == owner);\n        mainGraph = MainGraph(address (mainGraphAddress));\n    }\n    //uint256 barterTime = 15669098070;\n    address[] confirmedCoordinators;\n    mapping(address => bool) isCoordinatorInserted;\n    mapping(address => Transaction) createdTransactions;// these are all the transactions that have been created\n    mapping(address => uint8) public transactionsStatus;// 0: not created  1:created 2: pending 3:added\n    mapping(address => Agreement) createdAgreements;// these are all the Agreements that have been created\n    mapping(address => uint8) agreementsStatus;// 0: not created 1:offered 2:pending 3:expired 4:declined 5:altering\n    //mapping(address => bool) agreementExists;// this mapping shows if an agreement with a specific address has been created or not\n    //mapping(address => bool) isAgreementAdded;// this mapping shows if an agreement has been added to the final agreements(for preventing that an agreement is added multiple times)\n    Transaction[] public transactions;// These are the finalized transaction\n    Agreement[] public agreements;//These are the finalized agreements QUESTION: SHOULD THESE TWO BE MAPS OR ARRAYS?\n    mapping(address => uint256) transactionsExpireTime;\n    uint256 public numberOfCreatedTransactions = 0;\n    uint256 public numberOfCreatedAgreements = 0;\n    uint256 public numberOfTransactions = 0;\n    uint256 public numberOfAgreements = 0;\n    uint256 public numberOfCoordinators = 0;\n    uint256 public numberOfPaymentMessages = 0;\n\n//    event coordinatorAdded(address coordinator,bool added);\n//    event agreementCreated(address agreement);\n//    event transactionCreated(address transaction);\n//    event transactionAdded(address transaction, bool added);\n    function addCoordinator(address coordinator) public\n        // adding a coordinator to the list of valid coordinators\n    {\n        //require(msg.sender == owner);\n        if (!isCoordinatorInserted[coordinator])\n        {\n            //nodes[coordinator].coordinator = coordinator;\n            //nodes[coordinator].isInserted = true;\n            confirmedCoordinators.push(coordinator);\n            isCoordinatorInserted[coordinator] = true;\n            numberOfCoordinators++;\n            mainGraph.addNode(coordinator);\n            //emit coordinatorAdded(coordinator,true);\n        }\n        //emit coordinatorAdded(coordinator,false);\n    }\n\n    function createAgreement(address _debtor, address _creditor,\n        address _debtorCoordinator, address _creditorCoordinator,\n        uint256 _debtorCost, uint256 _exchangeRate ,uint256 _expireTime,address agreementAddress)/*if the last field isn't 0, then this means that an agreement\n        that has already been submitted needs to be change*/\n    public returns(address)\n    {\n        uint256 cost = 0;\n        if(agreementAddress == address(0))\n        {\n            //require(msg.sender == _debtor, \"2\");\n            require(isCoordinatorInserted[_debtorCoordinator] == true, \"3\");\n            require(isCoordinatorInserted[_creditorCoordinator] == true, \"4\");\n            require(_expireTime > block.timestamp,\"5\");\n            cost = _debtorCost;\n        }\n        else\n        {\n            require(agreementsStatus[agreementAddress] == 2, \"21\");\n            //require(msg.sender == createdAgreements[agreementAddress].debtor(), \"2\");\n            agreementsStatus[agreementAddress] = 5;// altering\n            cost = mainGraph.wrappedRemoveEdge(0,0,agreementAddress,1);\n            require(cost> 0,\"26\");\n        }\n        require(_exchangeRate < uint256 (MAX_INT/2) && _exchangeRate > 0 ,\"24\");\n        require(cost < (MAX_UINT / 1000000));\n        //require(cost < (MAX_UINT / _exchangeRate));\n        Agreement newAgreement = aFactory.create(\n            _debtor, _creditor, _debtorCoordinator, _creditorCoordinator,\n            cost,_exchangeRate,_expireTime,address (this)\n        );\n        address newAgreementAddress = address(newAgreement);\n        numberOfCreatedAgreements++;\n        createdAgreements[newAgreementAddress] = newAgreement;\n        agreementsStatus[newAgreementAddress] = 1;//offered\n        if(cost > 0 && agreementAddress != address (0))\n            agreementsStatus[agreementAddress] = 2;// pending\n        //emit agreementCreated(newAgreementAddress);\n        return newAgreementAddress;\n    }\n    function addAgreement(address agreementAddress)\n    external\n    {\n        require(agreementsStatus[agreementAddress] == 1, \"6\");\n        require(createdAgreements[agreementAddress].expireTime() > block.timestamp,\"5\");\n        //require(createdAgreements[agreementAddress].counterPermission() == 4, \"7 \");\n        agreementsStatus[agreementAddress] = 2;// pending\n        agreements.push(Agreement(address(agreementAddress)));\n        numberOfAgreements++;\n        mainGraph.wrappedAddEdge(createdAgreements[agreementAddress].creditorCoordinator(), createdAgreements[agreementAddress].debtorCoordinator(),\n        createdAgreements[agreementAddress].exchangeRate(),tool.logarithm(int256(createdAgreements[agreementAddress].exchangeRate())),0,\n        createdAgreements[agreementAddress].debtorCost() ,address(agreementAddress));\n    }\n    function createTransaction(address _buyer, address _seller,\n        address _buyerCoordinator, address _sellerCoordinator,\n        uint256 _buyerCost, uint256 _sellerCost) external returns(address)\n    {\n        //require(msg.sender == _buyer, \"8\");\n        require(isCoordinatorInserted[_buyerCoordinator] == true, \"3\");\n        require(isCoordinatorInserted[_sellerCoordinator] == true, \"4\");\n        Transaction newTransaction =  tFactory.create(_buyer, _seller, _buyerCoordinator, _sellerCoordinator,\n            _buyerCost, _sellerCost,address (this));\n        address newTransactionAddress = address(newTransaction);\n        createdTransactions[newTransactionAddress] = newTransaction;\n        transactionsStatus[newTransactionAddress] = 1;// created\n        //emit transactionCreated(addr);\n        return newTransactionAddress;\n    }\n    /* When a customer is trying to execute a transaction, the parameters of the transaction are first sent to the Create transaction function which\n       creates a transaction and returns the address of that transaction. then when all sides have given permission, then he transaction will be able to\n       be sent to the do transaction function. if the transactions buyerCost is less than the buyerCost that the system can handle with its current state,\n       the transaction will be added to the mapping \"transactions\" and can be executed by the coordinators. */\n    uint256 public xy;\n    function doTransaction(address addr) external\n    {\n        require(transactionsStatus[addr] == 1, \"11\");\n        //require(createdTransactions[addr].counterPermission() == 4, \"12\");\n        transactionsStatus[addr] = 2; //pending\n        bool returnBool;\n        uint256 returnFund;\n        (returnBool,returnFund) = mainGraph.maxFund(createdTransactions[addr].receiverCoordinator(),\n            createdTransactions[addr].senderCoordinator(),\n            createdTransactions[addr].receiverAmount(),\n            createdTransactions[addr].senderAmount() ,false);\n        xy = returnFund;\n        if (returnBool = true)\n        {\n            transactionsStatus[addr] = 3;\n            transactions.push(Transaction(address(addr)));\n            numberOfTransactions ++;\n            //emit transactionAdded(addr,true);\n        }\n        else\n        {\n            transactionsStatus[addr] = 1;\n            //emit transactionAdded(addr,false);\n        }\n    }\n//    function approximateMaxFee(address _buyerCoordinator, address _sellerCoordinator,\n//        uint256 _sellerCost) public returns(uint256)\n//    {\n////        require(nodes[_buyerCoordinator].isInserted == true, \"3\");\n////        require(nodes[_sellerCoordinator].isInserted == true, \"4\");\n//        bool temp;\n//        uint256 returnValue;\n//        (temp,returnValue) = maxFund(_buyerCoordinator,_sellerCoordinator,0, _sellerCost,true);\n//        return returnValue;\n//    }\n\n    function createAndAddPaymentMessage(address _receiver, uint256 _destination, uint256 _amount) public\n    {\n        //        require\n//        PaymentMessage newPaymentMessage = pFactory.create(_receiver, _destination, _amount);\n//        address addr = address(newPaymentMessage);\n//        paymentMessagesAddress.push(addr);\n//        paymentMessages.push(newPaymentMessage);\n        numberOfPaymentMessages++;\n//        emit paymentMessageCreated(addr);\n    }\n\n    //my functions\n    function declineAgreement(address agreementAddress) public {\n        require(agreementsStatus[agreementAddress] == 1, \"14\");\n        require(msg.sender == agreementAddress);\n        agreementsStatus[agreementAddress] = 4;\n    }\n\n    function declineTransaction(address transactionAddress) public {\n        require(transactionsStatus[transactionAddress] == 1, \"18\");\n        require(msg.sender == transactionAddress);\n        transactionsStatus[transactionAddress] = 4;\n    }\n}",
  "sourcePath": "/home/momi/WebstormProjects/Netereum/contracts/Netereum.sol",
  "compiler": {
    "name": "solc",
    "version": "0.5.8+commit.23d335f2.Emscripten.clang"
  },
  "schemaVersion": "3.0.16",
  "updatedAt": "2019-11-04T09:45:04.647Z",
  "devdoc": {
    "methods": {}
  },
  "userdoc": {
    "methods": {
      "createAndAddPaymentMessage(address,uint256,uint256)": {
        "notice": "/        require(nodes[_buyerCoordinator].isInserted == true, \"3\"); /        require(nodes[_sellerCoordinator].isInserted == true, \"4\");"
      }
    }
  }
}