{
  "contractName": "Netereum",
  "abi": [
    {
      "constant": true,
      "inputs": [],
      "name": "MAX_INT",
      "outputs": [
        {
          "name": "",
          "type": "int256"
        }
      ],
      "payable": false,
      "stateMutability": "view",
      "type": "function"
    },
    {
      "constant": true,
      "inputs": [
        {
          "name": "",
          "type": "address"
        }
      ],
      "name": "agreementsStatus",
      "outputs": [
        {
          "name": "",
          "type": "uint8"
        }
      ],
      "payable": false,
      "stateMutability": "view",
      "type": "function"
    },
    {
      "constant": true,
      "inputs": [],
      "name": "numberOfCoordinators",
      "outputs": [
        {
          "name": "",
          "type": "uint256"
        }
      ],
      "payable": false,
      "stateMutability": "view",
      "type": "function"
    },
    {
      "constant": true,
      "inputs": [
        {
          "name": "",
          "type": "uint256"
        }
      ],
      "name": "createdAgreementsAddress",
      "outputs": [
        {
          "name": "",
          "type": "address"
        }
      ],
      "payable": false,
      "stateMutability": "view",
      "type": "function"
    },
    {
      "constant": true,
      "inputs": [],
      "name": "xy",
      "outputs": [
        {
          "name": "",
          "type": "uint256"
        }
      ],
      "payable": false,
      "stateMutability": "view",
      "type": "function"
    },
    {
      "constant": true,
      "inputs": [],
      "name": "numberOfAgreements",
      "outputs": [
        {
          "name": "",
          "type": "uint256"
        }
      ],
      "payable": false,
      "stateMutability": "view",
      "type": "function"
    },
    {
      "constant": true,
      "inputs": [],
      "name": "numberOfCreatedAgreements",
      "outputs": [
        {
          "name": "",
          "type": "uint256"
        }
      ],
      "payable": false,
      "stateMutability": "view",
      "type": "function"
    },
    {
      "constant": true,
      "inputs": [
        {
          "name": "",
          "type": "uint256"
        }
      ],
      "name": "transactions",
      "outputs": [
        {
          "name": "",
          "type": "address"
        }
      ],
      "payable": false,
      "stateMutability": "view",
      "type": "function"
    },
    {
      "constant": true,
      "inputs": [],
      "name": "numberOfCreatedTransactions",
      "outputs": [
        {
          "name": "",
          "type": "uint256"
        }
      ],
      "payable": false,
      "stateMutability": "view",
      "type": "function"
    },
    {
      "constant": true,
      "inputs": [
        {
          "name": "",
          "type": "uint256"
        }
      ],
      "name": "agreements",
      "outputs": [
        {
          "name": "",
          "type": "address"
        }
      ],
      "payable": false,
      "stateMutability": "view",
      "type": "function"
    },
    {
      "constant": true,
      "inputs": [
        {
          "name": "",
          "type": "address"
        }
      ],
      "name": "transactionsStatus",
      "outputs": [
        {
          "name": "",
          "type": "uint8"
        }
      ],
      "payable": false,
      "stateMutability": "view",
      "type": "function"
    },
    {
      "constant": true,
      "inputs": [
        {
          "name": "",
          "type": "uint256"
        }
      ],
      "name": "createdTransactionsAddress",
      "outputs": [
        {
          "name": "",
          "type": "address"
        }
      ],
      "payable": false,
      "stateMutability": "view",
      "type": "function"
    },
    {
      "constant": true,
      "inputs": [],
      "name": "numberOfTransactions",
      "outputs": [
        {
          "name": "",
          "type": "uint256"
        }
      ],
      "payable": false,
      "stateMutability": "view",
      "type": "function"
    },
    {
      "inputs": [],
      "payable": false,
      "stateMutability": "nonpayable",
      "type": "constructor"
    },
    {
      "constant": false,
      "inputs": [
        {
          "name": "mainGraphAddress",
          "type": "address"
        }
      ],
      "name": "setMainGraph",
      "outputs": [],
      "payable": false,
      "stateMutability": "nonpayable",
      "type": "function"
    },
    {
      "constant": false,
      "inputs": [
        {
          "name": "coordinator",
          "type": "address"
        }
      ],
      "name": "addCoordinator",
      "outputs": [],
      "payable": false,
      "stateMutability": "nonpayable",
      "type": "function"
    },
    {
      "constant": false,
      "inputs": [
        {
          "name": "_debtor",
          "type": "address"
        },
        {
          "name": "_creditor",
          "type": "address"
        },
        {
          "name": "_debtorCoordinator",
          "type": "address"
        },
        {
          "name": "_creditorCoordinator",
          "type": "address"
        },
        {
          "name": "_debtorCost",
          "type": "uint256"
        },
        {
          "name": "_exchangeRate",
          "type": "uint256"
        },
        {
          "name": "_expireTime",
          "type": "uint256"
        },
        {
          "name": "agreementAddress",
          "type": "address"
        }
      ],
      "name": "createAgreement",
      "outputs": [
        {
          "name": "",
          "type": "address"
        }
      ],
      "payable": false,
      "stateMutability": "nonpayable",
      "type": "function"
    },
    {
      "constant": false,
      "inputs": [
        {
          "name": "agreementAddress",
          "type": "address"
        }
      ],
      "name": "addAgreement",
      "outputs": [],
      "payable": false,
      "stateMutability": "nonpayable",
      "type": "function"
    },
    {
      "constant": false,
      "inputs": [
        {
          "name": "_buyer",
          "type": "address"
        },
        {
          "name": "_seller",
          "type": "address"
        },
        {
          "name": "_buyerCoordinator",
          "type": "address"
        },
        {
          "name": "_sellerCoordinator",
          "type": "address"
        },
        {
          "name": "_buyerCost",
          "type": "uint256"
        },
        {
          "name": "_sellerCost",
          "type": "uint256"
        }
      ],
      "name": "createTransaction",
      "outputs": [
        {
          "name": "",
          "type": "address"
        }
      ],
      "payable": false,
      "stateMutability": "nonpayable",
      "type": "function"
    },
    {
      "constant": false,
      "inputs": [
        {
          "name": "addr",
          "type": "address"
        }
      ],
      "name": "doTransaction",
      "outputs": [],
      "payable": false,
      "stateMutability": "nonpayable",
      "type": "function"
    },
    {
      "constant": false,
      "inputs": [
        {
          "name": "agreementAddress",
          "type": "address"
        }
      ],
      "name": "declineAgreement",
      "outputs": [],
      "payable": false,
      "stateMutability": "nonpayable",
      "type": "function"
    },
    {
      "constant": false,
      "inputs": [
        {
          "name": "transactionAddress",
          "type": "address"
        }
      ],
      "name": "declineTransaction",
      "outputs": [],
      "payable": false,
      "stateMutability": "nonpayable",
      "type": "function"
    }
  ],
  "bytecode": "0x6080604052600060115560006012556000601355600060145560006015553480156200002a57600080fd5b50336000806101000a81548173ffffffffffffffffffffffffffffffffffffffff021916908373ffffffffffffffffffffffffffffffffffffffff16021790555060405162000079906200029d565b604051809103906000f08015801562000096573d6000803e3d6000fd5b50600260006101000a81548173ffffffffffffffffffffffffffffffffffffffff021916908373ffffffffffffffffffffffffffffffffffffffff160217905550604051620000e590620002ab565b604051809103906000f08015801562000102573d6000803e3d6000fd5b50600360006101000a81548173ffffffffffffffffffffffffffffffffffffffff021916908373ffffffffffffffffffffffffffffffffffffffff1602179055506040516200015190620002b9565b604051809103906000f0801580156200016e573d6000803e3d6000fd5b50600460006101000a81548173ffffffffffffffffffffffffffffffffffffffff021916908373ffffffffffffffffffffffffffffffffffffffff160217905550600460009054906101000a900473ffffffffffffffffffffffffffffffffffffffff1673ffffffffffffffffffffffffffffffffffffffff1663efc81a8c6040518163ffffffff1660e01b8152600401602060405180830381600087803b1580156200021a57600080fd5b505af11580156200022f573d6000803e3d6000fd5b505050506040513d60208110156200024657600080fd5b8101908080519060200190929190505050600560006101000a81548173ffffffffffffffffffffffffffffffffffffffff021916908373ffffffffffffffffffffffffffffffffffffffff160217905550620002c7565b610fbb8062002dfc83390190565b6113dc8062003db783390190565b61029f806200519383390190565b612b2580620002d76000396000f3fe608060405234801561001057600080fd5b50600436106101375760003560e01c8063954e6993116100b8578063bd14de961161007c578063bd14de9614610655578063c94d5ec3146106c3578063ce55d02614610721578063e0ced5ed14610765578063f8d3afa4146107d3578063fbd6d77e146107f157610137565b8063954e69931461054957806398472ef9146105675780639ace38c214610585578063af695614146105f3578063bcc942071461061157610137565b806359e94965116100ff57806359e9496514610363578063680d14101461045b578063815005d314610479578063858d8d27146104e75780638bd06b3f1461050557610137565b8063098d32281461013c57806309fa423e1461015a57806317dc773c1461019e5780632f6a45d4146101e257806337c3252d14610305575b600080fd5b610144610835565b6040518082815260200191505060405180910390f35b61019c6004803603602081101561017057600080fd5b81019080803573ffffffffffffffffffffffffffffffffffffffff16906020019092919050505061083f565b005b6101e0600480360360208110156101b457600080fd5b81019080803573ffffffffffffffffffffffffffffffffffffffff169060200190929190505050611027565b005b6102c360048036036101008110156101f957600080fd5b81019080803573ffffffffffffffffffffffffffffffffffffffff169060200190929190803573ffffffffffffffffffffffffffffffffffffffff169060200190929190803573ffffffffffffffffffffffffffffffffffffffff169060200190929190803573ffffffffffffffffffffffffffffffffffffffff169060200190929190803590602001909291908035906020019092919080359060200190929190803573ffffffffffffffffffffffffffffffffffffffff169060200190929190505050611180565b604051808273ffffffffffffffffffffffffffffffffffffffff1673ffffffffffffffffffffffffffffffffffffffff16815260200191505060405180910390f35b6103476004803603602081101561031b57600080fd5b81019080803573ffffffffffffffffffffffffffffffffffffffff169060200190929190505050611a55565b604051808260ff1660ff16815260200191505060405180910390f35b610419600480360360c081101561037957600080fd5b81019080803573ffffffffffffffffffffffffffffffffffffffff169060200190929190803573ffffffffffffffffffffffffffffffffffffffff169060200190929190803573ffffffffffffffffffffffffffffffffffffffff169060200190929190803573ffffffffffffffffffffffffffffffffffffffff1690602001909291908035906020019092919080359060200190929190505050611a75565b604051808273ffffffffffffffffffffffffffffffffffffffff1673ffffffffffffffffffffffffffffffffffffffff16815260200191505060405180910390f35b610463611f26565b6040518082815260200191505060405180910390f35b6104a56004803603602081101561048f57600080fd5b8101908080359060200190929190505050611f2c565b604051808273ffffffffffffffffffffffffffffffffffffffff1673ffffffffffffffffffffffffffffffffffffffff16815260200191505060405180910390f35b6104ef611f68565b6040518082815260200191505060405180910390f35b6105476004803603602081101561051b57600080fd5b81019080803573ffffffffffffffffffffffffffffffffffffffff169060200190929190505050611f6e565b005b6105516120c7565b6040518082815260200191505060405180910390f35b61056f6120cd565b6040518082815260200191505060405180910390f35b6105b16004803603602081101561059b57600080fd5b81019080803590602001909291905050506120d3565b604051808273ffffffffffffffffffffffffffffffffffffffff1673ffffffffffffffffffffffffffffffffffffffff16815260200191505060405180910390f35b6105fb61210f565b6040518082815260200191505060405180910390f35b6106536004803603602081101561062757600080fd5b81019080803573ffffffffffffffffffffffffffffffffffffffff169060200190929190505050612115565b005b6106816004803603602081101561066b57600080fd5b8101908080359060200190929190505050612159565b604051808273ffffffffffffffffffffffffffffffffffffffff1673ffffffffffffffffffffffffffffffffffffffff16815260200191505060405180910390f35b610705600480360360208110156106d957600080fd5b81019080803573ffffffffffffffffffffffffffffffffffffffff169060200190929190505050612195565b604051808260ff1660ff16815260200191505060405180910390f35b6107636004803603602081101561073757600080fd5b81019080803573ffffffffffffffffffffffffffffffffffffffff1690602001909291905050506121b5565b005b6107916004803603602081101561077b57600080fd5b81019080803590602001909291905050506128d9565b604051808273ffffffffffffffffffffffffffffffffffffffff1673ffffffffffffffffffffffffffffffffffffffff16815260200191505060405180910390f35b6107db612915565b6040518082815260200191505060405180910390f35b6108336004803603602081101561080757600080fd5b81019080803573ffffffffffffffffffffffffffffffffffffffff16906020019092919050505061291b565b005b60ff6001901b1981565b6001600c60008373ffffffffffffffffffffffffffffffffffffffff1673ffffffffffffffffffffffffffffffffffffffff16815260200190815260200160002060009054906101000a900460ff1660ff1614610904576040517f08c379a00000000000000000000000000000000000000000000000000000000081526004018080602001828103825260018152602001807f360000000000000000000000000000000000000000000000000000000000000081525060200191505060405180910390fd5b6002600c60008373ffffffffffffffffffffffffffffffffffffffff1673ffffffffffffffffffffffffffffffffffffffff16815260200190815260200160002060006101000a81548160ff021916908360ff160217905550600f8190806001815401808255809150509060018203906000526020600020016000909192909190916101000a81548173ffffffffffffffffffffffffffffffffffffffff021916908373ffffffffffffffffffffffffffffffffffffffff16021790555050601460008154809291906001019190505550600160009054906101000a900473ffffffffffffffffffffffffffffffffffffffff1673ffffffffffffffffffffffffffffffffffffffff1663276fd357600b60008473ffffffffffffffffffffffffffffffffffffffff1673ffffffffffffffffffffffffffffffffffffffff16815260200190815260200160002060009054906101000a900473ffffffffffffffffffffffffffffffffffffffff1673ffffffffffffffffffffffffffffffffffffffff1663327134f46040518163ffffffff1660e01b815260040160206040518083038186803b158015610ab857600080fd5b505afa158015610acc573d6000803e3d6000fd5b505050506040513d6020811015610ae257600080fd5b8101908080519060200190929190505050600b60008573ffffffffffffffffffffffffffffffffffffffff1673ffffffffffffffffffffffffffffffffffffffff16815260200190815260200160002060009054906101000a900473ffffffffffffffffffffffffffffffffffffffff1673ffffffffffffffffffffffffffffffffffffffff16635922b8576040518163ffffffff1660e01b815260040160206040518083038186803b158015610b9857600080fd5b505afa158015610bac573d6000803e3d6000fd5b505050506040513d6020811015610bc257600080fd5b8101908080519060200190929190505050600b60008673ffffffffffffffffffffffffffffffffffffffff1673ffffffffffffffffffffffffffffffffffffffff16815260200190815260200160002060009054906101000a900473ffffffffffffffffffffffffffffffffffffffff1673ffffffffffffffffffffffffffffffffffffffff16633ba0b9a96040518163ffffffff1660e01b815260040160206040518083038186803b158015610c7857600080fd5b505afa158015610c8c573d6000803e3d6000fd5b505050506040513d6020811015610ca257600080fd5b8101908080519060200190929190505050600560009054906101000a900473ffffffffffffffffffffffffffffffffffffffff1673ffffffffffffffffffffffffffffffffffffffff16639792bc0e600b60008973ffffffffffffffffffffffffffffffffffffffff1673ffffffffffffffffffffffffffffffffffffffff16815260200190815260200160002060009054906101000a900473ffffffffffffffffffffffffffffffffffffffff1673ffffffffffffffffffffffffffffffffffffffff16633ba0b9a96040518163ffffffff1660e01b815260040160206040518083038186803b158015610d9657600080fd5b505afa158015610daa573d6000803e3d6000fd5b505050506040513d6020811015610dc057600080fd5b81019080805190602001909291905050506040518263ffffffff1660e01b815260040180828152602001915050602060405180830381600087803b158015610e0757600080fd5b505af1158015610e1b573d6000803e3d6000fd5b505050506040513d6020811015610e3157600080fd5b81019080805190602001909291905050506000600b60008973ffffffffffffffffffffffffffffffffffffffff1673ffffffffffffffffffffffffffffffffffffffff16815260200190815260200160002060009054906101000a900473ffffffffffffffffffffffffffffffffffffffff1673ffffffffffffffffffffffffffffffffffffffff1663f2978d0b6040518163ffffffff1660e01b815260040160206040518083038186803b158015610ee957600080fd5b505afa158015610efd573d6000803e3d6000fd5b505050506040513d6020811015610f1357600080fd5b8101908080519060200190929190505050886040518863ffffffff1660e01b8152600401808873ffffffffffffffffffffffffffffffffffffffff1673ffffffffffffffffffffffffffffffffffffffff1681526020018773ffffffffffffffffffffffffffffffffffffffff1673ffffffffffffffffffffffffffffffffffffffff1681526020018681526020018581526020018460ff1681526020018381526020018273ffffffffffffffffffffffffffffffffffffffff1673ffffffffffffffffffffffffffffffffffffffff168152602001975050505050505050600060405180830381600087803b15801561100c57600080fd5b505af1158015611020573d6000803e3d6000fd5b5050505050565b6001600c60008373ffffffffffffffffffffffffffffffffffffffff1673ffffffffffffffffffffffffffffffffffffffff16815260200190815260200160002060009054906101000a900460ff1660ff16146110ec576040517f08c379a00000000000000000000000000000000000000000000000000000000081526004018080602001828103825260028152602001807f313400000000000000000000000000000000000000000000000000000000000081525060200191505060405180910390fd5b8073ffffffffffffffffffffffffffffffffffffffff163373ffffffffffffffffffffffffffffffffffffffff161461112457600080fd5b6004600c60008373ffffffffffffffffffffffffffffffffffffffff1673ffffffffffffffffffffffffffffffffffffffff16815260200190815260200160002060006101000a81548160ff021916908360ff16021790555050565b60008060009050600073ffffffffffffffffffffffffffffffffffffffff168373ffffffffffffffffffffffffffffffffffffffff1614156113505760011515600760008a73ffffffffffffffffffffffffffffffffffffffff1673ffffffffffffffffffffffffffffffffffffffff16815260200190815260200160002060009054906101000a900460ff16151514611282576040517f08c379a00000000000000000000000000000000000000000000000000000000081526004018080602001828103825260018152602001807f330000000000000000000000000000000000000000000000000000000000000081525060200191505060405180910390fd5b60011515600760008973ffffffffffffffffffffffffffffffffffffffff1673ffffffffffffffffffffffffffffffffffffffff16815260200190815260200160002060009054906101000a900460ff16151514611348576040517f08c379a00000000000000000000000000000000000000000000000000000000081526004018080602001828103825260018152602001807f340000000000000000000000000000000000000000000000000000000000000081525060200191505060405180910390fd5b8590506115e0565b6002600c60008573ffffffffffffffffffffffffffffffffffffffff1673ffffffffffffffffffffffffffffffffffffffff16815260200190815260200160002060009054906101000a900460ff1660ff1614611415576040517f08c379a00000000000000000000000000000000000000000000000000000000081526004018080602001828103825260028152602001807f323100000000000000000000000000000000000000000000000000000000000081525060200191505060405180910390fd5b6005600c60008573ffffffffffffffffffffffffffffffffffffffff1673ffffffffffffffffffffffffffffffffffffffff16815260200190815260200160002060006101000a81548160ff021916908360ff160217905550600160009054906101000a900473ffffffffffffffffffffffffffffffffffffffff1673ffffffffffffffffffffffffffffffffffffffff1663a090aede6000808660016040518563ffffffff1660e01b8152600401808581526020018481526020018373ffffffffffffffffffffffffffffffffffffffff1673ffffffffffffffffffffffffffffffffffffffff1681526020018260ff168152602001945050505050602060405180830381600087803b15801561152c57600080fd5b505af1158015611540573d6000803e3d6000fd5b505050506040513d602081101561155657600080fd5b81019080805190602001909291905050509050600081116115df576040517f08c379a00000000000000000000000000000000000000000000000000000000081526004018080602001828103825260028152602001807f323600000000000000000000000000000000000000000000000000000000000081525060200191505060405180910390fd5b5b600260ff6001901b19816115f057fe5b05851080156115ff5750600085115b611671576040517f08c379a00000000000000000000000000000000000000000000000000000000081526004018080602001828103825260028152602001807f323400000000000000000000000000000000000000000000000000000000000081525060200191505060405180910390fd5b620f42406000198161167f57fe5b04811061168b57600080fd5b6000600260009054906101000a900473ffffffffffffffffffffffffffffffffffffffff1673ffffffffffffffffffffffffffffffffffffffff1663bd3d94f68c8c8c8c878c8c306040518963ffffffff1660e01b8152600401808973ffffffffffffffffffffffffffffffffffffffff1673ffffffffffffffffffffffffffffffffffffffff1681526020018873ffffffffffffffffffffffffffffffffffffffff1673ffffffffffffffffffffffffffffffffffffffff1681526020018773ffffffffffffffffffffffffffffffffffffffff1673ffffffffffffffffffffffffffffffffffffffff1681526020018673ffffffffffffffffffffffffffffffffffffffff1673ffffffffffffffffffffffffffffffffffffffff1681526020018581526020018481526020018381526020018273ffffffffffffffffffffffffffffffffffffffff1673ffffffffffffffffffffffffffffffffffffffff16815260200198505050505050505050602060405180830381600087803b15801561181657600080fd5b505af115801561182a573d6000803e3d6000fd5b505050506040513d602081101561184057600080fd5b81019080805190602001909291905050509050600081905060126000815480929190600101919050555081600b60008373ffffffffffffffffffffffffffffffffffffffff1673ffffffffffffffffffffffffffffffffffffffff16815260200190815260200160002060006101000a81548173ffffffffffffffffffffffffffffffffffffffff021916908373ffffffffffffffffffffffffffffffffffffffff160217905550600d8190806001815401808255809150509060018203906000526020600020016000909192909190916101000a81548173ffffffffffffffffffffffffffffffffffffffff021916908373ffffffffffffffffffffffffffffffffffffffff160217905550506001600c60008373ffffffffffffffffffffffffffffffffffffffff1673ffffffffffffffffffffffffffffffffffffffff16815260200190815260200160002060006101000a81548160ff021916908360ff1602179055506000831180156119e45750600073ffffffffffffffffffffffffffffffffffffffff168573ffffffffffffffffffffffffffffffffffffffff1614155b15611a43576002600c60008773ffffffffffffffffffffffffffffffffffffffff1673ffffffffffffffffffffffffffffffffffffffff16815260200190815260200160002060006101000a81548160ff021916908360ff1602179055505b80935050505098975050505050505050565b600c6020528060005260406000206000915054906101000a900460ff1681565b600060011515600760008773ffffffffffffffffffffffffffffffffffffffff1673ffffffffffffffffffffffffffffffffffffffff16815260200190815260200160002060009054906101000a900460ff16151514611b3d576040517f08c379a00000000000000000000000000000000000000000000000000000000081526004018080602001828103825260018152602001807f330000000000000000000000000000000000000000000000000000000000000081525060200191505060405180910390fd5b60011515600760008673ffffffffffffffffffffffffffffffffffffffff1673ffffffffffffffffffffffffffffffffffffffff16815260200190815260200160002060009054906101000a900460ff16151514611c03576040517f08c379a00000000000000000000000000000000000000000000000000000000081526004018080602001828103825260018152602001807f340000000000000000000000000000000000000000000000000000000000000081525060200191505060405180910390fd5b6000600360009054906101000a900473ffffffffffffffffffffffffffffffffffffffff1673ffffffffffffffffffffffffffffffffffffffff1663424becc3898989898989306040518863ffffffff1660e01b8152600401808873ffffffffffffffffffffffffffffffffffffffff1673ffffffffffffffffffffffffffffffffffffffff1681526020018773ffffffffffffffffffffffffffffffffffffffff1673ffffffffffffffffffffffffffffffffffffffff1681526020018673ffffffffffffffffffffffffffffffffffffffff1673ffffffffffffffffffffffffffffffffffffffff1681526020018573ffffffffffffffffffffffffffffffffffffffff1673ffffffffffffffffffffffffffffffffffffffff1681526020018481526020018381526020018273ffffffffffffffffffffffffffffffffffffffff1673ffffffffffffffffffffffffffffffffffffffff168152602001975050505050505050602060405180830381600087803b158015611d8657600080fd5b505af1158015611d9a573d6000803e3d6000fd5b505050506040513d6020811015611db057600080fd5b81019080805190602001909291905050509050600081905081600860008373ffffffffffffffffffffffffffffffffffffffff1673ffffffffffffffffffffffffffffffffffffffff16815260200190815260200160002060006101000a81548173ffffffffffffffffffffffffffffffffffffffff021916908373ffffffffffffffffffffffffffffffffffffffff16021790555060098190806001815401808255809150509060018203906000526020600020016000909192909190916101000a81548173ffffffffffffffffffffffffffffffffffffffff021916908373ffffffffffffffffffffffffffffffffffffffff160217905550506001600a60008373ffffffffffffffffffffffffffffffffffffffff1673ffffffffffffffffffffffffffffffffffffffff16815260200190815260200160002060006101000a81548160ff021916908360ff16021790555060116000815480929190600101919050555080925050509695505050505050565b60155481565b600d8181548110611f3957fe5b906000526020600020016000915054906101000a900473ffffffffffffffffffffffffffffffffffffffff1681565b60165481565b6001600a60008373ffffffffffffffffffffffffffffffffffffffff1673ffffffffffffffffffffffffffffffffffffffff16815260200190815260200160002060009054906101000a900460ff1660ff1614612033576040517f08c379a00000000000000000000000000000000000000000000000000000000081526004018080602001828103825260028152602001807f313800000000000000000000000000000000000000000000000000000000000081525060200191505060405180910390fd5b8073ffffffffffffffffffffffffffffffffffffffff163373ffffffffffffffffffffffffffffffffffffffff161461206b57600080fd5b6004600a60008373ffffffffffffffffffffffffffffffffffffffff1673ffffffffffffffffffffffffffffffffffffffff16815260200190815260200160002060006101000a81548160ff021916908360ff16021790555050565b60145481565b60125481565b600e81815481106120e057fe5b906000526020600020016000915054906101000a900473ffffffffffffffffffffffffffffffffffffffff1681565b60115481565b80600160006101000a81548173ffffffffffffffffffffffffffffffffffffffff021916908373ffffffffffffffffffffffffffffffffffffffff16021790555050565b600f818154811061216657fe5b906000526020600020016000915054906101000a900473ffffffffffffffffffffffffffffffffffffffff1681565b600a6020528060005260406000206000915054906101000a900460ff1681565b6001600a60008373ffffffffffffffffffffffffffffffffffffffff1673ffffffffffffffffffffffffffffffffffffffff16815260200190815260200160002060009054906101000a900460ff1660ff161461227a576040517f08c379a00000000000000000000000000000000000000000000000000000000081526004018080602001828103825260028152602001807f313100000000000000000000000000000000000000000000000000000000000081525060200191505060405180910390fd5b6002600a60008373ffffffffffffffffffffffffffffffffffffffff1673ffffffffffffffffffffffffffffffffffffffff16815260200190815260200160002060006101000a81548160ff021916908360ff160217905550600080600160009054906101000a900473ffffffffffffffffffffffffffffffffffffffff1673ffffffffffffffffffffffffffffffffffffffff1663bc34e79e600860008673ffffffffffffffffffffffffffffffffffffffff1673ffffffffffffffffffffffffffffffffffffffff16815260200190815260200160002060009054906101000a900473ffffffffffffffffffffffffffffffffffffffff1673ffffffffffffffffffffffffffffffffffffffff1663b72904bb6040518163ffffffff1660e01b815260040160206040518083038186803b1580156123b957600080fd5b505afa1580156123cd573d6000803e3d6000fd5b505050506040513d60208110156123e357600080fd5b8101908080519060200190929190505050600860008773ffffffffffffffffffffffffffffffffffffffff1673ffffffffffffffffffffffffffffffffffffffff16815260200190815260200160002060009054906101000a900473ffffffffffffffffffffffffffffffffffffffff1673ffffffffffffffffffffffffffffffffffffffff1663e2398b476040518163ffffffff1660e01b815260040160206040518083038186803b15801561249957600080fd5b505afa1580156124ad573d6000803e3d6000fd5b505050506040513d60208110156124c357600080fd5b8101908080519060200190929190505050600860008873ffffffffffffffffffffffffffffffffffffffff1673ffffffffffffffffffffffffffffffffffffffff16815260200190815260200160002060009054906101000a900473ffffffffffffffffffffffffffffffffffffffff1673ffffffffffffffffffffffffffffffffffffffff16638ad6295d6040518163ffffffff1660e01b815260040160206040518083038186803b15801561257957600080fd5b505afa15801561258d573d6000803e3d6000fd5b505050506040513d60208110156125a357600080fd5b8101908080519060200190929190505050600860008973ffffffffffffffffffffffffffffffffffffffff1673ffffffffffffffffffffffffffffffffffffffff16815260200190815260200160002060009054906101000a900473ffffffffffffffffffffffffffffffffffffffff1673ffffffffffffffffffffffffffffffffffffffff1663e9b0a5da6040518163ffffffff1660e01b815260040160206040518083038186803b15801561265957600080fd5b505afa15801561266d573d6000803e3d6000fd5b505050506040513d602081101561268357600080fd5b810190808051906020019092919050505060006040518663ffffffff1660e01b8152600401808673ffffffffffffffffffffffffffffffffffffffff1673ffffffffffffffffffffffffffffffffffffffff1681526020018573ffffffffffffffffffffffffffffffffffffffff1673ffffffffffffffffffffffffffffffffffffffff16815260200184815260200183815260200182151515158152602001955050505050506040805180830381600087803b15801561274357600080fd5b505af1158015612757573d6000803e3d6000fd5b505050506040513d604081101561276d57600080fd5b81019080805190602001909291908051906020019092919050505080925081935050508060168190555060011515821515141561287a576003600a60008573ffffffffffffffffffffffffffffffffffffffff1673ffffffffffffffffffffffffffffffffffffffff16815260200190815260200160002060006101000a81548160ff021916908360ff160217905550600e8390806001815401808255809150509060018203906000526020600020016000909192909190916101000a81548173ffffffffffffffffffffffffffffffffffffffff021916908373ffffffffffffffffffffffffffffffffffffffff160217905550506013600081548092919060010191905055506128d4565b6001600a60008573ffffffffffffffffffffffffffffffffffffffff1673ffffffffffffffffffffffffffffffffffffffff16815260200190815260200160002060006101000a81548160ff021916908360ff1602179055505b505050565b600981815481106128e657fe5b906000526020600020016000915054906101000a900473ffffffffffffffffffffffffffffffffffffffff1681565b60135481565b600760008273ffffffffffffffffffffffffffffffffffffffff1673ffffffffffffffffffffffffffffffffffffffff16815260200190815260200160002060009054906101000a900460ff16612af65760068190806001815401808255809150509060018203906000526020600020016000909192909190916101000a81548173ffffffffffffffffffffffffffffffffffffffff021916908373ffffffffffffffffffffffffffffffffffffffff160217905550506001600760008373ffffffffffffffffffffffffffffffffffffffff1673ffffffffffffffffffffffffffffffffffffffff16815260200190815260200160002060006101000a81548160ff021916908315150217905550601560008154809291906001019190505550600160009054906101000a900473ffffffffffffffffffffffffffffffffffffffff1673ffffffffffffffffffffffffffffffffffffffff16639d95f1cc826040518263ffffffff1660e01b8152600401808273ffffffffffffffffffffffffffffffffffffffff1673ffffffffffffffffffffffffffffffffffffffff168152602001915050600060405180830381600087803b158015612add57600080fd5b505af1158015612af1573d6000803e3d6000fd5b505050505b5056fea165627a7a723058208d70bb8cde7f8d9af43b87e822dfd6b1508c930f2ce18a4bf0b5e585fe49fdbf0029608060405234801561001057600080fd5b50610f9b806100206000396000f3fe608060405234801561001057600080fd5b506004361061002b5760003560e01c8063bd3d94f614610030575b600080fd5b610111600480360361010081101561004757600080fd5b81019080803573ffffffffffffffffffffffffffffffffffffffff169060200190929190803573ffffffffffffffffffffffffffffffffffffffff169060200190929190803573ffffffffffffffffffffffffffffffffffffffff169060200190929190803573ffffffffffffffffffffffffffffffffffffffff169060200190929190803590602001909291908035906020019092919080359060200190929190803573ffffffffffffffffffffffffffffffffffffffff169060200190929190505050610153565b604051808273ffffffffffffffffffffffffffffffffffffffff1673ffffffffffffffffffffffffffffffffffffffff16815260200191505060405180910390f35b60008888888888888888604051610169906102ab565b808973ffffffffffffffffffffffffffffffffffffffff1673ffffffffffffffffffffffffffffffffffffffff1681526020018873ffffffffffffffffffffffffffffffffffffffff1673ffffffffffffffffffffffffffffffffffffffff1681526020018773ffffffffffffffffffffffffffffffffffffffff1673ffffffffffffffffffffffffffffffffffffffff1681526020018673ffffffffffffffffffffffffffffffffffffffff1673ffffffffffffffffffffffffffffffffffffffff1681526020018581526020018481526020018381526020018273ffffffffffffffffffffffffffffffffffffffff1673ffffffffffffffffffffffffffffffffffffffff16815260200198505050505050505050604051809103906000f08015801561029c573d6000803e3d6000fd5b50905098975050505050505050565b610cb7806102b98339019056fe60806040526000600755600060085560006009556001600a60006101000a81548160ff021916908360ff1602179055506000600a60156101000a81548160ff0219169083151502179055506000600a60166101000a81548160ff021916908360ff16021790555034801561007257600080fd5b5060405161010080610cb7833981018060405261010081101561009457600080fd5b81019080805190602001909291908051906020019092919080519060200190929190805190602001909291908051906020019092919080519060200190929190805190602001909291908051906020019092919050505087600160006101000a81548173ffffffffffffffffffffffffffffffffffffffff021916908373ffffffffffffffffffffffffffffffffffffffff16021790555086600260006101000a81548173ffffffffffffffffffffffffffffffffffffffff021916908373ffffffffffffffffffffffffffffffffffffffff16021790555085600360006101000a81548173ffffffffffffffffffffffffffffffffffffffff021916908373ffffffffffffffffffffffffffffffffffffffff16021790555084600460006101000a81548173ffffffffffffffffffffffffffffffffffffffff021916908373ffffffffffffffffffffffffffffffffffffffff16021790555083600581905550826006819055508160008190555080600a60016101000a81548173ffffffffffffffffffffffffffffffffffffffff021916908373ffffffffffffffffffffffffffffffffffffffff1602179055505050505050505050610a5b8061025c6000396000f3fe608060405234801561001057600080fd5b50600436106101005760003560e01c80638d85388c11610097578063cc1d8cbc11610066578063cc1d8cbc14610323578063e36db78514610341578063e5a515981461038b578063f2978d0b146103af57610100565b80638d85388c1461024d5780638f9c6fbf146102715780639cb64a2d146102bb578063cb07312c1461030557610100565b80633ba0b9a9116100d35780633ba0b9a9146101955780635922b857146101b35780635cb85cd2146101fd5780638646abba1461022b57610100565b806312424e3f14610105578063310a1ee31461010f578063327134f41461012d578063378ded5d14610177575b600080fd5b61010d6103cd565b005b6101176108b0565b6040518082815260200191505060405180910390f35b6101356108b6565b604051808273ffffffffffffffffffffffffffffffffffffffff1673ffffffffffffffffffffffffffffffffffffffff16815260200191505060405180910390f35b61017f6108dc565b6040518082815260200191505060405180910390f35b61019d6108e2565b6040518082815260200191505060405180910390f35b6101bb6108e8565b604051808273ffffffffffffffffffffffffffffffffffffffff1673ffffffffffffffffffffffffffffffffffffffff16815260200191505060405180910390f35b6102296004803603602081101561021357600080fd5b810190808035906020019092919050505061090e565b005b610233610972565b604051808215151515815260200191505060405180910390f35b610255610985565b604051808260ff1660ff16815260200191505060405180910390f35b610279610998565b604051808273ffffffffffffffffffffffffffffffffffffffff1673ffffffffffffffffffffffffffffffffffffffff16815260200191505060405180910390f35b6102c36109be565b604051808273ffffffffffffffffffffffffffffffffffffffff1673ffffffffffffffffffffffffffffffffffffffff16815260200191505060405180910390f35b61030d6109e4565b6040518082815260200191505060405180910390f35b61032b6109ea565b6040518082815260200191505060405180910390f35b6103496109f0565b604051808273ffffffffffffffffffffffffffffffffffffffff1673ffffffffffffffffffffffffffffffffffffffff16815260200191505060405180910390f35b610393610a16565b604051808260ff1660ff16815260200191505060405180910390f35b6103b7610a29565b6040518082815260200191505060405180910390f35b6000600a60169054906101000a900460ff1660ff1614610455576040517f08c379a00000000000000000000000000000000000000000000000000000000081526004018080602001828103825260028152602001807f313600000000000000000000000000000000000000000000000000000000000081525060200191505060405180910390fd5b600260009054906101000a900473ffffffffffffffffffffffffffffffffffffffff1673ffffffffffffffffffffffffffffffffffffffff163373ffffffffffffffffffffffffffffffffffffffff1614806104fe5750600360009054906101000a900473ffffffffffffffffffffffffffffffffffffffff1673ffffffffffffffffffffffffffffffffffffffff163373ffffffffffffffffffffffffffffffffffffffff16145b806105565750600460009054906101000a900473ffffffffffffffffffffffffffffffffffffffff1673ffffffffffffffffffffffffffffffffffffffff163373ffffffffffffffffffffffffffffffffffffffff16145b6105c8576040517f08c379a00000000000000000000000000000000000000000000000000000000081526004018080602001828103825260028152602001807f313700000000000000000000000000000000000000000000000000000000000081525060200191505060405180910390fd5b600260009054906101000a900473ffffffffffffffffffffffffffffffffffffffff1673ffffffffffffffffffffffffffffffffffffffff163373ffffffffffffffffffffffffffffffffffffffff1614801561062757506000600754145b1561066757600a600081819054906101000a900460ff168092919060010191906101000a81548160ff021916908360ff1602179055505060016007819055505b600360009054906101000a900473ffffffffffffffffffffffffffffffffffffffff1673ffffffffffffffffffffffffffffffffffffffff163373ffffffffffffffffffffffffffffffffffffffff161480156106c657506000600854145b1561070657600a600081819054906101000a900460ff168092919060010191906101000a81548160ff021916908360ff1602179055505060016008819055505b600460009054906101000a900473ffffffffffffffffffffffffffffffffffffffff1673ffffffffffffffffffffffffffffffffffffffff163373ffffffffffffffffffffffffffffffffffffffff1614801561076557506000600954145b156107a557600a600081819054906101000a900460ff168092919060010191906101000a81548160ff021916908360ff1602179055505060016009819055505b600a60159054906101000a900460ff161580156107d457506004600a60009054906101000a900460ff1660ff16145b156108ae576001600a60156101000a81548160ff021916908315150217905550600a60019054906101000a900473ffffffffffffffffffffffffffffffffffffffff1673ffffffffffffffffffffffffffffffffffffffff166309fa423e306040518263ffffffff1660e01b8152600401808273ffffffffffffffffffffffffffffffffffffffff1673ffffffffffffffffffffffffffffffffffffffff168152602001915050600060405180830381600087803b15801561089557600080fd5b505af11580156108a9573d6000803e3d6000fd5b505050505b565b60005481565b600460009054906101000a900473ffffffffffffffffffffffffffffffffffffffff1681565b60095481565b60065481565b600360009054906101000a900473ffffffffffffffffffffffffffffffffffffffff1681565b600a60019054906101000a900473ffffffffffffffffffffffffffffffffffffffff1673ffffffffffffffffffffffffffffffffffffffff163373ffffffffffffffffffffffffffffffffffffffff161461096857600080fd5b8060058190555050565b600a60159054906101000a900460ff1681565b600a60169054906101000a900460ff1681565b600a60019054906101000a900473ffffffffffffffffffffffffffffffffffffffff1681565b600160009054906101000a900473ffffffffffffffffffffffffffffffffffffffff1681565b60085481565b60075481565b600260009054906101000a900473ffffffffffffffffffffffffffffffffffffffff1681565b600a60009054906101000a900460ff1681565b6005548156fea165627a7a723058207a2471966e45cf8afe114dba47116c98d7935b9bd52513dab58466c340bdb3eb0029a165627a7a723058207539bc347bc385de466247ddb6a2e3a6d7b9e7ad005d930711ee21b989bb4f7f0029608060405234801561001057600080fd5b506113bc806100206000396000f3fe608060405234801561001057600080fd5b506004361061002b5760003560e01c8063424becc314610030575b600080fd5b610106600480360360e081101561004657600080fd5b81019080803573ffffffffffffffffffffffffffffffffffffffff169060200190929190803573ffffffffffffffffffffffffffffffffffffffff169060200190929190803573ffffffffffffffffffffffffffffffffffffffff169060200190929190803573ffffffffffffffffffffffffffffffffffffffff1690602001909291908035906020019092919080359060200190929190803573ffffffffffffffffffffffffffffffffffffffff169060200190929190505050610148565b604051808273ffffffffffffffffffffffffffffffffffffffff1673ffffffffffffffffffffffffffffffffffffffff16815260200191505060405180910390f35b60008787878787878760405161015d90610297565b808873ffffffffffffffffffffffffffffffffffffffff1673ffffffffffffffffffffffffffffffffffffffff1681526020018773ffffffffffffffffffffffffffffffffffffffff1673ffffffffffffffffffffffffffffffffffffffff1681526020018673ffffffffffffffffffffffffffffffffffffffff1673ffffffffffffffffffffffffffffffffffffffff1681526020018573ffffffffffffffffffffffffffffffffffffffff1673ffffffffffffffffffffffffffffffffffffffff1681526020018481526020018381526020018273ffffffffffffffffffffffffffffffffffffffff1673ffffffffffffffffffffffffffffffffffffffff168152602001975050505050505050604051809103906000f080158015610289573d6000803e3d6000fd5b509050979650505050505050565b6110ec806102a58339019056fe608060405260016000806101000a81548160ff021916908360ff1602179055506000600155600060025560006003556000600a60146101000a81548160ff0219169083151502179055506000600a60156101000a81548160ff021916908360ff16021790555034801561007157600080fd5b5060405160e0806110ec833981018060405260e081101561009157600080fd5b810190808051906020019092919080519060200190929190805190602001909291908051906020019092919080519060200190929190805190602001909291908051906020019092919050505086600460006101000a81548173ffffffffffffffffffffffffffffffffffffffff021916908373ffffffffffffffffffffffffffffffffffffffff16021790555085600560006101000a81548173ffffffffffffffffffffffffffffffffffffffff021916908373ffffffffffffffffffffffffffffffffffffffff16021790555084600660006101000a81548173ffffffffffffffffffffffffffffffffffffffff021916908373ffffffffffffffffffffffffffffffffffffffff16021790555083600760006101000a81548173ffffffffffffffffffffffffffffffffffffffff021916908373ffffffffffffffffffffffffffffffffffffffff160217905550826008819055508160098190555080600a60006101000a81548173ffffffffffffffffffffffffffffffffffffffff021916908373ffffffffffffffffffffffffffffffffffffffff16021790555050505050505050610ea5806102476000396000f3fe608060405234801561001057600080fd5b50600436106101005760003560e01c80639acadb8711610097578063e2398b4711610066578063e2398b471461030f578063e5a5159814610359578063e9b0a5da1461037d578063feb7f6041461039b57610100565b80639acadb871461026f578063ab0401071461029d578063b72904bb146102a7578063cac5b311146102f157610100565b80638646abba116100d35780638646abba146101c15780638ad6295d146101e35780638d85388c146102015780638f9c6fbf1461022557610100565b806308551a5314610105578063113fd4f11461014f57806312424e3f1461016d5780637150d8ae14610177575b600080fd5b61010d6103b9565b604051808273ffffffffffffffffffffffffffffffffffffffff1673ffffffffffffffffffffffffffffffffffffffff16815260200191505060405180910390f35b6101576103df565b6040518082815260200191505060405180910390f35b6101756103e5565b005b61017f610814565b604051808273ffffffffffffffffffffffffffffffffffffffff1673ffffffffffffffffffffffffffffffffffffffff16815260200191505060405180910390f35b6101c961083a565b604051808215151515815260200191505060405180910390f35b6101eb61084d565b6040518082815260200191505060405180910390f35b610209610853565b604051808260ff1660ff16815260200191505060405180910390f35b61022d610866565b604051808273ffffffffffffffffffffffffffffffffffffffff1673ffffffffffffffffffffffffffffffffffffffff16815260200191505060405180910390f35b61029b6004803603602081101561028557600080fd5b810190808035906020019092919050505061088c565b005b6102a5610a4a565b005b6102af610dd4565b604051808273ffffffffffffffffffffffffffffffffffffffff1673ffffffffffffffffffffffffffffffffffffffff16815260200191505060405180910390f35b6102f9610dfa565b6040518082815260200191505060405180910390f35b610317610e00565b604051808273ffffffffffffffffffffffffffffffffffffffff1673ffffffffffffffffffffffffffffffffffffffff16815260200191505060405180910390f35b610361610e26565b604051808260ff1660ff16815260200191505060405180910390f35b610385610e38565b6040518082815260200191505060405180910390f35b6103a3610e3e565b6040518082815260200191505060405180910390f35b600560009054906101000a900473ffffffffffffffffffffffffffffffffffffffff1681565b60025481565b600560009054906101000a900473ffffffffffffffffffffffffffffffffffffffff1673ffffffffffffffffffffffffffffffffffffffff163373ffffffffffffffffffffffffffffffffffffffff16148061048e5750600760009054906101000a900473ffffffffffffffffffffffffffffffffffffffff1673ffffffffffffffffffffffffffffffffffffffff163373ffffffffffffffffffffffffffffffffffffffff16145b806104e65750600660009054906101000a900473ffffffffffffffffffffffffffffffffffffffff1673ffffffffffffffffffffffffffffffffffffffff163373ffffffffffffffffffffffffffffffffffffffff16145b610558576040517f08c379a00000000000000000000000000000000000000000000000000000000081526004018080602001828103825260028152602001807f313900000000000000000000000000000000000000000000000000000000000081525060200191505060405180910390fd5b6000600a60159054906101000a900460ff1660ff16146105e0576040517f08c379a00000000000000000000000000000000000000000000000000000000081526004018080602001828103825260028152602001807f323200000000000000000000000000000000000000000000000000000000000081525060200191505060405180910390fd5b600560009054906101000a900473ffffffffffffffffffffffffffffffffffffffff1673ffffffffffffffffffffffffffffffffffffffff163373ffffffffffffffffffffffffffffffffffffffff1614801561063f57506000600154145b15610681576001808190555060008081819054906101000a900460ff168092919060010191906101000a81548160ff021916908360ff160217905550506107c3565b600760009054906101000a900473ffffffffffffffffffffffffffffffffffffffff1673ffffffffffffffffffffffffffffffffffffffff163373ffffffffffffffffffffffffffffffffffffffff161480156106e057506000600354145b1561072357600160038190555060008081819054906101000a900460ff168092919060010191906101000a81548160ff021916908360ff160217905550506107c2565b600660009054906101000a900473ffffffffffffffffffffffffffffffffffffffff1673ffffffffffffffffffffffffffffffffffffffff163373ffffffffffffffffffffffffffffffffffffffff1614801561078257506000600254145b156107c157600160028190555060008081819054906101000a900460ff168092919060010191906101000a81548160ff021916908360ff160217905550505b5b5b600a60149054906101000a900460ff161580156107f1575060046000809054906101000a900460ff1660ff16145b15610812576001600a60146101000a81548160ff0219169083151502179055505b565b600460009054906101000a900473ffffffffffffffffffffffffffffffffffffffff1681565b600a60149054906101000a900460ff1681565b60085481565b600a60159054906101000a900460ff1681565b600a60009054906101000a900473ffffffffffffffffffffffffffffffffffffffff1681565b600460009054906101000a900473ffffffffffffffffffffffffffffffffffffffff1673ffffffffffffffffffffffffffffffffffffffff163373ffffffffffffffffffffffffffffffffffffffff16146108e657600080fd5b6001600a60009054906101000a900473ffffffffffffffffffffffffffffffffffffffff1673ffffffffffffffffffffffffffffffffffffffff1663c94d5ec3306040518263ffffffff1660e01b8152600401808273ffffffffffffffffffffffffffffffffffffffff1673ffffffffffffffffffffffffffffffffffffffff16815260200191505060206040518083038186803b15801561098757600080fd5b505afa15801561099b573d6000803e3d6000fd5b505050506040513d60208110156109b157600080fd5b810190808051906020019092919050505060ff1614610a38576040517f08c379a00000000000000000000000000000000000000000000000000000000081526004018080602001828103825260018152602001807f390000000000000000000000000000000000000000000000000000000000000081525060200191505060405180910390fd5b610a40610e44565b8060088190555050565b600560009054906101000a900473ffffffffffffffffffffffffffffffffffffffff1673ffffffffffffffffffffffffffffffffffffffff163373ffffffffffffffffffffffffffffffffffffffff161480610af35750600760009054906101000a900473ffffffffffffffffffffffffffffffffffffffff1673ffffffffffffffffffffffffffffffffffffffff163373ffffffffffffffffffffffffffffffffffffffff16145b80610b4b5750600660009054906101000a900473ffffffffffffffffffffffffffffffffffffffff1673ffffffffffffffffffffffffffffffffffffffff163373ffffffffffffffffffffffffffffffffffffffff16145b610bbd576040517f08c379a00000000000000000000000000000000000000000000000000000000081526004018080602001828103825260028152602001807f313900000000000000000000000000000000000000000000000000000000000081525060200191505060405180910390fd5b6000600a60159054906101000a900460ff1660ff1614610c45576040517f08c379a00000000000000000000000000000000000000000000000000000000081526004018080602001828103825260028152602001807f323200000000000000000000000000000000000000000000000000000000000081525060200191505060405180910390fd5b600560009054906101000a900473ffffffffffffffffffffffffffffffffffffffff1673ffffffffffffffffffffffffffffffffffffffff163373ffffffffffffffffffffffffffffffffffffffff16148015610ca457506000600154145b15610cca576002600a60156101000a81548160ff021916908360ff160217905550610dd2565b600760009054906101000a900473ffffffffffffffffffffffffffffffffffffffff1673ffffffffffffffffffffffffffffffffffffffff163373ffffffffffffffffffffffffffffffffffffffff16148015610d2957506000600354145b15610d4f576003600a60156101000a81548160ff021916908360ff160217905550610dd1565b600660009054906101000a900473ffffffffffffffffffffffffffffffffffffffff1673ffffffffffffffffffffffffffffffffffffffff163373ffffffffffffffffffffffffffffffffffffffff16148015610dae57506000600254145b15610dd0576004600a60156101000a81548160ff021916908360ff1602179055505b5b5b565b600660009054906101000a900473ffffffffffffffffffffffffffffffffffffffff1681565b60015481565b600760009054906101000a900473ffffffffffffffffffffffffffffffffffffffff1681565b6000809054906101000a900460ff1681565b60095481565b60035481565b60016000806101000a81548160ff021916908360ff16021790555060006001819055506000600381905550600060028190555056fea165627a7a72305820b95714ea61845fcfcb278a965ffda7bbabfc7bf72e0643a1780a49855aedabb40029a165627a7a723058206dcedd1e9ccb10f90a1a91b137235ca023cb192ce4e5abc1aac47161997d42280029608060405234801561001057600080fd5b5061027f806100206000396000f3fe608060405234801561001057600080fd5b506004361061002b5760003560e01c8063efc81a8c14610030575b600080fd5b61003861007a565b604051808273ffffffffffffffffffffffffffffffffffffffff1673ffffffffffffffffffffffffffffffffffffffff16815260200191505060405180910390f35b6000604051610088906100aa565b604051809103906000f0801580156100a4573d6000803e3d6000fd5b50905090565b61019c806100b88339019056fe608060405234801561001057600080fd5b5061017c806100206000396000f3fe608060405234801561001057600080fd5b506004361061002b5760003560e01c80639792bc0e14610030575b600080fd5b61005c6004803603602081101561004657600080fd5b8101908080359060200190929190505050610072565b6040518082815260200191505060405180910390f35b6000620f42408212156100995762d2ced261009183620f4240026100aa565b0390506100a5565b6100a2826100aa565b90505b919050565b600080600090505b6216e36083126100d95762062fd981019050600360028402816100d157fe5b0592506100b2565b620f42408303925060008390506000600190505b600a811215610145578082816100ff57fe5b0583019250600181019050620f42408583028161011857fe5b05915080828161012457fe5b0583039250600181019050620f42408583028161013d57fe5b0591506100ed565b82935050505091905056fea165627a7a72305820e35be4d89d6273bbc4763687aa7c237b7f7044acf3462964b403b5ab657d77180029a165627a7a7230582030c24592df0807915d41a1c4677b16d6a6466919a163a02ba144e1f1f5d9b4430029",
  "source": "pragma solidity ^ 0.5.0;\nimport \"./Agreement.sol\";\nimport \"./Transaction.sol\";\nimport \"./SafeMath.sol\";\nimport \"./Graph.sol\";\nimport \"./MainGraph.sol\";\nimport \"./AgreementFactory.sol\";\nimport \"./Transaction Factory.sol\";\nimport \"./Tools.sol\";\nimport \"./ToolFactory.sol\";\ncontract Netereum\n{\n    using SafeMath for uint256;\n    int256 public constant MAX_INT = int256(~(uint256(1) << 255));\n    uint256 constant MAX_UINT = ~uint256(0);\n    address owner;\n    MainGraph mainGraph;\n    AgreementFactory aFactory;\n    TransactionFactory tFactory;\n    ToolFactory toolFactory;\n    Tools tool;\n    constructor(/*AgreementFactory _aFactory,TransactionFactory tFactory,ToolFactory toolFactory*/) public\n    {\n        owner = msg.sender;\n//        aFactory = _aFactory;\n        aFactory = new AgreementFactory();\n        tFactory = new TransactionFactory();\n        toolFactory = new ToolFactory();\n        tool = toolFactory.create();\n    }\n    function setMainGraph(address mainGraphAddress) public\n    {\n//        require(msg.sender == owner);\n        mainGraph = MainGraph(address (mainGraphAddress));\n    }\n    //uint256 barterTime = 15669098070;\n    address[] confirmedCoordinators;\n    mapping(address => bool) isCoordinatorInserted;\n    mapping(address => Transaction) createdTransactions;// these are all the transactions that have been created\n    address [] public createdTransactionsAddress;\n    mapping(address => uint8) public transactionsStatus ;// 0: not created  1:created 2: pending 3:added\n    mapping(address => Agreement) createdAgreements;// these are all the Agreements that have been created\n    mapping(address => uint8) public agreementsStatus;// 0: not created 1:offered 2:pending 3:expired 4:declined 5:altering\n    address [] public createdAgreementsAddress;\n\n    //mapping(address => bool) agreementExists;// this mapping shows if an agreement with a specific address has been created or not\n    //mapping(address => bool) isAgreementAdded;// this mapping shows if an agreement has been added to the final agreements(for preventing that an agreement is added multiple times)\n    Transaction[] public transactions;// These are the finalized transaction\n    Agreement[] public agreements;//These are the finalized agreements QUESTION: SHOULD THESE TWO BE MAPS OR ARRAYS?\n    mapping(address => uint256) transactionsExpireTime;\n    uint256 public numberOfCreatedTransactions = 0;\n    uint256 public numberOfCreatedAgreements = 0;\n    uint256 public numberOfTransactions = 0;\n    uint256 public numberOfAgreements = 0;\n    uint256 public numberOfCoordinators = 0;\n    //    event coordinatorAdded(address coordinator,bool added);\n    //    event agreementCreated(address agreement);\n    //    event transactionCreated(address transaction);\n    //    event transactionAdded(address transaction, bool added);\n    function addCoordinator(address coordinator) public\n        // adding a coordinator to the list of valid coordinators\n    {\n        //require(msg.sender == owner);\n        if (!isCoordinatorInserted[coordinator])\n        {\n            //nodes[coordinator].coordinator = coordinator;\n            //nodes[coordinator].isInserted = true;\n            confirmedCoordinators.push(coordinator);\n            isCoordinatorInserted[coordinator] = true;\n            numberOfCoordinators++;\n            mainGraph.addNode(coordinator);\n            //emit coordinatorAdded(coordinator,true);\n        }\n        //emit coordinatorAdded(coordinator,false);\n    }\n\n    function createAgreement(address _debtor, address _creditor,\n        address _debtorCoordinator, address _creditorCoordinator,\n        uint256 _debtorCost, uint256 _exchangeRate ,uint256 _expireTime,address agreementAddress)/*if the last field isn't 0, then this means that an agreement\n        that has already been submitted needs to be change*/\n    public returns(address)\n    {\n        uint256 cost = 0;\n        if(agreementAddress == address(0))\n        {\n            //require(msg.sender == _debtor, \"2\");\n            require(isCoordinatorInserted[_debtorCoordinator] == true, \"3\");\n            require(isCoordinatorInserted[_creditorCoordinator] == true, \"4\");\n//            require(_expireTime > block.timestamp,\"5\");\n            cost = _debtorCost;\n        }\n        else\n        {\n            require(agreementsStatus[agreementAddress] == 2, \"21\");\n            //require(msg.sender == createdAgreements[agreementAddress].debtor(), \"2\");\n            agreementsStatus[agreementAddress] = 5;// altering\n            cost = mainGraph.wrappedRemoveEdge(0,0,agreementAddress,1);\n            require(cost> 0,\"26\");\n        }\n        require(_exchangeRate < uint256 (MAX_INT/2) && _exchangeRate > 0 ,\"24\");\n        require(cost < (MAX_UINT / 1000000));\n        //require(cost < (MAX_UINT / _exchangeRate));\n        Agreement newAgreement = aFactory.create(\n            _debtor, _creditor, _debtorCoordinator, _creditorCoordinator,\n            cost,_exchangeRate,_expireTime,address (this)\n        );\n        address newAgreementAddress = address(newAgreement);\n        numberOfCreatedAgreements++;\n        createdAgreements[newAgreementAddress] = newAgreement;\n        createdAgreementsAddress.push(newAgreementAddress);\n        agreementsStatus[newAgreementAddress] = 1;//offered\n        if(cost > 0 && agreementAddress != address (0))\n            agreementsStatus[agreementAddress] = 2;// pending\n        //emit agreementCreated(newAgreementAddress);\n        return newAgreementAddress;\n    }\n    function addAgreement(address agreementAddress)\n    external\n    {\n        require(agreementsStatus[agreementAddress] == 1, \"6\");\n//        require(createdAgreements[agreementAddress].expireTime() > block.timestamp,\"5\");\n        //require(createdAgreements[agreementAddress].counterPermission() == 4, \"7 \");\n        agreementsStatus[agreementAddress] = 2;// pending\n        agreements.push(Agreement(address(agreementAddress)));\n        numberOfAgreements++;\n        mainGraph.wrappedAddEdge(createdAgreements[agreementAddress].creditorCoordinator(), createdAgreements[agreementAddress].debtorCoordinator(),\n            createdAgreements[agreementAddress].exchangeRate(),tool.logarithm(int256(createdAgreements[agreementAddress].exchangeRate())),0,\n            createdAgreements[agreementAddress].debtorCost() ,address(agreementAddress));\n    }\n\n    function createTransaction(address _buyer, address _seller,\n        address _buyerCoordinator, address _sellerCoordinator,\n        uint256 _buyerCost, uint256 _sellerCost) external returns(address)\n    {\n        //require(msg.sender == _buyer, \"8\");\n        require(isCoordinatorInserted[_buyerCoordinator] == true, \"3\");\n        require(isCoordinatorInserted[_sellerCoordinator] == true, \"4\");\n        Transaction newTransaction =  tFactory.create(_buyer, _seller, _buyerCoordinator, _sellerCoordinator,\n            _buyerCost, _sellerCost,address (this));\n        address newTransactionAddress = address(newTransaction);\n        createdTransactions[newTransactionAddress] = newTransaction;\n        createdTransactionsAddress.push(newTransactionAddress);\n        transactionsStatus[newTransactionAddress] = 1;// created\n        numberOfCreatedTransactions++;\n        //emit transactionCreated(addr);\n        return newTransactionAddress;\n    }\n    /* When a customer is trying to execute a transaction, the parameters of the transaction are first sent to the Create transaction function which\n       creates a transaction and returns the address of that transaction. then when all sides have given permission, then he transaction will be able to\n       be sent to the do transaction function. if the transactions buyerCost is less than the buyerCost that the system can handle with its current state,\n       the transaction will be added to the mapping \"transactions\" and can be executed by the coordinators. */\n    uint256 public xy;\n    function doTransaction(address addr) external\n    {\n        require(transactionsStatus[addr] == 1, \"11\");\n        //require(createdTransactions[addr].counterPermission() == 4, \"12\");\n        transactionsStatus[addr] = 2; //pending\n        bool returnBool;\n        uint256 returnFund;\n        (returnBool,returnFund) = mainGraph.maxFund(createdTransactions[addr].buyerCoordinator(),\n            createdTransactions[addr].sellerCoordinator(),\n            createdTransactions[addr].buyerCost(),\n            createdTransactions[addr].sellerCost() ,false);\n        xy = returnFund;\n        if (returnBool == true)\n        {\n            transactionsStatus[addr] = 3;\n            transactions.push(Transaction(address(addr)));\n            numberOfTransactions ++;\n            //emit transactionAdded(addr,true);\n        }\n        else\n        {\n            transactionsStatus[addr] = 1;\n            //emit transactionAdded(addr,false);\n        }\n    }\n    //    function approximateMaxFee(address _buyerCoordinator, address _sellerCoordinator,\n    //        uint256 _sellerCost) public returns(uint256)\n    //    {\n    ////        require(nodes[_buyerCoordinator].isInserted == true, \"3\");\n    ////        require(nodes[_sellerCoordinator].isInserted == true, \"4\");\n    //        bool temp;\n    //        uint256 returnValue;\n    //        (temp,returnValue) = maxFund(_buyerCoordinator,_sellerCoordinator,0, _sellerCost,true);\n    //        return returnValue;\n    //    }\n\n//    function approveAgreement(address agreement) public{\n//        agreementsStatus[agreement] = 2;\n//    }\n\n    function declineAgreement(address agreementAddress) public {\n        require(agreementsStatus[agreementAddress] == 1, \"14\");\n        require(msg.sender == agreementAddress);\n        agreementsStatus[agreementAddress] = 4;\n    }\n\n    function declineTransaction(address transactionAddress) public {\n        require(transactionsStatus[transactionAddress] == 1, \"18\");\n        require(msg.sender == transactionAddress);\n        transactionsStatus[transactionAddress] = 4;\n    }\n}\n\n",
  "sourcePath": "/home/momi/WebstormProjects/Netereum/contracts/Netereum.sol",
  "compiler": {
    "name": "solc",
    "version": "0.5.8+commit.23d335f2.Emscripten.clang"
  },
  "schemaVersion": "3.0.16",
  "updatedAt": "2019-11-09T10:58:01.315Z",
  "devdoc": {
    "methods": {}
  },
  "userdoc": {
    "methods": {
      "declineAgreement(address)": {
        "notice": "/        require(nodes[_buyerCoordinator].isInserted == true, \"3\"); /        require(nodes[_sellerCoordinator].isInserted == true, \"4\");"
      }
    }
  }
}