{
  "contractName": "test",
  "abi": [
    {
      "constant": false,
      "inputs": [
        {
          "name": "addr",
          "type": "address"
        }
      ],
      "name": "set",
      "outputs": [],
      "payable": false,
      "stateMutability": "nonpayable",
      "type": "function"
    },
    {
      "constant": false,
      "inputs": [],
      "name": "build",
      "outputs": [],
      "payable": false,
      "stateMutability": "nonpayable",
      "type": "function"
    },
    {
      "constant": false,
      "inputs": [],
      "name": "build2",
      "outputs": [],
      "payable": false,
      "stateMutability": "nonpayable",
      "type": "function"
    }
  ],
  "bytecode": "0x608060405234801561001057600080fd5b5061140d806100206000396000f3fe608060405234801561001057600080fd5b50600436106100415760003560e01c80632801617e146100465780634d5375a11461008a5780638e1a55fc14610094575b600080fd5b6100886004803603602081101561005c57600080fd5b81019080803573ffffffffffffffffffffffffffffffffffffffff16906020019092919050505061009e565b005b6100926100e1565b005b61009c6103ba565b005b806000806101000a81548173ffffffffffffffffffffffffffffffffffffffff021916908373ffffffffffffffffffffffffffffffffffffffff16021790555050565b6000809054906101000a900473ffffffffffffffffffffffffffffffffffffffff1673ffffffffffffffffffffffffffffffffffffffff166309fa423e6000809054906101000a900473ffffffffffffffffffffffffffffffffffffffff1673ffffffffffffffffffffffffffffffffffffffff16632f6a45d4733c28ee5a77b6aa58c79e10c8416f32c8d916705a73fba507d4eac1a2d4144335c793edae54d212fa227378bc47cea54a29a3604f0750f77a67c1ab399b55732989bd5a3c39fd3fedad5158b56320384c087e346323c34600620a2c2a6403a70820fa60006040518963ffffffff1660e01b8152600401808973ffffffffffffffffffffffffffffffffffffffff1673ffffffffffffffffffffffffffffffffffffffff1681526020018873ffffffffffffffffffffffffffffffffffffffff1673ffffffffffffffffffffffffffffffffffffffff1681526020018773ffffffffffffffffffffffffffffffffffffffff1673ffffffffffffffffffffffffffffffffffffffff1681526020018673ffffffffffffffffffffffffffffffffffffffff1673ffffffffffffffffffffffffffffffffffffffff1681526020018581526020018481526020018381526020018273ffffffffffffffffffffffffffffffffffffffff1673ffffffffffffffffffffffffffffffffffffffff16815260200198505050505050505050602060405180830381600087803b15801561030357600080fd5b505af1158015610317573d6000803e3d6000fd5b505050506040513d602081101561032d57600080fd5b81019080805190602001909291905050506040518263ffffffff1660e01b8152600401808273ffffffffffffffffffffffffffffffffffffffff1673ffffffffffffffffffffffffffffffffffffffff168152602001915050600060405180830381600087803b1580156103a057600080fd5b505af11580156103b4573d6000803e3d6000fd5b50505050565b6000809054906101000a900473ffffffffffffffffffffffffffffffffffffffff1673ffffffffffffffffffffffffffffffffffffffff1663fbd6d77e7378bc47cea54a29a3604f0750f77a67c1ab399b556040518263ffffffff1660e01b8152600401808273ffffffffffffffffffffffffffffffffffffffff1673ffffffffffffffffffffffffffffffffffffffff168152602001915050600060405180830381600087803b15801561046e57600080fd5b505af1158015610482573d6000803e3d6000fd5b505050506000809054906101000a900473ffffffffffffffffffffffffffffffffffffffff1673ffffffffffffffffffffffffffffffffffffffff1663fbd6d77e739e1f8a4f804ce710e06c2155033b3d6deb767a306040518263ffffffff1660e01b8152600401808273ffffffffffffffffffffffffffffffffffffffff1673ffffffffffffffffffffffffffffffffffffffff168152602001915050600060405180830381600087803b15801561053a57600080fd5b505af115801561054e573d6000803e3d6000fd5b505050506000809054906101000a900473ffffffffffffffffffffffffffffffffffffffff1673ffffffffffffffffffffffffffffffffffffffff1663fbd6d77e73896727c6198dda989ea9998d52548ec26f59a80b6040518263ffffffff1660e01b8152600401808273ffffffffffffffffffffffffffffffffffffffff1673ffffffffffffffffffffffffffffffffffffffff168152602001915050600060405180830381600087803b15801561060657600080fd5b505af115801561061a573d6000803e3d6000fd5b505050506000809054906101000a900473ffffffffffffffffffffffffffffffffffffffff1673ffffffffffffffffffffffffffffffffffffffff1663fbd6d77e732989bd5a3c39fd3fedad5158b56320384c087e346040518263ffffffff1660e01b8152600401808273ffffffffffffffffffffffffffffffffffffffff1673ffffffffffffffffffffffffffffffffffffffff168152602001915050600060405180830381600087803b1580156106d257600080fd5b505af11580156106e6573d6000803e3d6000fd5b505050506000809054906101000a900473ffffffffffffffffffffffffffffffffffffffff1673ffffffffffffffffffffffffffffffffffffffff1663fbd6d77e73c30043bc49b05edcd975ec4cd245b257078a07286040518263ffffffff1660e01b8152600401808273ffffffffffffffffffffffffffffffffffffffff1673ffffffffffffffffffffffffffffffffffffffff168152602001915050600060405180830381600087803b15801561079e57600080fd5b505af11580156107b2573d6000803e3d6000fd5b505050506000809054906101000a900473ffffffffffffffffffffffffffffffffffffffff1673ffffffffffffffffffffffffffffffffffffffff1663fbd6d77e73dfa926750561ed3b3eca9899e6576958d85149d56040518263ffffffff1660e01b8152600401808273ffffffffffffffffffffffffffffffffffffffff1673ffffffffffffffffffffffffffffffffffffffff168152602001915050600060405180830381600087803b15801561086a57600080fd5b505af115801561087e573d6000803e3d6000fd5b505050506000809054906101000a900473ffffffffffffffffffffffffffffffffffffffff1673ffffffffffffffffffffffffffffffffffffffff166309fa423e6000809054906101000a900473ffffffffffffffffffffffffffffffffffffffff1673ffffffffffffffffffffffffffffffffffffffff16632f6a45d4733c28ee5a77b6aa58c79e10c8416f32c8d916705a73fba507d4eac1a2d4144335c793edae54d212fa2273896727c6198dda989ea9998d52548ec26f59a80b7378bc47cea54a29a3604f0750f77a67c1ab399b556377359400621e84806403a70820fa60006040518963ffffffff1660e01b8152600401808973ffffffffffffffffffffffffffffffffffffffff1673ffffffffffffffffffffffffffffffffffffffff1681526020018873ffffffffffffffffffffffffffffffffffffffff1673ffffffffffffffffffffffffffffffffffffffff1681526020018773ffffffffffffffffffffffffffffffffffffffff1673ffffffffffffffffffffffffffffffffffffffff1681526020018673ffffffffffffffffffffffffffffffffffffffff1673ffffffffffffffffffffffffffffffffffffffff1681526020018581526020018481526020018381526020018273ffffffffffffffffffffffffffffffffffffffff1673ffffffffffffffffffffffffffffffffffffffff16815260200198505050505050505050602060405180830381600087803b158015610aa457600080fd5b505af1158015610ab8573d6000803e3d6000fd5b505050506040513d6020811015610ace57600080fd5b81019080805190602001909291905050506040518263ffffffff1660e01b8152600401808273ffffffffffffffffffffffffffffffffffffffff1673ffffffffffffffffffffffffffffffffffffffff168152602001915050600060405180830381600087803b158015610b4157600080fd5b505af1158015610b55573d6000803e3d6000fd5b505050506000809054906101000a900473ffffffffffffffffffffffffffffffffffffffff1673ffffffffffffffffffffffffffffffffffffffff166309fa423e6000809054906101000a900473ffffffffffffffffffffffffffffffffffffffff1673ffffffffffffffffffffffffffffffffffffffff16632f6a45d4733c28ee5a77b6aa58c79e10c8416f32c8d916705a73fba507d4eac1a2d4144335c793edae54d212fa22732989bd5a3c39fd3fedad5158b56320384c087e3473896727c6198dda989ea9998d52548ec26f59a80b63b2d05e006203d0906403a70820fa60006040518963ffffffff1660e01b8152600401808973ffffffffffffffffffffffffffffffffffffffff1673ffffffffffffffffffffffffffffffffffffffff1681526020018873ffffffffffffffffffffffffffffffffffffffff1673ffffffffffffffffffffffffffffffffffffffff1681526020018773ffffffffffffffffffffffffffffffffffffffff1673ffffffffffffffffffffffffffffffffffffffff1681526020018673ffffffffffffffffffffffffffffffffffffffff1673ffffffffffffffffffffffffffffffffffffffff1681526020018581526020018481526020018381526020018273ffffffffffffffffffffffffffffffffffffffff1673ffffffffffffffffffffffffffffffffffffffff16815260200198505050505050505050602060405180830381600087803b158015610d7b57600080fd5b505af1158015610d8f573d6000803e3d6000fd5b505050506040513d6020811015610da557600080fd5b81019080805190602001909291905050506040518263ffffffff1660e01b8152600401808273ffffffffffffffffffffffffffffffffffffffff1673ffffffffffffffffffffffffffffffffffffffff168152602001915050600060405180830381600087803b158015610e1857600080fd5b505af1158015610e2c573d6000803e3d6000fd5b505050506000809054906101000a900473ffffffffffffffffffffffffffffffffffffffff1673ffffffffffffffffffffffffffffffffffffffff166309fa423e6000809054906101000a900473ffffffffffffffffffffffffffffffffffffffff1673ffffffffffffffffffffffffffffffffffffffff16632f6a45d4733c28ee5a77b6aa58c79e10c8416f32c8d916705a73fba507d4eac1a2d4144335c793edae54d212fa22732989bd5a3c39fd3fedad5158b56320384c087e347378bc47cea54a29a3604f0750f77a67c1ab399b55640165a0bc00620a2c2a6403a70820fa60006040518963ffffffff1660e01b8152600401808973ffffffffffffffffffffffffffffffffffffffff1673ffffffffffffffffffffffffffffffffffffffff1681526020018873ffffffffffffffffffffffffffffffffffffffff1673ffffffffffffffffffffffffffffffffffffffff1681526020018773ffffffffffffffffffffffffffffffffffffffff1673ffffffffffffffffffffffffffffffffffffffff1681526020018673ffffffffffffffffffffffffffffffffffffffff1673ffffffffffffffffffffffffffffffffffffffff1681526020018581526020018481526020018381526020018273ffffffffffffffffffffffffffffffffffffffff1673ffffffffffffffffffffffffffffffffffffffff16815260200198505050505050505050602060405180830381600087803b15801561105357600080fd5b505af1158015611067573d6000803e3d6000fd5b505050506040513d602081101561107d57600080fd5b81019080805190602001909291905050506040518263ffffffff1660e01b8152600401808273ffffffffffffffffffffffffffffffffffffffff1673ffffffffffffffffffffffffffffffffffffffff168152602001915050600060405180830381600087803b1580156110f057600080fd5b505af1158015611104573d6000803e3d6000fd5b505050506000809054906101000a900473ffffffffffffffffffffffffffffffffffffffff1673ffffffffffffffffffffffffffffffffffffffff166309fa423e6000809054906101000a900473ffffffffffffffffffffffffffffffffffffffff1673ffffffffffffffffffffffffffffffffffffffff16632f6a45d4733c28ee5a77b6aa58c79e10c8416f32c8d916705a73fba507d4eac1a2d4144335c793edae54d212fa227378bc47cea54a29a3604f0750f77a67c1ab399b5573896727c6198dda989ea9998d52548ec26f59a80b633b9aca00620a2c2a6403a70820fa60006040518963ffffffff1660e01b8152600401808973ffffffffffffffffffffffffffffffffffffffff1673ffffffffffffffffffffffffffffffffffffffff1681526020018873ffffffffffffffffffffffffffffffffffffffff1673ffffffffffffffffffffffffffffffffffffffff1681526020018773ffffffffffffffffffffffffffffffffffffffff1673ffffffffffffffffffffffffffffffffffffffff1681526020018673ffffffffffffffffffffffffffffffffffffffff1673ffffffffffffffffffffffffffffffffffffffff1681526020018581526020018481526020018381526020018273ffffffffffffffffffffffffffffffffffffffff1673ffffffffffffffffffffffffffffffffffffffff16815260200198505050505050505050602060405180830381600087803b15801561132a57600080fd5b505af115801561133e573d6000803e3d6000fd5b505050506040513d602081101561135457600080fd5b81019080805190602001909291905050506040518263ffffffff1660e01b8152600401808273ffffffffffffffffffffffffffffffffffffffff1673ffffffffffffffffffffffffffffffffffffffff168152602001915050600060405180830381600087803b1580156113c757600080fd5b505af11580156113db573d6000803e3d6000fd5b5050505056fea165627a7a72305820a20b3b77b603e8695233d6d997c88bb73b6b8a96e71c6051684a4e2cc1babd8b0029",
  "source": "pragma solidity ^0.5.0;\nimport \"./Netereum.sol\";\ncontract test {\n    Netereum bart;\n    function set(address addr) public\n    {\n        bart = Netereum(address (addr));\n    }\n    function build() public\n    {\n        bart.addCoordinator(0x78bc47CeA54A29a3604F0750f77a67C1Ab399B55);//mellat\n        bart.addCoordinator(0x9e1f8a4f804CE710e06C2155033B3d6dEb767a30);//wells fargo\n        bart.addCoordinator(0x896727C6198ddA989eA9998D52548ec26F59a80b);//vtb\n        bart.addCoordinator(0x2989BD5a3C39fd3FeDAD5158B56320384C087e34);//macau\n        bart.addCoordinator(0xc30043BC49b05eDCd975EC4cd245B257078A0728);//bank of china\n        bart.addCoordinator(0xdFA926750561eD3b3EcA9899e6576958D85149D5);//tejarat\n        //mellat to vtb\n        bart.addAgreement(bart.createAgreement(0x3c28ee5a77b6aa58c79E10C8416f32C8d916705a,0xfBa507d4eAc1A2D4144335C793Edae54d212fa22,\n        0x896727C6198ddA989eA9998D52548ec26F59a80b,0x78bc47CeA54A29a3604F0750f77a67C1Ab399B55,2000000000,2000000,15687229690,address(0)));\n        // vtb to macau\n        bart.addAgreement(bart.createAgreement(0x3c28ee5a77b6aa58c79E10C8416f32C8d916705a,0xfBa507d4eAc1A2D4144335C793Edae54d212fa22,\n            0x2989BD5a3C39fd3FeDAD5158B56320384C087e34,0x896727C6198ddA989eA9998D52548ec26F59a80b,3000000000,250000,15687229690,address(0)));\n        //mellat to macau\n        bart.addAgreement(bart.createAgreement(0x3c28ee5a77b6aa58c79E10C8416f32C8d916705a,0xfBa507d4eAc1A2D4144335C793Edae54d212fa22,\n            0x2989BD5a3C39fd3FeDAD5158B56320384C087e34,0x78bc47CeA54A29a3604F0750f77a67C1Ab399B55,6000000000,666666,15687229690,address(0)));\n        //vtb to mellat\n        bart.addAgreement(bart.createAgreement(0x3c28ee5a77b6aa58c79E10C8416f32C8d916705a,0xfBa507d4eAc1A2D4144335C793Edae54d212fa22,\n            0x78bc47CeA54A29a3604F0750f77a67C1Ab399B55,0x896727C6198ddA989eA9998D52548ec26F59a80b,1000000000,666666,15687229690,address(0)));\n    }\n    function build2() public\n    {\n        bart.addAgreement(bart.createAgreement(0x3c28ee5a77b6aa58c79E10C8416f32C8d916705a,0xfBa507d4eAc1A2D4144335C793Edae54d212fa22,\n        0x78bc47CeA54A29a3604F0750f77a67C1Ab399B55, 0x2989BD5a3C39fd3FeDAD5158B56320384C087e34,600000000,666666,15687229690,address(0)));\n    }\n\n//app.createTransaction.call('0x7792793A427B086480732279a3377f494FbFF5a7','0x2F61Bc9f8e2028de340d854ffF7187A2bC9C6f6d','0x78bc47CeA54A29a3604F0750f77a67C1Ab399B55','0x2989BD5a3C39fd3FeDAD5158B56320384C087e34','400000000','600000000')\n//Netereum.deployed().then(function(instance){app = instance})\n//test.deployed().then(function(instance){app = instance})\n    //app.getAmount.call(0,0).then(function(inst){inst = inst.toNumber(); console.log(inst)})\n}\n\n\n//app.createTransaction.call('0x7792793A427B086480732279a3377f494FbFF5a7','0x2F61Bc9f8e2028de340d854ffF7187A2bC9C6f6d','0x78bc47CeA54A29a3604F0750f77a67C1Ab399B55','0x2989BD5a3C39fd3FeDAD5158B56320384C087e34','400000000','3000000000')",
  "sourcePath": "/home/momi/WebstormProjects/Netereum/contracts/test.sol",
  "compiler": {
    "name": "solc",
    "version": "0.5.8+commit.23d335f2.Emscripten.clang"
  },
  "schemaVersion": "3.0.16",
  "updatedAt": "2019-11-04T09:45:02.194Z",
  "devdoc": {
    "methods": {}
  },
  "userdoc": {
    "methods": {}
  }
}