{
  "contractName": "ToolFactory",
  "abi": [
    {
      "constant": false,
      "inputs": [],
      "name": "create",
      "outputs": [
        {
          "name": "",
          "type": "address"
        }
      ],
      "payable": false,
      "stateMutability": "nonpayable",
      "type": "function"
    }
  ],
  "bytecode": "0x608060405234801561001057600080fd5b5061027f806100206000396000f3fe608060405234801561001057600080fd5b506004361061002b5760003560e01c8063efc81a8c14610030575b600080fd5b61003861007a565b604051808273ffffffffffffffffffffffffffffffffffffffff1673ffffffffffffffffffffffffffffffffffffffff16815260200191505060405180910390f35b6000604051610088906100aa565b604051809103906000f0801580156100a4573d6000803e3d6000fd5b50905090565b61019c806100b88339019056fe608060405234801561001057600080fd5b5061017c806100206000396000f3fe608060405234801561001057600080fd5b506004361061002b5760003560e01c80639792bc0e14610030575b600080fd5b61005c6004803603602081101561004657600080fd5b8101908080359060200190929190505050610072565b6040518082815260200191505060405180910390f35b6000620f42408212156100995762d2ced261009183620f4240026100aa565b0390506100a5565b6100a2826100aa565b90505b919050565b600080600090505b6216e36083126100d95762062fd981019050600360028402816100d157fe5b0592506100b2565b620f42408303925060008390506000600190505b600a811215610145578082816100ff57fe5b0583019250600181019050620f42408583028161011857fe5b05915080828161012457fe5b0583039250600181019050620f42408583028161013d57fe5b0591506100ed565b82935050505091905056fea165627a7a72305820e35be4d89d6273bbc4763687aa7c237b7f7044acf3462964b403b5ab657d77180029a165627a7a7230582030c24592df0807915d41a1c4677b16d6a6466919a163a02ba144e1f1f5d9b4430029",
  "source": "pragma solidity ^0.5.0;\nimport \"./Tools.sol\";\ncontract ToolFactory {\n    function create() public returns(Tools)\n    {\n        return new Tools();\n    }\n}\n",
  "sourcePath": "/home/momi/WebstormProjects/Netereum/contracts/ToolFactory.sol",
  "compiler": {
    "name": "solc",
    "version": "0.5.8+commit.23d335f2.Emscripten.clang"
  },
  "schemaVersion": "3.0.16",
  "updatedAt": "2019-11-04T09:45:02.191Z",
  "devdoc": {
    "methods": {}
  },
  "userdoc": {
    "methods": {}
  }
}