{
  "contractName": "Tools",
  "abi": [
    {
      "constant": false,
      "inputs": [
        {
          "name": "x",
          "type": "int256"
        }
      ],
      "name": "logarithm",
      "outputs": [
        {
          "name": "",
          "type": "int256"
        }
      ],
      "payable": false,
      "stateMutability": "nonpayable",
      "type": "function"
    }
  ],
  "bytecode": "0x608060405234801561001057600080fd5b5061017c806100206000396000f3fe608060405234801561001057600080fd5b506004361061002b5760003560e01c80639792bc0e14610030575b600080fd5b61005c6004803603602081101561004657600080fd5b8101908080359060200190929190505050610072565b6040518082815260200191505060405180910390f35b6000620f42408212156100995762d2ced261009183620f4240026100aa565b0390506100a5565b6100a2826100aa565b90505b919050565b600080600090505b6216e36083126100d95762062fd981019050600360028402816100d157fe5b0592506100b2565b620f42408303925060008390506000600190505b600a811215610145578082816100ff57fe5b0583019250600181019050620f42408583028161011857fe5b05915080828161012457fe5b0583039250600181019050620f42408583028161013d57fe5b0591506100ed565b82935050505091905056fea165627a7a72305820e35be4d89d6273bbc4763687aa7c237b7f7044acf3462964b403b5ab657d77180029",
  "source": "pragma solidity ^0.5.0;\n\ncontract Tools {\n    function logarithmBiggerThanOne(int256 x) internal returns(int256) /*for a given number x, this function returns the correct log(x) * 10 ^6                                                                       if x * 10^6 is given as the argument.\n                                                                        note that x * 10^6 should be more than 10^6 and less than MAX_INT/2*/\n    {\n        int256 LOG = 0;\n        while (x >= 1500000)\n        {\n            LOG = LOG + 405465;\n            x = (x * 2) / 3;\n        }\n        x = x - 1000000;\n        int256 y = x;\n        int256 i = 1;\n        while (i < 10)\n        {\n            LOG = LOG + (y / i);\n            i = i + 1;\n            y = y * x / 1000000;\n            LOG = LOG - (y / i);\n            i = i + 1;\n            y = y * x / 1000000;\n        }\n        return LOG;\n    }\n    function logarithm(int256 x) public returns(int256)\n    {\n        if(x < 1000000)\n        {\n            return (logarithmBiggerThanOne(1000000 * x)) - 13815506;// 13815506 is logarithmBiggerThanOne(10^12)\n        }\n        else return logarithmBiggerThanOne(x);\n    }\n}\n",
  "sourcePath": "/home/momi/WebstormProjects/Netereum/contracts/Tools.sol",
  "compiler": {
    "name": "solc",
    "version": "0.5.8+commit.23d335f2.Emscripten.clang"
  },
  "schemaVersion": "3.0.16",
  "updatedAt": "2019-11-04T09:45:02.191Z",
  "devdoc": {
    "methods": {}
  },
  "userdoc": {
    "methods": {}
  }
}