{
  "contractName": "TransactionFactory",
  "abi": [
    {
      "constant": false,
      "inputs": [
        {
          "name": "_buyer",
          "type": "address"
        },
        {
          "name": "_seller",
          "type": "address"
        },
        {
          "name": "_buyerCoordinator",
          "type": "address"
        },
        {
          "name": "_sellerCoordinator",
          "type": "address"
        },
        {
          "name": "_buyerCost",
          "type": "uint256"
        },
        {
          "name": "_sellerCost",
          "type": "uint256"
        },
        {
          "name": "_NetereumAddress",
          "type": "address"
        }
      ],
      "name": "create",
      "outputs": [
        {
          "name": "",
          "type": "address"
        }
      ],
      "payable": false,
      "stateMutability": "nonpayable",
      "type": "function"
    }
  ],
  "bytecode": "0x608060405234801561001057600080fd5b506115e2806100206000396000f3fe608060405234801561001057600080fd5b506004361061002b5760003560e01c8063424becc314610030575b600080fd5b610106600480360360e081101561004657600080fd5b81019080803573ffffffffffffffffffffffffffffffffffffffff169060200190929190803573ffffffffffffffffffffffffffffffffffffffff169060200190929190803573ffffffffffffffffffffffffffffffffffffffff169060200190929190803573ffffffffffffffffffffffffffffffffffffffff1690602001909291908035906020019092919080359060200190929190803573ffffffffffffffffffffffffffffffffffffffff169060200190929190505050610148565b604051808273ffffffffffffffffffffffffffffffffffffffff1673ffffffffffffffffffffffffffffffffffffffff16815260200191505060405180910390f35b60008787878787878760405161015d90610297565b808873ffffffffffffffffffffffffffffffffffffffff1673ffffffffffffffffffffffffffffffffffffffff1681526020018773ffffffffffffffffffffffffffffffffffffffff1673ffffffffffffffffffffffffffffffffffffffff1681526020018673ffffffffffffffffffffffffffffffffffffffff1673ffffffffffffffffffffffffffffffffffffffff1681526020018573ffffffffffffffffffffffffffffffffffffffff1673ffffffffffffffffffffffffffffffffffffffff1681526020018481526020018381526020018273ffffffffffffffffffffffffffffffffffffffff1673ffffffffffffffffffffffffffffffffffffffff168152602001975050505050505050604051809103906000f080158015610289573d6000803e3d6000fd5b509050979650505050505050565b611312806102a58339019056fe608060405260016000806101000a81548160ff021916908360ff1602179055506000600b60146101000a81548160ff02191690831515021790555034801561004657600080fd5b5060405160e080611312833981018060405260e081101561006657600080fd5b810190808051906020019092919080519060200190929190805190602001909291908051906020019092919080519060200190929190805190602001909291908051906020019092919050505086600460006101000a81548173ffffffffffffffffffffffffffffffffffffffff021916908373ffffffffffffffffffffffffffffffffffffffff16021790555085600560006101000a81548173ffffffffffffffffffffffffffffffffffffffff021916908373ffffffffffffffffffffffffffffffffffffffff16021790555084600660006101000a81548173ffffffffffffffffffffffffffffffffffffffff021916908373ffffffffffffffffffffffffffffffffffffffff16021790555083600760006101000a81548173ffffffffffffffffffffffffffffffffffffffff021916908373ffffffffffffffffffffffffffffffffffffffff160217905550826009819055508160088190555080600b60006101000a81548173ffffffffffffffffffffffffffffffffffffffff021916908373ffffffffffffffffffffffffffffffffffffffff160217905550505050505050506110f68061021c6000396000f3fe608060405234801561001057600080fd5b50600436106101005760003560e01c806367cbdde011610097578063ab04010711610066578063ab04010714610319578063b8db04b514610323578063e5a5159814610345578063fa2040d71461036957610100565b806367cbdde014610265578063710e5d2f14610283578063844e329f146102b1578063a9a56af3146102fb57610100565b8063452bd98b116100d3578063452bd98b146101955780634ddf8492146101b3578063507c5fed146101d15780635dcc94291461021b57610100565b806301f59d161461010557806312424e3f146101235780632b8f92291461012d5780633cbb10fa1461014b575b600080fd5b61010d6103b3565b6040518082815260200191505060405180910390f35b61012b6103b9565b005b610135610871565b6040518082815260200191505060405180910390f35b610153610877565b604051808273ffffffffffffffffffffffffffffffffffffffff1673ffffffffffffffffffffffffffffffffffffffff16815260200191505060405180910390f35b61019d61089d565b6040518082815260200191505060405180910390f35b6101bb6108a3565b6040518082815260200191505060405180910390f35b6101d96108a9565b604051808273ffffffffffffffffffffffffffffffffffffffff1673ffffffffffffffffffffffffffffffffffffffff16815260200191505060405180910390f35b6102236108cf565b604051808273ffffffffffffffffffffffffffffffffffffffff1673ffffffffffffffffffffffffffffffffffffffff16815260200191505060405180910390f35b61026d6108f5565b6040518082815260200191505060405180910390f35b6102af6004803603602081101561029957600080fd5b81019080803590602001909291905050506108fb565b005b6102b9610b0b565b604051808273ffffffffffffffffffffffffffffffffffffffff1673ffffffffffffffffffffffffffffffffffffffff16815260200191505060405180910390f35b610303610b31565b6040518082815260200191505060405180910390f35b610321610b37565b005b61032b61107f565b604051808215151515815260200191505060405180910390f35b61034d611092565b604051808260ff1660ff16815260200191505060405180910390f35b6103716110a4565b604051808273ffffffffffffffffffffffffffffffffffffffff1673ffffffffffffffffffffffffffffffffffffffff16815260200191505060405180910390f35b600a5481565b600460009054906101000a900473ffffffffffffffffffffffffffffffffffffffff1673ffffffffffffffffffffffffffffffffffffffff163373ffffffffffffffffffffffffffffffffffffffff1614806104625750600560009054906101000a900473ffffffffffffffffffffffffffffffffffffffff1673ffffffffffffffffffffffffffffffffffffffff163373ffffffffffffffffffffffffffffffffffffffff16145b806104ba5750600660009054906101000a900473ffffffffffffffffffffffffffffffffffffffff1673ffffffffffffffffffffffffffffffffffffffff163373ffffffffffffffffffffffffffffffffffffffff16145b806105125750600760009054906101000a900473ffffffffffffffffffffffffffffffffffffffff1673ffffffffffffffffffffffffffffffffffffffff163373ffffffffffffffffffffffffffffffffffffffff16145b610584576040517f08c379a00000000000000000000000000000000000000000000000000000000081526004018080602001828103825260028152602001807f313900000000000000000000000000000000000000000000000000000000000081525060200191505060405180910390fd5b600560009054906101000a900473ffffffffffffffffffffffffffffffffffffffff1673ffffffffffffffffffffffffffffffffffffffff163373ffffffffffffffffffffffffffffffffffffffff161480156105e357506000600154145b15610625576001808190555060008081819054906101000a900460ff168092919060010191906101000a81548160ff021916908360ff16021790555050610767565b600660009054906101000a900473ffffffffffffffffffffffffffffffffffffffff1673ffffffffffffffffffffffffffffffffffffffff163373ffffffffffffffffffffffffffffffffffffffff1614801561068457506000600254145b156106c757600160028190555060008081819054906101000a900460ff168092919060010191906101000a81548160ff021916908360ff16021790555050610766565b600760009054906101000a900473ffffffffffffffffffffffffffffffffffffffff1673ffffffffffffffffffffffffffffffffffffffff163373ffffffffffffffffffffffffffffffffffffffff1614801561072657506000600354145b1561076557600160038190555060008081819054906101000a900460ff168092919060010191906101000a81548160ff021916908360ff160217905550505b5b5b600b60149054906101000a900460ff16158015610795575060046000809054906101000a900460ff1660ff16145b1561086f576001600b60146101000a81548160ff021916908315150217905550600b60009054906101000a900473ffffffffffffffffffffffffffffffffffffffff1673ffffffffffffffffffffffffffffffffffffffff1663ce55d026306040518263ffffffff1660e01b8152600401808273ffffffffffffffffffffffffffffffffffffffff1673ffffffffffffffffffffffffffffffffffffffff168152602001915050600060405180830381600087803b15801561085657600080fd5b505af115801561086a573d6000803e3d6000fd5b505050505b565b60035481565b600560009054906101000a900473ffffffffffffffffffffffffffffffffffffffff1681565b60015481565b60085481565b600460009054906101000a900473ffffffffffffffffffffffffffffffffffffffff1681565b600660009054906101000a900473ffffffffffffffffffffffffffffffffffffffff1681565b60095481565b600460009054906101000a900473ffffffffffffffffffffffffffffffffffffffff1673ffffffffffffffffffffffffffffffffffffffff163273ffffffffffffffffffffffffffffffffffffffff161461095557600080fd5b600b60009054906101000a900473ffffffffffffffffffffffffffffffffffffffff1673ffffffffffffffffffffffffffffffffffffffff163373ffffffffffffffffffffffffffffffffffffffff16146109af57600080fd5b6001600b60009054906101000a900473ffffffffffffffffffffffffffffffffffffffff1673ffffffffffffffffffffffffffffffffffffffff1663c94d5ec3306040518263ffffffff1660e01b8152600401808273ffffffffffffffffffffffffffffffffffffffff1673ffffffffffffffffffffffffffffffffffffffff16815260200191505060206040518083038186803b158015610a5057600080fd5b505afa158015610a64573d6000803e3d6000fd5b505050506040513d6020811015610a7a57600080fd5b810190808051906020019092919050505060ff1614610b01576040517f08c379a00000000000000000000000000000000000000000000000000000000081526004018080602001828103825260018152602001807f390000000000000000000000000000000000000000000000000000000000000081525060200191505060405180910390fd5b80600a8190555050565b600760009054906101000a900473ffffffffffffffffffffffffffffffffffffffff1681565b60025481565b600460009054906101000a900473ffffffffffffffffffffffffffffffffffffffff1673ffffffffffffffffffffffffffffffffffffffff163373ffffffffffffffffffffffffffffffffffffffff161480610be05750600560009054906101000a900473ffffffffffffffffffffffffffffffffffffffff1673ffffffffffffffffffffffffffffffffffffffff163373ffffffffffffffffffffffffffffffffffffffff16145b80610c385750600660009054906101000a900473ffffffffffffffffffffffffffffffffffffffff1673ffffffffffffffffffffffffffffffffffffffff163373ffffffffffffffffffffffffffffffffffffffff16145b80610c905750600760009054906101000a900473ffffffffffffffffffffffffffffffffffffffff1673ffffffffffffffffffffffffffffffffffffffff163373ffffffffffffffffffffffffffffffffffffffff16145b610d02576040517f08c379a00000000000000000000000000000000000000000000000000000000081526004018080602001828103825260028152602001807f313900000000000000000000000000000000000000000000000000000000000081525060200191505060405180910390fd5b600560009054906101000a900473ffffffffffffffffffffffffffffffffffffffff1673ffffffffffffffffffffffffffffffffffffffff163373ffffffffffffffffffffffffffffffffffffffff16148015610d6157506000600154145b15610e2c576002600181905550600b60009054906101000a900473ffffffffffffffffffffffffffffffffffffffff1673ffffffffffffffffffffffffffffffffffffffff16638bd06b3f306040518263ffffffff1660e01b8152600401808273ffffffffffffffffffffffffffffffffffffffff1673ffffffffffffffffffffffffffffffffffffffff168152602001915050600060405180830381600087803b158015610e0f57600080fd5b505af1158015610e23573d6000803e3d6000fd5b5050505061107d565b600660009054906101000a900473ffffffffffffffffffffffffffffffffffffffff1673ffffffffffffffffffffffffffffffffffffffff163373ffffffffffffffffffffffffffffffffffffffff16148015610e8b57506000600254145b15610f555760028081905550600b60009054906101000a900473ffffffffffffffffffffffffffffffffffffffff1673ffffffffffffffffffffffffffffffffffffffff16638bd06b3f306040518263ffffffff1660e01b8152600401808273ffffffffffffffffffffffffffffffffffffffff1673ffffffffffffffffffffffffffffffffffffffff168152602001915050600060405180830381600087803b158015610f3857600080fd5b505af1158015610f4c573d6000803e3d6000fd5b5050505061107c565b600760009054906101000a900473ffffffffffffffffffffffffffffffffffffffff1673ffffffffffffffffffffffffffffffffffffffff163373ffffffffffffffffffffffffffffffffffffffff16148015610fb457506000600254145b1561107b576002600381905550600b60009054906101000a900473ffffffffffffffffffffffffffffffffffffffff1673ffffffffffffffffffffffffffffffffffffffff16638bd06b3f306040518263ffffffff1660e01b8152600401808273ffffffffffffffffffffffffffffffffffffffff1673ffffffffffffffffffffffffffffffffffffffff168152602001915050600060405180830381600087803b15801561106257600080fd5b505af1158015611076573d6000803e3d6000fd5b505050505b5b5b565b600b60149054906101000a900460ff1681565b6000809054906101000a900460ff1681565b600b60009054906101000a900473ffffffffffffffffffffffffffffffffffffffff168156fea165627a7a723058203fb502dcea1e1f59c7dab342ca8a7fd656fe041c1c9cc7d2ea25ab188c715bdf0029a165627a7a72305820591f30fcdb011980adfcd1c857706afb08c3f1c9cdcd78dc3c4350b79ef15d3e0029",
  "source": "pragma solidity ^0.5.0;\n\nimport \"./Transaction.sol\";\n\ncontract TransactionFactory {\n    function create(address _buyer, address _seller,\n        address _buyerCoordinator, address _sellerCoordinator,\n        uint256 _buyerCost, uint256 _sellerCost,address _NetereumAddress) public returns(Transaction)\n    {\n        return new Transaction(_buyer, _seller, _buyerCoordinator, _sellerCoordinator,\n            _buyerCost, _sellerCost,_NetereumAddress);\n    }\n}\n",
  "sourcePath": "/home/momi/WebstormProjects/Netereum/contracts/Transaction Factory.sol",
  "compiler": {
    "name": "solc",
    "version": "0.5.8+commit.23d335f2.Emscripten.clang"
  },
  "schemaVersion": "3.0.16",
  "updatedAt": "2019-11-04T09:45:02.192Z",
  "devdoc": {
    "methods": {}
  },
  "userdoc": {
    "methods": {}
  }
}