{
  "contractName": "Transaction",
  "abi": [
    {
      "constant": true,
      "inputs": [],
      "name": "seller",
      "outputs": [
        {
          "name": "",
          "type": "address"
        }
      ],
      "payable": false,
      "stateMutability": "view",
      "type": "function"
    },
    {
      "constant": true,
      "inputs": [],
      "name": "buyerCoordinatorPermission",
      "outputs": [
        {
          "name": "",
          "type": "uint256"
        }
      ],
      "payable": false,
      "stateMutability": "view",
      "type": "function"
    },
    {
      "constant": true,
      "inputs": [],
      "name": "buyer",
      "outputs": [
        {
          "name": "",
          "type": "address"
        }
      ],
      "payable": false,
      "stateMutability": "view",
      "type": "function"
    },
    {
      "constant": true,
      "inputs": [],
      "name": "netereumAddress",
      "outputs": [
        {
          "name": "",
          "type": "address"
        }
      ],
      "payable": false,
      "stateMutability": "view",
      "type": "function"
    },
    {
      "constant": true,
      "inputs": [],
      "name": "buyerCost",
      "outputs": [
        {
          "name": "",
          "type": "uint256"
        }
      ],
      "payable": false,
      "stateMutability": "view",
      "type": "function"
    },
    {
      "constant": true,
      "inputs": [],
      "name": "declinedBy",
      "outputs": [
        {
          "name": "",
          "type": "uint8"
        }
      ],
      "payable": false,
      "stateMutability": "view",
      "type": "function"
    },
    {
      "constant": true,
      "inputs": [],
      "name": "buyerCoordinator",
      "outputs": [
        {
          "name": "",
          "type": "address"
        }
      ],
      "payable": false,
      "stateMutability": "view",
      "type": "function"
    },
    {
      "constant": true,
      "inputs": [],
      "name": "sellerPermission",
      "outputs": [
        {
          "name": "",
          "type": "uint256"
        }
      ],
      "payable": false,
      "stateMutability": "view",
      "type": "function"
    },
    {
      "constant": true,
      "inputs": [],
      "name": "sellerCoordinator",
      "outputs": [
        {
          "name": "",
          "type": "address"
        }
      ],
      "payable": false,
      "stateMutability": "view",
      "type": "function"
    },
    {
      "constant": true,
      "inputs": [],
      "name": "counterPermission",
      "outputs": [
        {
          "name": "",
          "type": "uint8"
        }
      ],
      "payable": false,
      "stateMutability": "view",
      "type": "function"
    },
    {
      "constant": true,
      "inputs": [],
      "name": "netereumCalled",
      "outputs": [
        {
          "name": "",
          "type": "bool"
        }
      ],
      "payable": false,
      "stateMutability": "view",
      "type": "function"
    },
    {
      "constant": true,
      "inputs": [],
      "name": "sellerCost",
      "outputs": [
        {
          "name": "",
          "type": "uint256"
        }
      ],
      "payable": false,
      "stateMutability": "view",
      "type": "function"
    },
    {
      "constant": true,
      "inputs": [],
      "name": "sellerCoordinatorPermission",
      "outputs": [
        {
          "name": "",
          "type": "uint256"
        }
      ],
      "payable": false,
      "stateMutability": "view",
      "type": "function"
    },
    {
      "inputs": [
        {
          "name": "_buyer",
          "type": "address"
        },
        {
          "name": "_seller",
          "type": "address"
        },
        {
          "name": "_buyerCoordinator",
          "type": "address"
        },
        {
          "name": "_sellerCoordinator",
          "type": "address"
        },
        {
          "name": "_buyerCost",
          "type": "uint256"
        },
        {
          "name": "_sellerCost",
          "type": "uint256"
        },
        {
          "name": "_netereumAddress",
          "type": "address"
        }
      ],
      "payable": false,
      "stateMutability": "nonpayable",
      "type": "constructor"
    },
    {
      "constant": false,
      "inputs": [],
      "name": "approve",
      "outputs": [],
      "payable": false,
      "stateMutability": "nonpayable",
      "type": "function"
    },
    {
      "constant": false,
      "inputs": [],
      "name": "decline",
      "outputs": [],
      "payable": false,
      "stateMutability": "nonpayable",
      "type": "function"
    },
    {
      "constant": false,
      "inputs": [
        {
          "name": "newBuyerCost",
          "type": "uint256"
        }
      ],
      "name": "setMaxFund",
      "outputs": [],
      "payable": false,
      "stateMutability": "nonpayable",
      "type": "function"
    }
  ],
  "bytecode": "0x608060405260016000806101000a81548160ff021916908360ff1602179055506000600155600060025560006003556000600a60146101000a81548160ff0219169083151502179055506000600a60156101000a81548160ff021916908360ff16021790555034801561007157600080fd5b5060405160e08061121a833981018060405260e081101561009157600080fd5b810190808051906020019092919080519060200190929190805190602001909291908051906020019092919080519060200190929190805190602001909291908051906020019092919050505086600460006101000a81548173ffffffffffffffffffffffffffffffffffffffff021916908373ffffffffffffffffffffffffffffffffffffffff16021790555085600560006101000a81548173ffffffffffffffffffffffffffffffffffffffff021916908373ffffffffffffffffffffffffffffffffffffffff16021790555084600660006101000a81548173ffffffffffffffffffffffffffffffffffffffff021916908373ffffffffffffffffffffffffffffffffffffffff16021790555083600760006101000a81548173ffffffffffffffffffffffffffffffffffffffff021916908373ffffffffffffffffffffffffffffffffffffffff160217905550826008819055508160098190555080600a60006101000a81548173ffffffffffffffffffffffffffffffffffffffff021916908373ffffffffffffffffffffffffffffffffffffffff16021790555050505050505050610fd3806102476000396000f3fe608060405234801561001057600080fd5b50600436106101005760003560e01c8063ab04010711610097578063e5a5159811610066578063e5a5159814610337578063e6e988181461035b578063e9b0a5da1461037d578063feb7f6041461039b57610100565b8063ab0401071461027b578063b72904bb14610285578063cac5b311146102cf578063e2398b47146102ed57610100565b80638882baf3116100d35780638882baf3146101c15780638ad6295d1461020b5780638d85388c146102295780639acadb871461024d57610100565b806308551a5314610105578063113fd4f11461014f57806312424e3f1461016d5780637150d8ae14610177575b600080fd5b61010d6103b9565b604051808273ffffffffffffffffffffffffffffffffffffffff1673ffffffffffffffffffffffffffffffffffffffff16815260200191505060405180910390f35b6101576103df565b6040518082815260200191505060405180910390f35b6101756103e5565b005b61017f6108cd565b604051808273ffffffffffffffffffffffffffffffffffffffff1673ffffffffffffffffffffffffffffffffffffffff16815260200191505060405180910390f35b6101c96108f3565b604051808273ffffffffffffffffffffffffffffffffffffffff1673ffffffffffffffffffffffffffffffffffffffff16815260200191505060405180910390f35b610213610919565b6040518082815260200191505060405180910390f35b61023161091f565b604051808260ff1660ff16815260200191505060405180910390f35b6102796004803603602081101561026357600080fd5b8101908080359060200190929190505050610932565b005b610283610af0565b005b61028d610eef565b604051808273ffffffffffffffffffffffffffffffffffffffff1673ffffffffffffffffffffffffffffffffffffffff16815260200191505060405180910390f35b6102d7610f15565b6040518082815260200191505060405180910390f35b6102f5610f1b565b604051808273ffffffffffffffffffffffffffffffffffffffff1673ffffffffffffffffffffffffffffffffffffffff16815260200191505060405180910390f35b61033f610f41565b604051808260ff1660ff16815260200191505060405180910390f35b610363610f53565b604051808215151515815260200191505060405180910390f35b610385610f66565b6040518082815260200191505060405180910390f35b6103a3610f6c565b6040518082815260200191505060405180910390f35b600560009054906101000a900473ffffffffffffffffffffffffffffffffffffffff1681565b60025481565b600560009054906101000a900473ffffffffffffffffffffffffffffffffffffffff1673ffffffffffffffffffffffffffffffffffffffff163373ffffffffffffffffffffffffffffffffffffffff16148061048e5750600760009054906101000a900473ffffffffffffffffffffffffffffffffffffffff1673ffffffffffffffffffffffffffffffffffffffff163373ffffffffffffffffffffffffffffffffffffffff16145b806104e65750600660009054906101000a900473ffffffffffffffffffffffffffffffffffffffff1673ffffffffffffffffffffffffffffffffffffffff163373ffffffffffffffffffffffffffffffffffffffff16145b610558576040517f08c379a00000000000000000000000000000000000000000000000000000000081526004018080602001828103825260028152602001807f313900000000000000000000000000000000000000000000000000000000000081525060200191505060405180910390fd5b6000600a60159054906101000a900460ff1660ff16146105e0576040517f08c379a00000000000000000000000000000000000000000000000000000000081526004018080602001828103825260028152602001807f323200000000000000000000000000000000000000000000000000000000000081525060200191505060405180910390fd5b600560009054906101000a900473ffffffffffffffffffffffffffffffffffffffff1673ffffffffffffffffffffffffffffffffffffffff163373ffffffffffffffffffffffffffffffffffffffff1614801561063f57506000600154145b15610681576001808190555060008081819054906101000a900460ff168092919060010191906101000a81548160ff021916908360ff160217905550506107c3565b600760009054906101000a900473ffffffffffffffffffffffffffffffffffffffff1673ffffffffffffffffffffffffffffffffffffffff163373ffffffffffffffffffffffffffffffffffffffff161480156106e057506000600354145b1561072357600160038190555060008081819054906101000a900460ff168092919060010191906101000a81548160ff021916908360ff160217905550506107c2565b600660009054906101000a900473ffffffffffffffffffffffffffffffffffffffff1673ffffffffffffffffffffffffffffffffffffffff163373ffffffffffffffffffffffffffffffffffffffff1614801561078257506000600254145b156107c157600160028190555060008081819054906101000a900460ff168092919060010191906101000a81548160ff021916908360ff160217905550505b5b5b600a60149054906101000a900460ff161580156107f1575060046000809054906101000a900460ff1660ff16145b156108cb576001600a60146101000a81548160ff021916908315150217905550600a60009054906101000a900473ffffffffffffffffffffffffffffffffffffffff1673ffffffffffffffffffffffffffffffffffffffff1663ce55d026306040518263ffffffff1660e01b8152600401808273ffffffffffffffffffffffffffffffffffffffff1673ffffffffffffffffffffffffffffffffffffffff168152602001915050600060405180830381600087803b1580156108b257600080fd5b505af11580156108c6573d6000803e3d6000fd5b505050505b565b600460009054906101000a900473ffffffffffffffffffffffffffffffffffffffff1681565b600a60009054906101000a900473ffffffffffffffffffffffffffffffffffffffff1681565b60085481565b600a60159054906101000a900460ff1681565b600460009054906101000a900473ffffffffffffffffffffffffffffffffffffffff1673ffffffffffffffffffffffffffffffffffffffff163373ffffffffffffffffffffffffffffffffffffffff161461098c57600080fd5b6001600a60009054906101000a900473ffffffffffffffffffffffffffffffffffffffff1673ffffffffffffffffffffffffffffffffffffffff1663c94d5ec3306040518263ffffffff1660e01b8152600401808273ffffffffffffffffffffffffffffffffffffffff1673ffffffffffffffffffffffffffffffffffffffff16815260200191505060206040518083038186803b158015610a2d57600080fd5b505afa158015610a41573d6000803e3d6000fd5b505050506040513d6020811015610a5757600080fd5b810190808051906020019092919050505060ff1614610ade576040517f08c379a00000000000000000000000000000000000000000000000000000000081526004018080602001828103825260018152602001807f390000000000000000000000000000000000000000000000000000000000000081525060200191505060405180910390fd5b610ae6610f72565b8060088190555050565b600560009054906101000a900473ffffffffffffffffffffffffffffffffffffffff1673ffffffffffffffffffffffffffffffffffffffff163373ffffffffffffffffffffffffffffffffffffffff161480610b995750600760009054906101000a900473ffffffffffffffffffffffffffffffffffffffff1673ffffffffffffffffffffffffffffffffffffffff163373ffffffffffffffffffffffffffffffffffffffff16145b80610bf15750600660009054906101000a900473ffffffffffffffffffffffffffffffffffffffff1673ffffffffffffffffffffffffffffffffffffffff163373ffffffffffffffffffffffffffffffffffffffff16145b610c63576040517f08c379a00000000000000000000000000000000000000000000000000000000081526004018080602001828103825260028152602001807f313900000000000000000000000000000000000000000000000000000000000081525060200191505060405180910390fd5b6000600a60159054906101000a900460ff1660ff1614610ceb576040517f08c379a00000000000000000000000000000000000000000000000000000000081526004018080602001828103825260028152602001807f323200000000000000000000000000000000000000000000000000000000000081525060200191505060405180910390fd5b600560009054906101000a900473ffffffffffffffffffffffffffffffffffffffff1673ffffffffffffffffffffffffffffffffffffffff163373ffffffffffffffffffffffffffffffffffffffff16148015610d4a57506000600154145b15610d5457610e1f565b600760009054906101000a900473ffffffffffffffffffffffffffffffffffffffff1673ffffffffffffffffffffffffffffffffffffffff163373ffffffffffffffffffffffffffffffffffffffff16148015610db357506000600354145b15610dbd57610e1e565b600660009054906101000a900473ffffffffffffffffffffffffffffffffffffffff1673ffffffffffffffffffffffffffffffffffffffff163373ffffffffffffffffffffffffffffffffffffffff16148015610e1c57506000600254145b505b5b600a60149054906101000a900460ff16610eed57600a60009054906101000a900473ffffffffffffffffffffffffffffffffffffffff1673ffffffffffffffffffffffffffffffffffffffff16638bd06b3f306040518263ffffffff1660e01b8152600401808273ffffffffffffffffffffffffffffffffffffffff1673ffffffffffffffffffffffffffffffffffffffff168152602001915050600060405180830381600087803b158015610ed457600080fd5b505af1158015610ee8573d6000803e3d6000fd5b505050505b565b600660009054906101000a900473ffffffffffffffffffffffffffffffffffffffff1681565b60015481565b600760009054906101000a900473ffffffffffffffffffffffffffffffffffffffff1681565b6000809054906101000a900460ff1681565b600a60149054906101000a900460ff1681565b60095481565b60035481565b60016000806101000a81548160ff021916908360ff16021790555060006001819055506000600381905550600060028190555056fea165627a7a7230582054153c8f9d6f9d6a991b106d9dc9c0da63eae63949be9c7f4bd9cdac394436960029",
  "source": "pragma solidity ^ 0.5.0;\nimport \"./Netereum.sol\";\ncontract Transaction\n{\n    uint8 public counterPermission = 1;\n    uint public sellerPermission = 0;\n    uint public buyerCoordinatorPermission = 0;\n    uint public sellerCoordinatorPermission = 0;\n    address public buyer;\n    address public seller;\n    address public buyerCoordinator;\n    address public sellerCoordinator;\n    uint256 public buyerCost;\n    uint256 public sellerCost;\n    address public netereumAddress;\n    bool public netereumCalled = false;\n    uint8 public declinedBy = 0;\n\n    function approve() public\n    {\n        require(msg.sender == seller || msg.sender == sellerCoordinator || msg.sender == buyerCoordinator, \"19\");\n        require(declinedBy == 0, \"22\");\n\n        if(msg.sender == seller && sellerPermission == 0)\n        {\n            sellerPermission = 1;\n            counterPermission++;\n        }\n        else if(msg.sender == sellerCoordinator && sellerCoordinatorPermission == 0)\n        {\n            sellerCoordinatorPermission = 1;\n            counterPermission++;\n        }\n        else if(msg.sender == buyerCoordinator && buyerCoordinatorPermission == 0)\n        {\n            buyerCoordinatorPermission = 1;\n            counterPermission++;\n        }\n        // if all the four sides of a transactions have agreed, then the transaction will be done buy the barterCube if possible\n        if(!netereumCalled && counterPermission == 4)\n        {\n            netereumCalled = true;\n            Netereum(netereumAddress).doTransaction(address (this));//needs to be modified\n        }\n    }\n    function decline() public {\n\n        require(msg.sender == seller || msg.sender == sellerCoordinator || msg.sender == buyerCoordinator, \"19\");\n        require(declinedBy == 0, \"22\");\n\n        if(msg.sender == seller&& sellerPermission == 0)\n        {\n            sellerPermission == 2;\n        }\n        else if(msg.sender == sellerCoordinator && sellerCoordinatorPermission == 0)\n        {\n            sellerCoordinatorPermission == 2;\n        }\n        else if(msg.sender == buyerCoordinator && buyerCoordinatorPermission == 0)\n        {\n            buyerCoordinatorPermission == 2;\n        }\n\n        if(!netereumCalled){\n            Netereum(netereumAddress).declineTransaction(address(this));\n        }\n    }\n\n    function reset() internal\n    {\n        counterPermission =1;\n        sellerPermission = 0;\n        sellerCoordinatorPermission = 0;\n        buyerCoordinatorPermission = 0;\n    }\n\n    constructor(\n        address  _buyer,address  _seller,\n        address  _buyerCoordinator,address _sellerCoordinator,\n        uint256 _buyerCost,uint256 _sellerCost,address _netereumAddress)\n    public\n    {\n        buyer = _buyer;\n        seller = _seller;\n        buyerCoordinator = _buyerCoordinator;\n        sellerCoordinator = _sellerCoordinator;\n        buyerCost = _buyerCost;\n        sellerCost = _sellerCost;\n        netereumAddress = _netereumAddress;\n        // sellerFee = _sellerFee;\n        //buyerMaxFee = _buyerMaxFee;\n        //sellerMaxFee = _sellerMaxFee;\n    }\n    function setMaxFund(uint256 newBuyerCost) public\n    {\n        require(msg.sender == buyer);\n        require(Netereum(netereumAddress).transactionsStatus(address(this)) == 1, \"9\");\n        reset();\n        buyerCost = newBuyerCost;\n    }\n}\n",
  "sourcePath": "/home/momi/WebstormProjects/Netereum/contracts/Transaction.sol",
  "compiler": {
    "name": "solc",
    "version": "0.5.8+commit.23d335f2.Emscripten.clang"
  },
  "schemaVersion": "3.0.16",
  "updatedAt": "2019-11-09T14:57:44.874Z",
  "devdoc": {
    "methods": {}
  },
  "userdoc": {
    "methods": {}
  }
}